{
  "contractName": "IexecEscrowTokenDelegateKYC",
  "abi": [
    {
      "anonymous": false,
      "inputs": [
        {
          "indexed": true,
          "internalType": "address",
          "name": "owner",
          "type": "address"
        },
        {
          "indexed": true,
          "internalType": "address",
          "name": "spender",
          "type": "address"
        },
        {
          "indexed": false,
          "internalType": "uint256",
          "name": "value",
          "type": "uint256"
        }
      ],
      "name": "Approval",
      "type": "event"
    },
    {
      "anonymous": false,
      "inputs": [
        {
          "indexed": false,
          "internalType": "address",
          "name": "owner",
          "type": "address"
        },
        {
          "indexed": false,
          "internalType": "uint256",
          "name": "amount",
          "type": "uint256"
        }
      ],
      "name": "Lock",
      "type": "event"
    },
    {
      "anonymous": false,
      "inputs": [
        {
          "indexed": true,
          "internalType": "address",
          "name": "previousOwner",
          "type": "address"
        },
        {
          "indexed": true,
          "internalType": "address",
          "name": "newOwner",
          "type": "address"
        }
      ],
      "name": "OwnershipTransferred",
      "type": "event"
    },
    {
      "anonymous": false,
      "inputs": [
        {
          "indexed": false,
          "internalType": "address",
          "name": "owner",
          "type": "address"
        },
        {
          "indexed": false,
          "internalType": "uint256",
          "name": "amount",
          "type": "uint256"
        },
        {
          "indexed": false,
          "internalType": "bytes32",
          "name": "ref",
          "type": "bytes32"
        }
      ],
      "name": "Reward",
      "type": "event"
    },
    {
      "anonymous": false,
      "inputs": [
        {
          "indexed": false,
          "internalType": "address",
          "name": "owner",
          "type": "address"
        },
        {
          "indexed": false,
          "internalType": "uint256",
          "name": "amount",
          "type": "uint256"
        },
        {
          "indexed": false,
          "internalType": "bytes32",
          "name": "ref",
          "type": "bytes32"
        }
      ],
      "name": "Seize",
      "type": "event"
    },
    {
      "anonymous": false,
      "inputs": [
        {
          "indexed": true,
          "internalType": "address",
          "name": "from",
          "type": "address"
        },
        {
          "indexed": true,
          "internalType": "address",
          "name": "to",
          "type": "address"
        },
        {
          "indexed": false,
          "internalType": "uint256",
          "name": "value",
          "type": "uint256"
        }
      ],
      "name": "Transfer",
      "type": "event"
    },
    {
      "anonymous": false,
      "inputs": [
        {
          "indexed": false,
          "internalType": "address",
          "name": "owner",
          "type": "address"
        },
        {
          "indexed": false,
          "internalType": "uint256",
          "name": "amount",
          "type": "uint256"
        }
      ],
      "name": "Unlock",
      "type": "event"
    },
    {
      "stateMutability": "payable",
      "type": "fallback"
    },
    {
      "inputs": [
        {
          "internalType": "uint256",
          "name": "amount",
          "type": "uint256"
        }
      ],
      "name": "deposit",
      "outputs": [
        {
          "internalType": "bool",
          "name": "",
          "type": "bool"
        }
      ],
      "stateMutability": "nonpayable",
      "type": "function"
    },
    {
      "inputs": [
        {
          "internalType": "uint256",
          "name": "amount",
          "type": "uint256"
        },
        {
          "internalType": "address",
          "name": "target",
          "type": "address"
        }
      ],
      "name": "depositFor",
      "outputs": [
        {
          "internalType": "bool",
          "name": "",
          "type": "bool"
        }
      ],
      "stateMutability": "nonpayable",
      "type": "function"
    },
    {
      "inputs": [
        {
          "internalType": "uint256[]",
          "name": "amounts",
          "type": "uint256[]"
        },
        {
          "internalType": "address[]",
          "name": "targets",
          "type": "address[]"
        }
      ],
      "name": "depositForArray",
      "outputs": [
        {
          "internalType": "bool",
          "name": "",
          "type": "bool"
        }
      ],
      "stateMutability": "nonpayable",
      "type": "function"
    },
    {
      "inputs": [],
      "name": "owner",
      "outputs": [
        {
          "internalType": "address",
          "name": "",
          "type": "address"
        }
      ],
      "stateMutability": "view",
      "type": "function"
    },
    {
      "inputs": [
        {
          "internalType": "address",
          "name": "sender",
          "type": "address"
        },
        {
          "internalType": "uint256",
          "name": "amount",
          "type": "uint256"
        },
        {
          "internalType": "address",
          "name": "token",
          "type": "address"
        },
        {
          "internalType": "bytes",
          "name": "",
          "type": "bytes"
        }
      ],
      "name": "receiveApproval",
      "outputs": [
        {
          "internalType": "bool",
          "name": "",
          "type": "bool"
        }
      ],
      "stateMutability": "nonpayable",
      "type": "function"
    },
    {
      "inputs": [],
      "name": "recover",
      "outputs": [
        {
          "internalType": "uint256",
          "name": "",
          "type": "uint256"
        }
      ],
      "stateMutability": "nonpayable",
      "type": "function"
    },
    {
      "inputs": [],
      "name": "renounceOwnership",
      "outputs": [],
      "stateMutability": "nonpayable",
      "type": "function"
    },
    {
      "inputs": [
        {
          "internalType": "address",
          "name": "newOwner",
          "type": "address"
        }
      ],
      "name": "transferOwnership",
      "outputs": [],
      "stateMutability": "nonpayable",
      "type": "function"
    },
    {
      "inputs": [
        {
          "internalType": "uint256",
          "name": "amount",
          "type": "uint256"
        }
      ],
      "name": "withdraw",
      "outputs": [
        {
          "internalType": "bool",
          "name": "",
          "type": "bool"
        }
      ],
      "stateMutability": "nonpayable",
      "type": "function"
    },
    {
      "inputs": [
        {
          "internalType": "uint256",
          "name": "amount",
          "type": "uint256"
        },
        {
          "internalType": "address",
          "name": "target",
          "type": "address"
        }
      ],
      "name": "withdrawTo",
      "outputs": [
        {
          "internalType": "bool",
          "name": "",
          "type": "bool"
        }
      ],
      "stateMutability": "nonpayable",
      "type": "function"
    },
    {
      "stateMutability": "payable",
      "type": "receive"
    }
  ],
  "bytecode": "0x608060405234801561001057600080fd5b50600061001b610060565b600080546001600160a01b0319166001600160a01b038316908117825560405192935091600080516020611063833981519152908290a35061005b610064565b61010f565b3390565b61006c610060565b6000546001600160a01b039081169116146100a25760405162461bcd60e51b8152600401610099906100da565b60405180910390fd5b600080546040516001600160a01b0390911690600080516020611063833981519152908390a3600080546001600160a01b0319169055565b6020808252818101527f4f776e61626c653a2063616c6c6572206973206e6f7420746865206f776e6572604082015260600190565b610f458061011e6000396000f3fe6080604052600436106100955760003560e01c80638f4ffcb1116100595780638f4ffcb114610182578063b6b55f25146101a2578063c86283c8146101c2578063ce746024146101e2578063f2fde38b14610204576100bb565b80632e1a7d4d146100d35780633354f8a51461010957806336efd16f14610129578063715018a6146101495780638da5cb5b14610160576100bb565b366100bb5760405162461bcd60e51b81526004016100b290610dec565b60405180910390fd5b60405162461bcd60e51b81526004016100b290610dec565b3480156100df57600080fd5b506100f36100ee366004610c09565b610224565b6040516101009190610cd7565b60405180910390f35b34801561011557600080fd5b506100f3610124366004610ae5565b610250565b34801561013557600080fd5b506100f3610144366004610c39565b6102ef565b34801561015557600080fd5b5061015e610316565b005b34801561016c57600080fd5b50610175610395565b6040516101009190610c86565b34801561018e57600080fd5b506100f361019d366004610a4b565b6103a4565b3480156101ae57600080fd5b506100f36101bd366004610c09565b6103e8565b3480156101ce57600080fd5b506100f36101dd366004610c39565b61040c565b3480156101ee57600080fd5b506101f7610429565b6040516101009190610eb4565b34801561021057600080fd5b5061015e61021f366004610a30565b61050a565b60006102376102316105c0565b836105c4565b6102486102426105c0565b83610681565b506001919050565b60008382146102715760405162461bcd60e51b81526004016100b290610d89565b60005b848110156102e35761029f6102876105c0565b87878481811061029357fe5b9050602002013561070a565b6102db8484838181106102ae57fe5b90506020020160208101906102c39190610a30565b8787848181106102cf57fe5b905060200201356107b0565b600101610274565b50600195945050505050565b60006103026102fc6105c0565b8461070a565b61030c82846107b0565b5060015b92915050565b61031e6105c0565b6000546001600160a01b0390811691161461034b5760405162461bcd60e51b81526004016100b290610db7565b600080546040516001600160a01b03909116907f8be0079c531659141344cd1fd0a4f28419497f9722a3daafe3b4186f6b6457e0908390a3600080546001600160a01b0319169055565b6000546001600160a01b031690565b6008546000906001600160a01b038581169116146103d45760405162461bcd60e51b81526004016100b290610e58565b6103de868661070a565b6102e386866107b0565b60006103fb6103f56105c0565b8361070a565b6102486104066105c0565b836107b0565b600061041f6104196105c0565b846105c4565b61030c8284610681565b60006104336105c0565b6000546001600160a01b039081169116146104605760405162461bcd60e51b81526004016100b290610db7565b600c546008546040516370a0823160e01b81526000926104f29290916001600160a01b03909116906370a082319061049c903090600401610c86565b60206040518083038186803b1580156104b457600080fd5b505afa1580156104c8573d6000803e3d6000fd5b505050506040513d601f19601f820116820180604052508101906104ec9190610c21565b90610864565b90506105056104ff610395565b826107b0565b905090565b6105126105c0565b6000546001600160a01b0390811691161461053f5760405162461bcd60e51b81526004016100b290610db7565b6001600160a01b0381166105655760405162461bcd60e51b81526004016100b290610d15565b600080546040516001600160a01b03808516939216917f8be0079c531659141344cd1fd0a4f28419497f9722a3daafe3b4186f6b6457e091a3600080546001600160a01b0319166001600160a01b0392909216919091179055565b3390565b6001600160a01b0382166105ea5760405162461bcd60e51b81526004016100b290610e17565b6105f682600083610879565b600c546106039082610864565b600c556001600160a01b0382166000908152600d60205260409020546106299082610864565b6001600160a01b0383166000818152600d60205260408082209390935591517fddf252ad1be2c89b69c2b068fc378daa952ba7f163c4a11628f55a4df523b3ef90610675908590610eb4565b60405180910390a35050565b60085460405163a9059cbb60e01b81526001600160a01b039091169063a9059cbb906106b39085908590600401610cbe565b602060405180830381600087803b1580156106cd57600080fd5b505af11580156106e1573d6000803e3d6000fd5b505050506040513d601f19601f820116820180604052508101906107059190610b4e565b505050565b6008546040516323b872dd60e01b81526001600160a01b03909116906323b872dd9061073e90859030908690600401610c9a565b602060405180830381600087803b15801561075857600080fd5b505af115801561076c573d6000803e3d6000fd5b505050506040513d601f19601f820116820180604052508101906107909190610b4e565b6107ac5760405162461bcd60e51b81526004016100b290610d5b565b5050565b6001600160a01b0382166107d65760405162461bcd60e51b81526004016100b290610e7d565b6107e260008383610879565b600c546107ef9082610884565b600c556001600160a01b0382166000908152600d60205260409020546108159082610884565b6001600160a01b0383166000818152600d60205260408082209390935591519091907fddf252ad1be2c89b69c2b068fc378daa952ba7f163c4a11628f55a4df523b3ef90610675908590610eb4565b60008282111561087357600080fd5b50900390565b61070583838361089d565b60008282018381101561089657600080fd5b9392505050565b60085460405163d4ce141560e01b81526000916001600160a01b03169063d4ce1415906108d290879087908790600401610c9a565b60206040518083038186803b1580156108ea57600080fd5b505afa1580156108fe573d6000803e3d6000fd5b505050506040513d601f19601f820116820180604052508101906109229190610c65565b905060ff8116156109ca57600854604051637f4ab1dd60e01b81526001600160a01b0390911690637f4ab1dd9061095d908490600401610ebd565b60006040518083038186803b15801561097557600080fd5b505afa158015610989573d6000803e3d6000fd5b505050506040513d6000823e601f3d908101601f191682016040526109b19190810190610b6e565b60405162461bcd60e51b81526004016100b29190610ce2565b50505050565b80356001600160a01b038116811461031057600080fd5b60008083601f8401126109f8578182fd5b50813567ffffffffffffffff811115610a0f578182fd5b6020830191508360208083028501011115610a2957600080fd5b9250929050565b600060208284031215610a41578081fd5b61089683836109d0565b600080600080600060808688031215610a62578081fd5b8535610a6d81610ef7565b9450602086013593506040860135610a8481610ef7565b9250606086013567ffffffffffffffff80821115610aa0578283fd5b818801915088601f830112610ab3578283fd5b813581811115610ac1578384fd5b896020828501011115610ad2578384fd5b9699959850939650602001949392505050565b60008060008060408587031215610afa578384fd5b843567ffffffffffffffff80821115610b11578586fd5b610b1d888389016109e7565b90965094506020870135915080821115610b35578384fd5b50610b42878288016109e7565b95989497509550505050565b600060208284031215610b5f578081fd5b81518015158114610896578182fd5b600060208284031215610b7f578081fd5b815167ffffffffffffffff80821115610b96578283fd5b818401915084601f830112610ba9578283fd5b815181811115610bb7578384fd5b604051601f8201601f191681016020018381118282101715610bd7578586fd5b604052818152838201602001871015610bee578485fd5b610bff826020830160208701610ecb565b9695505050505050565b600060208284031215610c1a578081fd5b5035919050565b600060208284031215610c32578081fd5b5051919050565b60008060408385031215610c4b578182fd5b82359150610c5c84602085016109d0565b90509250929050565b600060208284031215610c76578081fd5b815160ff81168114610896578182fd5b6001600160a01b0391909116815260200190565b6001600160a01b039384168152919092166020820152604081019190915260600190565b6001600160a01b03929092168252602082015260400190565b901515815260200190565b6000602082528251806020840152610d01816040850160208701610ecb565b601f01601f19169190910160400192915050565b60208082526026908201527f4f776e61626c653a206e6577206f776e657220697320746865207a65726f206160408201526564647265737360d01b606082015260800190565b6020808252601490820152736661696c6c65642d7472616e7366657246726f6d60601b604082015260600190565b6020808252601490820152730d2dcecc2d8d2c85ac2e4e4c2f25ad8cadccee8d60631b604082015260600190565b6020808252818101527f4f776e61626c653a2063616c6c6572206973206e6f7420746865206f776e6572604082015260600190565b60208082526011908201527019985b1b189858dacb591a5cd8589b1959607a1b604082015260600190565b60208082526021908201527f45524332303a206275726e2066726f6d20746865207a65726f206164647265736040820152607360f81b606082015260800190565b6020808252600b908201526a3bb937b73396ba37b5b2b760a91b604082015260600190565b6020808252601f908201527f45524332303a206d696e7420746f20746865207a65726f206164647265737300604082015260600190565b90815260200190565b60ff91909116815260200190565b60005b83811015610ee6578181015183820152602001610ece565b838111156109ca5750506000910152565b6001600160a01b0381168114610f0c57600080fd5b5056fea2646970667358221220bed1d3db1220feccff8ad1b59df8a6b1ce5a044f7dc11ad8f29981933fd5210564736f6c634300060c00338be0079c531659141344cd1fd0a4f28419497f9722a3daafe3b4186f6b6457e0",
  "immutableReferences": {},
  "source": "// SPDX-License-Identifier: Apache-2.0\r\n\r\n/******************************************************************************\r\n * Copyright 2020 IEXEC BLOCKCHAIN TECH                                       *\r\n *                                                                            *\r\n * Licensed under the Apache License, Version 2.0 (the \"License\");            *\r\n * you may not use this file except in compliance with the License.           *\r\n * You may obtain a copy of the License at                                    *\r\n *                                                                            *\r\n *     http://www.apache.org/licenses/LICENSE-2.0                             *\r\n *                                                                            *\r\n * Unless required by applicable law or agreed to in writing, software        *\r\n * distributed under the License is distributed on an \"AS IS\" BASIS,          *\r\n * WITHOUT WARRANTIES OR CONDITIONS OF ANY KIND, either express or implied.   *\r\n * See the License for the specific language governing permissions and        *\r\n * limitations under the License.                                             *\r\n ******************************************************************************/\r\n\r\npragma solidity ^0.6.0;\r\npragma experimental ABIEncoderV2;\r\n\r\nimport \"./IexecEscrowTokenDelegate.sol\";\r\nimport \"./IexecERC20CoreKYC.sol\";\r\n\r\n\r\ncontract IexecEscrowTokenDelegateKYC is IexecEscrowTokenDelegate, IexecERC20CoreKYC\r\n{\r\n\tfunction _beforeTokenTransfer(address from, address to, uint256 amount)\r\n\tinternal virtual override(IexecERC20Core, IexecERC20CoreKYC)\r\n\t{\r\n\t\tIexecERC20CoreKYC._beforeTokenTransfer(from, to, amount);\r\n\t}\r\n\r\n\tfunction _isAuthorized(address account)\r\n\tinternal virtual override(IexecERC20Core, IexecERC20CoreKYC) returns (bool)\r\n\t{\r\n\t\treturn IexecERC20CoreKYC._isAuthorized(account);\r\n\t}\r\n}\r\n",
  "sourcePath": "D:\\iexec\\PoCo\\contracts\\modules\\delegates\\IexecEscrowTokenDelegateKYC.sol",
  "compiler": {
    "name": "solc",
    "version": "0.6.12+commit.27d51765.Emscripten.clang"
  },
  "schemaVersion": "3.4.3",
  "updatedAt": "2021-08-31T16:42:43.636Z",
  "networkType": "ethereum",
  "devdoc": {
    "kind": "dev",
    "methods": {
      "owner()": {
        "details": "Returns the address of the current owner."
      },
      "renounceOwnership()": {
        "details": "Leaves the contract without owner. It will not be possible to call `onlyOwner` functions anymore. Can only be called by the current owner. NOTE: Renouncing ownership will leave the contract without an owner, thereby removing any functionality that is only available to the owner."
      },
      "transferOwnership(address)": {
        "details": "Transfers ownership of the contract to a new account (`newOwner`). Can only be called by the current owner."
      }
    },
    "version": 1
  },
  "userdoc": {
    "kind": "user",
    "methods": {},
    "version": 1
  }
}