{
  "contractName": "IexecAccessorsDelegate",
  "abi": [
    {
      "anonymous": false,
      "inputs": [
        {
          "indexed": true,
          "internalType": "address",
          "name": "previousOwner",
          "type": "address"
        },
        {
          "indexed": true,
          "internalType": "address",
          "name": "newOwner",
          "type": "address"
        }
      ],
      "name": "OwnershipTransferred",
      "type": "event"
    },
    {
      "inputs": [],
      "name": "owner",
      "outputs": [
        {
          "internalType": "address",
          "name": "",
          "type": "address"
        }
      ],
      "stateMutability": "view",
      "type": "function",
      "constant": true
    },
    {
      "inputs": [],
      "name": "renounceOwnership",
      "outputs": [],
      "stateMutability": "nonpayable",
      "type": "function"
    },
    {
      "inputs": [
        {
          "internalType": "address",
          "name": "newOwner",
          "type": "address"
        }
      ],
      "name": "transferOwnership",
      "outputs": [],
      "stateMutability": "nonpayable",
      "type": "function"
    },
    {
      "inputs": [],
      "name": "name",
      "outputs": [
        {
          "internalType": "string",
          "name": "",
          "type": "string"
        }
      ],
      "stateMutability": "view",
      "type": "function",
      "constant": true
    },
    {
      "inputs": [],
      "name": "symbol",
      "outputs": [
        {
          "internalType": "string",
          "name": "",
          "type": "string"
        }
      ],
      "stateMutability": "view",
      "type": "function",
      "constant": true
    },
    {
      "inputs": [],
      "name": "decimals",
      "outputs": [
        {
          "internalType": "uint8",
          "name": "",
          "type": "uint8"
        }
      ],
      "stateMutability": "view",
      "type": "function",
      "constant": true
    },
    {
      "inputs": [],
      "name": "totalSupply",
      "outputs": [
        {
          "internalType": "uint256",
          "name": "",
          "type": "uint256"
        }
      ],
      "stateMutability": "view",
      "type": "function",
      "constant": true
    },
    {
      "inputs": [
        {
          "internalType": "address",
          "name": "account",
          "type": "address"
        }
      ],
      "name": "balanceOf",
      "outputs": [
        {
          "internalType": "uint256",
          "name": "",
          "type": "uint256"
        }
      ],
      "stateMutability": "view",
      "type": "function",
      "constant": true
    },
    {
      "inputs": [
        {
          "internalType": "address",
          "name": "account",
          "type": "address"
        }
      ],
      "name": "frozenOf",
      "outputs": [
        {
          "internalType": "uint256",
          "name": "",
          "type": "uint256"
        }
      ],
      "stateMutability": "view",
      "type": "function",
      "constant": true
    },
    {
      "inputs": [
        {
          "internalType": "address",
          "name": "account",
          "type": "address"
        },
        {
          "internalType": "address",
          "name": "spender",
          "type": "address"
        }
      ],
      "name": "allowance",
      "outputs": [
        {
          "internalType": "uint256",
          "name": "",
          "type": "uint256"
        }
      ],
      "stateMutability": "view",
      "type": "function",
      "constant": true
    },
    {
      "inputs": [
        {
          "internalType": "address",
          "name": "account",
          "type": "address"
        }
      ],
      "name": "viewAccount",
      "outputs": [
        {
          "components": [
            {
              "internalType": "uint256",
              "name": "stake",
              "type": "uint256"
            },
            {
              "internalType": "uint256",
              "name": "locked",
              "type": "uint256"
            }
          ],
          "internalType": "struct IexecLibCore_v5.Account",
          "name": "",
          "type": "tuple"
        }
      ],
      "stateMutability": "view",
      "type": "function",
      "constant": true
    },
    {
      "inputs": [],
      "name": "token",
      "outputs": [
        {
          "internalType": "address",
          "name": "",
          "type": "address"
        }
      ],
      "stateMutability": "view",
      "type": "function",
      "constant": true
    },
    {
      "inputs": [
        {
          "internalType": "bytes32",
          "name": "_id",
          "type": "bytes32"
        }
      ],
      "name": "viewDeal",
      "outputs": [
        {
          "components": [
            {
              "components": [
                {
                  "internalType": "address",
                  "name": "pointer",
                  "type": "address"
                },
                {
                  "internalType": "address",
                  "name": "owner",
                  "type": "address"
                },
                {
                  "internalType": "uint256",
                  "name": "price",
                  "type": "uint256"
                }
              ],
              "internalType": "struct IexecLibCore_v5.Resource",
              "name": "app",
              "type": "tuple"
            },
            {
              "components": [
                {
                  "internalType": "address",
                  "name": "pointer",
                  "type": "address"
                },
                {
                  "internalType": "address",
                  "name": "owner",
                  "type": "address"
                },
                {
                  "internalType": "uint256",
                  "name": "price",
                  "type": "uint256"
                }
              ],
              "internalType": "struct IexecLibCore_v5.Resource",
              "name": "dataset",
              "type": "tuple"
            },
            {
              "components": [
                {
                  "internalType": "address",
                  "name": "pointer",
                  "type": "address"
                },
                {
                  "internalType": "address",
                  "name": "owner",
                  "type": "address"
                },
                {
                  "internalType": "uint256",
                  "name": "price",
                  "type": "uint256"
                }
              ],
              "internalType": "struct IexecLibCore_v5.Resource",
              "name": "workerpool",
              "type": "tuple"
            },
            {
              "internalType": "uint256",
              "name": "trust",
              "type": "uint256"
            },
            {
              "internalType": "uint256",
              "name": "category",
              "type": "uint256"
            },
            {
              "internalType": "bytes32",
              "name": "tag",
              "type": "bytes32"
            },
            {
              "internalType": "address",
              "name": "requester",
              "type": "address"
            },
            {
              "internalType": "address",
              "name": "beneficiary",
              "type": "address"
            },
            {
              "internalType": "address",
              "name": "callback",
              "type": "address"
            },
            {
              "internalType": "string",
              "name": "params",
              "type": "string"
            },
            {
              "internalType": "uint256",
              "name": "startTime",
              "type": "uint256"
            },
            {
              "internalType": "uint256",
              "name": "botFirst",
              "type": "uint256"
            },
            {
              "internalType": "uint256",
              "name": "botSize",
              "type": "uint256"
            },
            {
              "internalType": "uint256",
              "name": "workerStake",
              "type": "uint256"
            },
            {
              "internalType": "uint256",
              "name": "schedulerRewardRatio",
              "type": "uint256"
            }
          ],
          "internalType": "struct IexecLibCore_v5.Deal",
          "name": "deal",
          "type": "tuple"
        }
      ],
      "stateMutability": "view",
      "type": "function",
      "constant": true
    },
    {
      "inputs": [
        {
          "internalType": "bytes32",
          "name": "_id",
          "type": "bytes32"
        }
      ],
      "name": "viewConsumed",
      "outputs": [
        {
          "internalType": "uint256",
          "name": "consumed",
          "type": "uint256"
        }
      ],
      "stateMutability": "view",
      "type": "function",
      "constant": true
    },
    {
      "inputs": [
        {
          "internalType": "bytes32",
          "name": "_id",
          "type": "bytes32"
        }
      ],
      "name": "viewPresigned",
      "outputs": [
        {
          "internalType": "address",
          "name": "signer",
          "type": "address"
        }
      ],
      "stateMutability": "view",
      "type": "function",
      "constant": true
    },
    {
      "inputs": [
        {
          "internalType": "bytes32",
          "name": "_taskid",
          "type": "bytes32"
        }
      ],
      "name": "viewTask",
      "outputs": [
        {
          "components": [
            {
              "internalType": "enum IexecLibCore_v5.TaskStatusEnum",
              "name": "status",
              "type": "uint8"
            },
            {
              "internalType": "bytes32",
              "name": "dealid",
              "type": "bytes32"
            },
            {
              "internalType": "uint256",
              "name": "idx",
              "type": "uint256"
            },
            {
              "internalType": "uint256",
              "name": "timeref",
              "type": "uint256"
            },
            {
              "internalType": "uint256",
              "name": "contributionDeadline",
              "type": "uint256"
            },
            {
              "internalType": "uint256",
              "name": "revealDeadline",
              "type": "uint256"
            },
            {
              "internalType": "uint256",
              "name": "finalDeadline",
              "type": "uint256"
            },
            {
              "internalType": "bytes32",
              "name": "consensusValue",
              "type": "bytes32"
            },
            {
              "internalType": "uint256",
              "name": "revealCounter",
              "type": "uint256"
            },
            {
              "internalType": "uint256",
              "name": "winnerCounter",
              "type": "uint256"
            },
            {
              "internalType": "address[]",
              "name": "contributors",
              "type": "address[]"
            },
            {
              "internalType": "bytes32",
              "name": "resultDigest",
              "type": "bytes32"
            },
            {
              "internalType": "bytes",
              "name": "results",
              "type": "bytes"
            },
            {
              "internalType": "uint256",
              "name": "resultsTimestamp",
              "type": "uint256"
            },
            {
              "internalType": "bytes",
              "name": "resultsCallback",
              "type": "bytes"
            }
          ],
          "internalType": "struct IexecLibCore_v5.Task",
          "name": "",
          "type": "tuple"
        }
      ],
      "stateMutability": "view",
      "type": "function",
      "constant": true
    },
    {
      "inputs": [
        {
          "internalType": "bytes32",
          "name": "_taskid",
          "type": "bytes32"
        },
        {
          "internalType": "address",
          "name": "_worker",
          "type": "address"
        }
      ],
      "name": "viewContribution",
      "outputs": [
        {
          "components": [
            {
              "internalType": "enum IexecLibCore_v5.ContributionStatusEnum",
              "name": "status",
              "type": "uint8"
            },
            {
              "internalType": "bytes32",
              "name": "resultHash",
              "type": "bytes32"
            },
            {
              "internalType": "bytes32",
              "name": "resultSeal",
              "type": "bytes32"
            },
            {
              "internalType": "address",
              "name": "enclaveChallenge",
              "type": "address"
            },
            {
              "internalType": "uint256",
              "name": "weight",
              "type": "uint256"
            }
          ],
          "internalType": "struct IexecLibCore_v5.Contribution",
          "name": "",
          "type": "tuple"
        }
      ],
      "stateMutability": "view",
      "type": "function",
      "constant": true
    },
    {
      "inputs": [
        {
          "internalType": "address",
          "name": "_worker",
          "type": "address"
        }
      ],
      "name": "viewScore",
      "outputs": [
        {
          "internalType": "uint256",
          "name": "",
          "type": "uint256"
        }
      ],
      "stateMutability": "view",
      "type": "function",
      "constant": true
    },
    {
      "inputs": [
        {
          "internalType": "bytes32",
          "name": "id",
          "type": "bytes32"
        }
      ],
      "name": "resultFor",
      "outputs": [
        {
          "internalType": "bytes",
          "name": "",
          "type": "bytes"
        }
      ],
      "stateMutability": "view",
      "type": "function",
      "constant": true
    },
    {
      "inputs": [
        {
          "internalType": "uint256",
          "name": "_catid",
          "type": "uint256"
        }
      ],
      "name": "viewCategory",
      "outputs": [
        {
          "components": [
            {
              "internalType": "string",
              "name": "name",
              "type": "string"
            },
            {
              "internalType": "string",
              "name": "description",
              "type": "string"
            },
            {
              "internalType": "uint256",
              "name": "workClockTimeRef",
              "type": "uint256"
            }
          ],
          "internalType": "struct IexecLibCore_v5.Category",
          "name": "category",
          "type": "tuple"
        }
      ],
      "stateMutability": "view",
      "type": "function",
      "constant": true
    },
    {
      "inputs": [],
      "name": "countCategory",
      "outputs": [
        {
          "internalType": "uint256",
          "name": "count",
          "type": "uint256"
        }
      ],
      "stateMutability": "view",
      "type": "function",
      "constant": true
    },
    {
      "inputs": [],
      "name": "appregistry",
      "outputs": [
        {
          "internalType": "contract IRegistry",
          "name": "",
          "type": "address"
        }
      ],
      "stateMutability": "view",
      "type": "function",
      "constant": true
    },
    {
      "inputs": [],
      "name": "datasetregistry",
      "outputs": [
        {
          "internalType": "contract IRegistry",
          "name": "",
          "type": "address"
        }
      ],
      "stateMutability": "view",
      "type": "function",
      "constant": true
    },
    {
      "inputs": [],
      "name": "workerpoolregistry",
      "outputs": [
        {
          "internalType": "contract IRegistry",
          "name": "",
          "type": "address"
        }
      ],
      "stateMutability": "view",
      "type": "function",
      "constant": true
    },
    {
      "inputs": [],
      "name": "teebroker",
      "outputs": [
        {
          "internalType": "address",
          "name": "",
          "type": "address"
        }
      ],
      "stateMutability": "view",
      "type": "function",
      "constant": true
    },
    {
      "inputs": [],
      "name": "callbackgas",
      "outputs": [
        {
          "internalType": "uint256",
          "name": "",
          "type": "uint256"
        }
      ],
      "stateMutability": "view",
      "type": "function",
      "constant": true
    },
    {
      "inputs": [],
      "name": "contribution_deadline_ratio",
      "outputs": [
        {
          "internalType": "uint256",
          "name": "",
          "type": "uint256"
        }
      ],
      "stateMutability": "view",
      "type": "function",
      "constant": true
    },
    {
      "inputs": [],
      "name": "reveal_deadline_ratio",
      "outputs": [
        {
          "internalType": "uint256",
          "name": "",
          "type": "uint256"
        }
      ],
      "stateMutability": "view",
      "type": "function",
      "constant": true
    },
    {
      "inputs": [],
      "name": "final_deadline_ratio",
      "outputs": [
        {
          "internalType": "uint256",
          "name": "",
          "type": "uint256"
        }
      ],
      "stateMutability": "view",
      "type": "function",
      "constant": true
    },
    {
      "inputs": [],
      "name": "workerpool_stake_ratio",
      "outputs": [
        {
          "internalType": "uint256",
          "name": "",
          "type": "uint256"
        }
      ],
      "stateMutability": "view",
      "type": "function",
      "constant": true
    },
    {
      "inputs": [],
      "name": "kitty_ratio",
      "outputs": [
        {
          "internalType": "uint256",
          "name": "",
          "type": "uint256"
        }
      ],
      "stateMutability": "view",
      "type": "function",
      "constant": true
    },
    {
      "inputs": [],
      "name": "kitty_min",
      "outputs": [
        {
          "internalType": "uint256",
          "name": "",
          "type": "uint256"
        }
      ],
      "stateMutability": "view",
      "type": "function",
      "constant": true
    },
    {
      "inputs": [],
      "name": "kitty_address",
      "outputs": [
        {
          "internalType": "address",
          "name": "",
          "type": "address"
        }
      ],
      "stateMutability": "view",
      "type": "function",
      "constant": true
    },
    {
      "inputs": [],
      "name": "groupmember_purpose",
      "outputs": [
        {
          "internalType": "uint256",
          "name": "",
          "type": "uint256"
        }
      ],
      "stateMutability": "view",
      "type": "function",
      "constant": true
    },
    {
      "inputs": [],
      "name": "eip712domain_separator",
      "outputs": [
        {
          "internalType": "bytes32",
          "name": "",
          "type": "bytes32"
        }
      ],
      "stateMutability": "view",
      "type": "function",
      "constant": true
    }
  ],
  "bytecode": "0x60806040523480156200001157600080fd5b5060006200001e62000067565b600080546001600160a01b0319166001600160a01b03831690811782556040519293509160008051602062001719833981519152908290a350620000616200006b565b6200011c565b3390565b6200007562000067565b6000546001600160a01b03908116911614620000ae5760405162461bcd60e51b8152600401620000a590620000e7565b60405180910390fd5b600080546040516001600160a01b039091169060008051602062001719833981519152908390a3600080546001600160a01b0319169055565b6020808252818101527f4f776e61626c653a2063616c6c6572206973206e6f7420746865206f776e6572604082015260600190565b6115ed806200012c6000396000f3fe608060405234801561001057600080fd5b50600436106102115760003560e01c806390a0f54611610125578063d286eb16116100ad578063dd62ed3e1161007c578063dd62ed3e146103df578063e63ec07d146103f2578063e741363b146103fa578063f2fde38b1461041a578063fc0c546a1461042d57610211565b8063d286eb16146103b1578063db230b52146103c4578063db8aaa26146103d7578063dcb03241146103d757610211565b8063adccf0d5116100f4578063adccf0d51461034e578063b1b11d2c1461036e578063b74861b214610376578063c140996f14610396578063d09cc57e1461039e57610211565b806390a0f5461461032e57806395d89b41146103365780639910fd721461033e578063a47e7f801461034657610211565b80634f5f44ec116101a857806370a082311161017757806370a08231146102f9578063715018a61461030c57806374ed52441461031657806377a996921461031e5780638da5cb5b1461032657610211565b80634f5f44ec146102a95780635975b8fc146102c95780636112f6fd146102d15780636b55f4a5146102d957610211565b80632b8857c1116101e45780632b8857c114610264578063313ce5671461026c57806345b637a9146102815780634b2bec8c1461029657610211565b806306fdde031461021657806318160ddd146102345780631bf6e00d1461024957806325eacba81461025c575b600080fd5b61021e610435565b60405161022b9190611245565b60405180910390f35b61023c6104cb565b60405161022b919061123c565b61023c6102573660046110b0565b6104d1565b61023c6104ec565b61023c6104f1565b6102746104f6565b60405161022b91906115a9565b6102896104ff565b60405161022b9190611228565b61023c6102a4366004611106565b61050e565b6102bc6102b7366004611106565b610520565b60405161022b9190611310565b610289610694565b61023c6106a3565b6102ec6102e73660046110b0565b6106a8565b60405161022b91906112f9565b61023c6103073660046110b0565b6106eb565b610314610706565b005b61023c61078e565b61023c610793565b61028961079b565b6102896107aa565b61021e6107b9565b61023c61081a565b610289610820565b61036161035c366004611106565b610838565b60405161022b91906114ab565b610289610a7a565b610389610384366004611106565b610a89565b60405161022b91906113ab565b61023c610c48565b61021e6103ac366004611106565b610c4e565b6102896103bf366004611106565b610d23565b61023c6103d23660046110b0565b610d3e565b61023c610d59565b61023c6103ed3660046110d2565b610d5e565b61023c610d8b565b61040d61040836600461111e565b610d91565b60405161022b9190611360565b6103146104283660046110b0565b610e1f565b610289610ed5565b60098054604080516020601f60026000196101006001881615020190951694909404938401819004810282018101909252828152606093909290918301828280156104c15780601f10610496576101008083540402835291602001916104c1565b820191906000526020600020905b8154815290600101906020018083116104a457829003601f168201915b5050505050905090565b600c5490565b6001600160a01b03166000908152600e602052604090205490565b600490565b600290565b600b5460ff1690565b6005546001600160a01b031690565b60009081526012602052604090205490565b610528610ee8565b601c828154811061053557fe5b600091825260209182902060408051600393909302909101805460026001821615610100026000190190911604601f81018590049094028301608090810190925260608301848152929390928492909184918401828280156105d85780601f106105ad576101008083540402835291602001916105d8565b820191906000526020600020905b8154815290600101906020018083116105bb57829003601f168201915b50505050508152602001600182018054600181600116156101000203166002900480601f01602080910402602001604051908101604052809291908181526020018280546001816001161561010002031660029004801561067a5780601f1061064f5761010080835404028352916020019161067a565b820191906000526020600020905b81548152906001019060200180831161065d57829003601f168201915b505050505081526020016002820154815250509050919050565b601a546001600160a01b031690565b601e90565b6106b0610f09565b506040805180820182526001600160a01b03929092166000818152600d6020908152838220548552918152600e825291909120549082015290565b6001600160a01b03166000908152600d602052604090205490565b61070e610ee4565b6000546001600160a01b039081169116146107445760405162461bcd60e51b815260040161073b9061129e565b60405180910390fd5b600080546040516001600160a01b03909116907f8be0079c531659141344cd1fd0a4f28419497f9722a3daafe3b4186f6b6457e0908390a3600080546001600160a01b0319169055565b600790565b633b9aca0090565b6000546001600160a01b031690565b6007546001600160a01b031690565b600a8054604080516020601f60026000196101006001881615020190951694909404938401819004810282018101909252828152606093909290918301828280156104c15780601f10610496576101008083540402835291602001916104c1565b60105490565b7399c2268479b93fde36232351229815df80837e2390565b610840610f23565b6000828152601460205260409081902081516101e081019092528054829060ff16600481111561086c57fe5b600481111561087757fe5b8152602001600182015481526020016002820154815260200160038201548152602001600482015481526020016005820154815260200160068201548152602001600782015481526020016008820154815260200160098201548152602001600a820180548060200260200160405190810160405280929190818152602001828054801561092e57602002820191906000526020600020905b81546001600160a01b03168152600190910190602001808311610910575b5050509183525050600b820154602080830191909152600c8301805460408051601f600260001961010060018716150201909416939093049283018590048502810185018252828152940193928301828280156109cc5780601f106109a1576101008083540402835291602001916109cc565b820191906000526020600020905b8154815290600101906020018083116109af57829003601f168201915b5050509183525050600d820154602080830191909152600e8301805460408051601f60026000196101006001871615020190941693909304928301859004850281018501825282815294019392830182828015610a6a5780601f10610a3f57610100808354040283529160200191610a6a565b820191906000526020600020905b815481529060010190602001808311610a4d57829003601f168201915b5050505050815250509050919050565b6006546001600160a01b031690565b610a91610fa3565b60008281526013602090815260409182902082516102408101845281546001600160a01b039081166101e08301908152600180850154831661020085015260028086015461022086015291845286516060808201895260038701548516825260048701548516828901526005870154828a0152858801919091528751808201895260068701548516815260078701548516818901526008870154818a015285890152600986015490850152600a8501546080850152600b85015460a0850152600c850154831660c0850152600d850154831660e0850152600e85015490921661010080850191909152600f850180548851948116159092026000190190911691909104601f81018690048602830186019096528582529194929361012086019391929190830182828015610c065780601f10610bdb57610100808354040283529160200191610c06565b820191906000526020600020905b815481529060010190602001808311610be957829003601f168201915b50505050508152602001601082015481526020016011820154815260200160128201548152602001601382015481526020016014820154815250509050919050565b601c5490565b60008181526014602052604090206060906003815460ff166004811115610c7157fe5b14610c8e5760405162461bcd60e51b815260040161073b906112d3565b600e8101805460408051602060026001851615610100026000190190941693909304601f81018490048402820184019092528181529291830182828015610d165780601f10610ceb57610100808354040283529160200191610d16565b820191906000526020600020905b815481529060010190602001808311610cf957829003601f168201915b5050505050915050919050565b6000908152601160205260409020546001600160a01b031690565b6001600160a01b031660009081526017602052604090205490565b600a90565b6001600160a01b038083166000908152600f60209081526040808320938516835292905220545b92915050565b601b5490565b610d99611049565b60008381526016602090815260408083206001600160a01b038616845290915290819020815160a081019092528054829060ff166003811115610dd857fe5b6003811115610de357fe5b8152600182015460208201526002820154604082015260038201546001600160a01b031660608201526004909101546080909101529392505050565b610e27610ee4565b6000546001600160a01b03908116911614610e545760405162461bcd60e51b815260040161073b9061129e565b6001600160a01b038116610e7a5760405162461bcd60e51b815260040161073b90611258565b600080546040516001600160a01b03808516939216917f8be0079c531659141344cd1fd0a4f28419497f9722a3daafe3b4186f6b6457e091a3600080546001600160a01b0319166001600160a01b0392909216919091179055565b6008546001600160a01b031690565b3390565b60405180606001604052806060815260200160608152602001600081525090565b604051806040016040528060008152602001600081525090565b604080516101e08101909152806000815260200160008019168152602001600081526020016000815260200160008152602001600081526020016000815260200160008019168152602001600081526020016000815260200160608152602001600080191681526020016060815260200160008152602001606081525090565b604051806101e00160405280610fb7611079565b8152602001610fc4611079565b8152602001610fd1611079565b815260200160008152602001600081526020016000801916815260200160006001600160a01b0316815260200160006001600160a01b0316815260200160006001600160a01b031681526020016060815260200160008152602001600081526020016000815260200160008152602001600081525090565b6040805160a081019091528060008152600060208201819052604082018190526060820181905260809091015290565b604080516060810182526000808252602082018190529181019190915290565b80356001600160a01b0381168114610d8557600080fd5b6000602082840312156110c1578081fd5b6110cb8383611099565b9392505050565b600080604083850312156110e4578081fd5b6110ee8484611099565b91506110fd8460208501611099565b90509250929050565b600060208284031215611117578081fd5b5035919050565b60008060408385031215611130578182fd5b8235915060208301356001600160a01b038116811461114d578182fd5b809150509250929050565b6001600160a01b03169052565b6000815180845260208085019450808401835b8381101561119d5781516001600160a01b031687529582019590820190600101611178565b509495945050505050565b60008151808452815b818110156111cd576020818501810151868301820152016111b1565b818111156111de5782602083870101525b50601f01601f19169290920160200192915050565b600581106111fd57fe5b9052565b80516001600160a01b03908116835260208083015190911690830152604090810151910152565b6001600160a01b0391909116815260200190565b90815260200190565b6000602082526110cb60208301846111a8565b60208082526026908201527f4f776e61626c653a206e6577206f776e657220697320746865207a65726f206160408201526564647265737360d01b606082015260800190565b6020808252818101527f4f776e61626c653a2063616c6c6572206973206e6f7420746865206f776e6572604082015260600190565b6020808252600c908201526b7461736b2d70656e64696e6760a01b604082015260600190565b815181526020918201519181019190915260400190565b60006020825282516060602084015261132c60808401826111a8565b90506020840151601f1984830301604085015261134982826111a8565b915050604084015160608401528091505092915050565b815160a08201906004811061137157fe5b825260208381015190830152604080840151908301526060808401516001600160a01b031690830152608092830151929091019190915290565b6000602082526113bf602083018451611201565b60208301516113d16080840182611201565b5060408301516113e460e0840182611201565b506060830151610140818185015260808501519150610160828186015260a08601519250610180838187015260c087015193506101a061142681880186611158565b60e088015194506101c061143c81890187611158565b61010089015195506114526101e0890187611158565b61012089015195506102a0806102008a01526114726102c08a01886111a8565b958a01516102208a0152938901516102408901529188015161026088015287015161028087015290950151949093019390935250919050565b6000602082526114bf6020830184516111f3565b602083015160408301526040830151606083015260608301516080830152608083015160a083015260a083015160c083015260c083015160e083015260e08301516101008181850152808501519150506101208181850152808501519150506101408181850152808501519150506101e06101608181860152611546610200860184611165565b9250808601519050610180818187015280870151915050601f196101a081878603018188015261157685846111a8565b908801516101c088810191909152880151878203909201848801529350905061159f83826111a8565b9695505050505050565b60ff9190911681526020019056fea2646970667358221220fe5f4a4ec17235a03bd68e73a968f9ac0fc0159a915b58da4a60971a7f8c66a964736f6c634300060c00338be0079c531659141344cd1fd0a4f28419497f9722a3daafe3b4186f6b6457e0",
  "immutableReferences": {},
  "source": "// SPDX-License-Identifier: Apache-2.0\r\n\r\n/******************************************************************************\r\n * Copyright 2020 IEXEC BLOCKCHAIN TECH                                       *\r\n *                                                                            *\r\n * Licensed under the Apache License, Version 2.0 (the \"License\");            *\r\n * you may not use this file except in compliance with the License.           *\r\n * You may obtain a copy of the License at                                    *\r\n *                                                                            *\r\n *     http://www.apache.org/licenses/LICENSE-2.0                             *\r\n *                                                                            *\r\n * Unless required by applicable law or agreed to in writing, software        *\r\n * distributed under the License is distributed on an \"AS IS\" BASIS,          *\r\n * WITHOUT WARRANTIES OR CONDITIONS OF ANY KIND, either express or implied.   *\r\n * See the License for the specific language governing permissions and        *\r\n * limitations under the License.                                             *\r\n ******************************************************************************/\r\n\r\npragma solidity ^0.6.0;\r\npragma experimental ABIEncoderV2;\r\n\r\nimport \"../DelegateBase.sol\";\r\nimport \"../interfaces/IexecAccessors.sol\";\r\n\r\n\r\ncontract IexecAccessorsDelegate is IexecAccessors, DelegateBase\r\n{\r\n\r\n\tfunction name()\r\n\texternal view override returns (string memory)\r\n\t{\r\n\t\treturn m_name;\r\n\t}\r\n\r\n\tfunction symbol()\r\n\texternal view override returns (string memory)\r\n\t{\r\n\t\treturn m_symbol;\r\n\t}\r\n\r\n\tfunction decimals()\r\n\texternal view override returns (uint8)\r\n\t{\r\n\t\treturn m_decimals;\r\n\t}\r\n\r\n\tfunction totalSupply()\r\n\texternal view override returns (uint256)\r\n\t{\r\n\t\treturn m_totalSupply;\r\n\t}\r\n\r\n\tfunction balanceOf(address account)\r\n\texternal view override returns (uint256)\r\n\t{\r\n\t\treturn m_balances[account];\r\n\t}\r\n\r\n\tfunction frozenOf(address account)\r\n\texternal view override returns (uint256)\r\n\t{\r\n\t\treturn m_frozens[account];\r\n\t}\r\n\r\n\tfunction allowance(address account, address spender)\r\n\texternal view override returns (uint256)\r\n\t{\r\n\t\treturn m_allowances[account][spender];\r\n\t}\r\n\r\n\tfunction viewAccount(address account)\r\n\texternal view override returns (IexecLibCore_v5.Account memory)\r\n\t{\r\n\t\treturn IexecLibCore_v5.Account(m_balances[account], m_frozens[account]);\r\n\t}\r\n\r\n\tfunction token()\r\n\texternal view override returns (address)\r\n\t{\r\n\t\treturn address(m_baseToken);\r\n\t}\r\n\r\n\tfunction viewDeal(bytes32 _id)\r\n\texternal view override returns (IexecLibCore_v5.Deal memory deal)\r\n\t{\r\n\t\treturn m_deals[_id];\r\n\t}\r\n\r\n\tfunction viewConsumed(bytes32 _id)\r\n\texternal view override returns (uint256 consumed)\r\n\t{\r\n\t\treturn m_consumed[_id];\r\n\t}\r\n\r\n\tfunction viewPresigned(bytes32 _id)\r\n\texternal view override returns (address signer)\r\n\t{\r\n\t\treturn m_presigned[_id];\r\n\t}\r\n\r\n\tfunction viewTask(bytes32 _taskid)\r\n\texternal view override returns (IexecLibCore_v5.Task memory)\r\n\t{\r\n\t\treturn m_tasks[_taskid];\r\n\t}\r\n\r\n\tfunction viewContribution(bytes32 _taskid, address _worker)\r\n\texternal view override returns (IexecLibCore_v5.Contribution memory)\r\n\t{\r\n\t\treturn m_contributions[_taskid][_worker];\r\n\t}\r\n\r\n\tfunction viewScore(address _worker)\r\n\texternal view override returns (uint256)\r\n\t{\r\n\t\treturn m_workerScores[_worker];\r\n\t}\r\n\r\n\tfunction resultFor(bytes32 id)\r\n\texternal view override returns (bytes memory)\r\n\t{\r\n\t\tIexecLibCore_v5.Task storage task = m_tasks[id];\r\n\t\trequire(task.status == IexecLibCore_v5.TaskStatusEnum.COMPLETED, 'task-pending');\r\n\t\treturn task.resultsCallback; // Expansion - result separation\r\n\t}\r\n\r\n\tfunction viewCategory(uint256 _catid)\r\n\texternal view override returns (IexecLibCore_v5.Category memory category)\r\n\t{\r\n\t\treturn m_categories[_catid];\r\n\t}\r\n\r\n\tfunction countCategory()\r\n\texternal view override returns (uint256 count)\r\n\t{\r\n\t\treturn m_categories.length;\r\n\t}\r\n\r\n\r\n\tfunction appregistry()\r\n\texternal view override returns (IRegistry)\r\n\t{\r\n\t\treturn m_appregistry;\r\n\t}\r\n\r\n\tfunction datasetregistry()\r\n\texternal view override returns (IRegistry)\r\n\t{\r\n\t\treturn m_datasetregistry;\r\n\t}\r\n\r\n\tfunction workerpoolregistry()\r\n\texternal view override returns (IRegistry)\r\n\t{\r\n\t\treturn m_workerpoolregistry;\r\n\t}\r\n\r\n\tfunction teebroker()\r\n\texternal view override returns (address)\r\n\t{\r\n\t\treturn m_teebroker;\r\n\t}\r\n\r\n\tfunction callbackgas()\r\n\texternal view override returns (uint256)\r\n\t{\r\n\t\treturn m_callbackgas;\r\n\t}\r\n\r\n\tfunction contribution_deadline_ratio()\r\n\texternal view override returns (uint256)\r\n\t{\r\n\t\treturn CONTRIBUTION_DEADLINE_RATIO;\r\n\t}\r\n\r\n\tfunction reveal_deadline_ratio()\r\n\texternal view override returns (uint256)\r\n\t{\r\n\t\treturn REVEAL_DEADLINE_RATIO;\r\n\t}\r\n\r\n\tfunction final_deadline_ratio()\r\n\texternal view override returns (uint256)\r\n\t{\r\n\t\treturn FINAL_DEADLINE_RATIO;\r\n\t}\r\n\r\n\tfunction workerpool_stake_ratio()\r\n\texternal view override returns (uint256)\r\n\t{\r\n\t\treturn WORKERPOOL_STAKE_RATIO;\r\n\t}\r\n\r\n\tfunction kitty_ratio()\r\n\texternal view override returns (uint256)\r\n\t{\r\n\t\treturn KITTY_RATIO;\r\n\t}\r\n\r\n\tfunction kitty_min()\r\n\texternal view override returns (uint256)\r\n\t{\r\n\t\treturn KITTY_MIN;\r\n\t}\r\n\r\n\tfunction kitty_address()\r\n\texternal view override returns (address)\r\n\t{\r\n\t\treturn KITTY_ADDRESS;\r\n\t}\r\n\r\n\tfunction groupmember_purpose()\r\n\texternal view override returns (uint256)\r\n\t{\r\n\t\treturn GROUPMEMBER_PURPOSE;\r\n\t}\r\n\r\n\tfunction eip712domain_separator()\r\n\texternal view override returns (bytes32)\r\n\t{\r\n\t\treturn EIP712DOMAIN_SEPARATOR;\r\n\t}\r\n}\r\n",
  "sourcePath": "D:\\iexec\\PoCo\\contracts\\modules\\delegates\\IexecAccessorsDelegate.sol",
  "compiler": {
    "name": "solc",
    "version": "0.6.12+commit.27d51765.Emscripten.clang"
  },
  "schemaVersion": "3.4.3",
  "updatedAt": "2021-08-31T16:42:43.600Z",
  "networkType": "ethereum",
  "devdoc": {
    "kind": "dev",
    "methods": {
      "owner()": {
        "details": "Returns the address of the current owner."
      },
      "renounceOwnership()": {
        "details": "Leaves the contract without owner. It will not be possible to call `onlyOwner` functions anymore. Can only be called by the current owner. NOTE: Renouncing ownership will leave the contract without an owner, thereby removing any functionality that is only available to the owner."
      },
      "transferOwnership(address)": {
        "details": "Transfers ownership of the contract to a new account (`newOwner`). Can only be called by the current owner."
      }
    },
    "version": 1
  },
  "userdoc": {
    "kind": "user",
    "methods": {},
    "version": 1
  }
}