{
  "contractName": "IexecERC20DelegateKYC",
  "abi": [
    {
      "anonymous": false,
      "inputs": [
        {
          "indexed": true,
          "internalType": "address",
          "name": "owner",
          "type": "address"
        },
        {
          "indexed": true,
          "internalType": "address",
          "name": "spender",
          "type": "address"
        },
        {
          "indexed": false,
          "internalType": "uint256",
          "name": "value",
          "type": "uint256"
        }
      ],
      "name": "Approval",
      "type": "event"
    },
    {
      "anonymous": false,
      "inputs": [
        {
          "indexed": false,
          "internalType": "address",
          "name": "owner",
          "type": "address"
        },
        {
          "indexed": false,
          "internalType": "uint256",
          "name": "amount",
          "type": "uint256"
        }
      ],
      "name": "Lock",
      "type": "event"
    },
    {
      "anonymous": false,
      "inputs": [
        {
          "indexed": true,
          "internalType": "address",
          "name": "previousOwner",
          "type": "address"
        },
        {
          "indexed": true,
          "internalType": "address",
          "name": "newOwner",
          "type": "address"
        }
      ],
      "name": "OwnershipTransferred",
      "type": "event"
    },
    {
      "anonymous": false,
      "inputs": [
        {
          "indexed": false,
          "internalType": "address",
          "name": "owner",
          "type": "address"
        },
        {
          "indexed": false,
          "internalType": "uint256",
          "name": "amount",
          "type": "uint256"
        },
        {
          "indexed": false,
          "internalType": "bytes32",
          "name": "ref",
          "type": "bytes32"
        }
      ],
      "name": "Reward",
      "type": "event"
    },
    {
      "anonymous": false,
      "inputs": [
        {
          "indexed": false,
          "internalType": "address",
          "name": "owner",
          "type": "address"
        },
        {
          "indexed": false,
          "internalType": "uint256",
          "name": "amount",
          "type": "uint256"
        },
        {
          "indexed": false,
          "internalType": "bytes32",
          "name": "ref",
          "type": "bytes32"
        }
      ],
      "name": "Seize",
      "type": "event"
    },
    {
      "anonymous": false,
      "inputs": [
        {
          "indexed": true,
          "internalType": "address",
          "name": "from",
          "type": "address"
        },
        {
          "indexed": true,
          "internalType": "address",
          "name": "to",
          "type": "address"
        },
        {
          "indexed": false,
          "internalType": "uint256",
          "name": "value",
          "type": "uint256"
        }
      ],
      "name": "Transfer",
      "type": "event"
    },
    {
      "anonymous": false,
      "inputs": [
        {
          "indexed": false,
          "internalType": "address",
          "name": "owner",
          "type": "address"
        },
        {
          "indexed": false,
          "internalType": "uint256",
          "name": "amount",
          "type": "uint256"
        }
      ],
      "name": "Unlock",
      "type": "event"
    },
    {
      "inputs": [
        {
          "internalType": "address",
          "name": "spender",
          "type": "address"
        },
        {
          "internalType": "uint256",
          "name": "value",
          "type": "uint256"
        }
      ],
      "name": "approve",
      "outputs": [
        {
          "internalType": "bool",
          "name": "",
          "type": "bool"
        }
      ],
      "stateMutability": "nonpayable",
      "type": "function"
    },
    {
      "inputs": [
        {
          "internalType": "address",
          "name": "spender",
          "type": "address"
        },
        {
          "internalType": "uint256",
          "name": "value",
          "type": "uint256"
        },
        {
          "internalType": "bytes",
          "name": "extraData",
          "type": "bytes"
        }
      ],
      "name": "approveAndCall",
      "outputs": [
        {
          "internalType": "bool",
          "name": "",
          "type": "bool"
        }
      ],
      "stateMutability": "nonpayable",
      "type": "function"
    },
    {
      "inputs": [
        {
          "internalType": "address",
          "name": "spender",
          "type": "address"
        },
        {
          "internalType": "uint256",
          "name": "subtractedValue",
          "type": "uint256"
        }
      ],
      "name": "decreaseAllowance",
      "outputs": [
        {
          "internalType": "bool",
          "name": "",
          "type": "bool"
        }
      ],
      "stateMutability": "nonpayable",
      "type": "function"
    },
    {
      "inputs": [
        {
          "internalType": "address",
          "name": "spender",
          "type": "address"
        },
        {
          "internalType": "uint256",
          "name": "addedValue",
          "type": "uint256"
        }
      ],
      "name": "increaseAllowance",
      "outputs": [
        {
          "internalType": "bool",
          "name": "",
          "type": "bool"
        }
      ],
      "stateMutability": "nonpayable",
      "type": "function"
    },
    {
      "inputs": [],
      "name": "owner",
      "outputs": [
        {
          "internalType": "address",
          "name": "",
          "type": "address"
        }
      ],
      "stateMutability": "view",
      "type": "function"
    },
    {
      "inputs": [],
      "name": "renounceOwnership",
      "outputs": [],
      "stateMutability": "nonpayable",
      "type": "function"
    },
    {
      "inputs": [
        {
          "internalType": "address",
          "name": "recipient",
          "type": "address"
        },
        {
          "internalType": "uint256",
          "name": "amount",
          "type": "uint256"
        }
      ],
      "name": "transfer",
      "outputs": [
        {
          "internalType": "bool",
          "name": "",
          "type": "bool"
        }
      ],
      "stateMutability": "nonpayable",
      "type": "function"
    },
    {
      "inputs": [
        {
          "internalType": "address",
          "name": "sender",
          "type": "address"
        },
        {
          "internalType": "address",
          "name": "recipient",
          "type": "address"
        },
        {
          "internalType": "uint256",
          "name": "amount",
          "type": "uint256"
        }
      ],
      "name": "transferFrom",
      "outputs": [
        {
          "internalType": "bool",
          "name": "",
          "type": "bool"
        }
      ],
      "stateMutability": "nonpayable",
      "type": "function"
    },
    {
      "inputs": [
        {
          "internalType": "address",
          "name": "newOwner",
          "type": "address"
        }
      ],
      "name": "transferOwnership",
      "outputs": [],
      "stateMutability": "nonpayable",
      "type": "function"
    }
  ],
  "bytecode": "0x608060405234801561001057600080fd5b50600061001b610060565b600080546001600160a01b0319166001600160a01b038316908117825560405192935091600080516020610df8833981519152908290a35061005b610064565b61010f565b3390565b61006c610060565b6000546001600160a01b039081169116146100a25760405162461bcd60e51b8152600401610099906100da565b60405180910390fd5b600080546040516001600160a01b0390911690600080516020610df8833981519152908390a3600080546001600160a01b0319169055565b6020808252818101527f4f776e61626c653a2063616c6c6572206973206e6f7420746865206f776e6572604082015260600190565b610cda8061011e6000396000f3fe608060405234801561001057600080fd5b50600436106100935760003560e01c80638da5cb5b116100665780638da5cb5b146100f1578063a457c2d714610106578063a9059cbb14610119578063cae9ca511461012c578063f2fde38b1461013f57610093565b8063095ea7b31461009857806323b872dd146100c157806339509351146100d4578063715018a6146100e7575b600080fd5b6100ab6100a6366004610845565b610152565b6040516100b89190610a58565b60405180910390f35b6100ab6100cf366004610805565b610170565b6100ab6100e2366004610845565b6101df565b6100ef61022d565b005b6100f96102b5565b6040516100b891906109cf565b6100ab610114366004610845565b6102c4565b6100ab610127366004610845565b610312565b6100ab61013a36600461086f565b610326565b6100ef61014d3660046107ea565b6103ee565b600061016661015f6104a4565b84846104a8565b5060015b92915050565b600061017d84848461055c565b6101d5846101896104a4565b6001600160a01b0387166000908152600f602052604081206101d0918791906101b06104a4565b6001600160a01b0316815260208101919091526040016000205490610577565b6104a8565b5060019392505050565b60006101666101ec6104a4565b846101d085600f60006101fd6104a4565b6001600160a01b03908116825260208083019390935260409182016000908120918c16815292529020549061058c565b6102356104a4565b6000546001600160a01b0390811691161461026b5760405162461bcd60e51b815260040161026290610b8b565b60405180910390fd5b600080546040516001600160a01b03909116907f8be0079c531659141344cd1fd0a4f28419497f9722a3daafe3b4186f6b6457e0908390a3600080546001600160a01b0319169055565b6000546001600160a01b031690565b60006101666102d16104a4565b846101d085600f60006102e26104a4565b6001600160a01b03908116825260208083019390935260409182016000908120918c168152925290205490610577565b600061016661031f6104a4565b848461055c565b600061033a6103336104a4565b86866104a8565b846001600160a01b0316638f4ffcb16103516104a4565b863087876040518663ffffffff1660e01b81526004016103759594939291906109e3565b602060405180830381600087803b15801561038f57600080fd5b505af11580156103a3573d6000803e3d6000fd5b505050506040513d601f19601f820116820180604052508101906103c791906108f3565b6103e35760405162461bcd60e51b815260040161026290610b61565b506001949350505050565b6103f66104a4565b6000546001600160a01b039081169116146104235760405162461bcd60e51b815260040161026290610b8b565b6001600160a01b0381166104495760405162461bcd60e51b815260040161026290610ad9565b600080546040516001600160a01b03808516939216917f8be0079c531659141344cd1fd0a4f28419497f9722a3daafe3b4186f6b6457e091a3600080546001600160a01b0319166001600160a01b0392909216919091179055565b3390565b6001600160a01b0383166104ce5760405162461bcd60e51b815260040161026290610c05565b6001600160a01b0382166104f45760405162461bcd60e51b815260040161026290610b1f565b6001600160a01b038084166000818152600f602090815260408083209487168084529490915290819020849055517f8c5be1e5ebec7d5bd14f71427d1e84f3dd0314c0f7b2291e5b200ac8c7c3b9259061054f908590610c49565b60405180910390a3505050565b6105678383836105a5565b6105728383836105b0565b505050565b60008282111561058657600080fd5b50900390565b60008282018381101561059e57600080fd5b9392505050565b6105728383836106a0565b6001600160a01b0383166105d65760405162461bcd60e51b815260040161026290610bc0565b6001600160a01b0382166105fc5760405162461bcd60e51b815260040161026290610a96565b6001600160a01b0383166000908152600d602052604090205461061f9082610577565b6001600160a01b038085166000908152600d6020526040808220939093559084168152205461064e908261058c565b6001600160a01b038084166000818152600d602052604090819020939093559151908516907fddf252ad1be2c89b69c2b068fc378daa952ba7f163c4a11628f55a4df523b3ef9061054f908590610c49565b60085460405163d4ce141560e01b81526000916001600160a01b03169063d4ce1415906106d590879087908790600401610a34565b60206040518083038186803b1580156106ed57600080fd5b505afa158015610701573d6000803e3d6000fd5b505050506040513d601f19601f8201168201806040525081019061072591906109ae565b905060ff8116156107cd57600854604051637f4ab1dd60e01b81526001600160a01b0390911690637f4ab1dd90610760908490600401610c52565b60006040518083038186803b15801561077857600080fd5b505afa15801561078c573d6000803e3d6000fd5b505050506040513d6000823e601f3d908101601f191682016040526107b49190810190610913565b60405162461bcd60e51b81526004016102629190610a63565b50505050565b80356001600160a01b038116811461016a57600080fd5b6000602082840312156107fb578081fd5b61059e83836107d3565b600080600060608486031215610819578182fd5b833561082481610c8c565b9250602084013561083481610c8c565b929592945050506040919091013590565b60008060408385031215610857578182fd5b61086184846107d3565b946020939093013593505050565b60008060008060608587031215610884578081fd5b843561088f81610c8c565b935060208501359250604085013567ffffffffffffffff808211156108b2578283fd5b818701915087601f8301126108c5578283fd5b8135818111156108d3578384fd5b8860208285010111156108e4578384fd5b95989497505060200194505050565b600060208284031215610904578081fd5b8151801515811461059e578182fd5b600060208284031215610924578081fd5b815167ffffffffffffffff8082111561093b578283fd5b818401915084601f83011261094e578283fd5b81518181111561095c578384fd5b604051601f8201601f19168101602001838111828210171561097c578586fd5b604052818152838201602001871015610993578485fd5b6109a4826020830160208701610c60565b9695505050505050565b6000602082840312156109bf578081fd5b815160ff8116811461059e578182fd5b6001600160a01b0391909116815260200190565b6001600160a01b038681168252602082018690528416604082015260806060820181905281018290526000828460a084013781830160a090810191909152601f909201601f19160101949350505050565b6001600160a01b039384168152919092166020820152604081019190915260600190565b901515815260200190565b6000602082528251806020840152610a82816040850160208701610c60565b601f01601f19169190910160400192915050565b60208082526023908201527f45524332303a207472616e7366657220746f20746865207a65726f206164647260408201526265737360e81b606082015260800190565b60208082526026908201527f4f776e61626c653a206e6577206f776e657220697320746865207a65726f206160408201526564647265737360d01b606082015260800190565b60208082526022908201527f45524332303a20617070726f766520746f20746865207a65726f206164647265604082015261737360f01b606082015260800190565b60208082526010908201526f185c1c1c9bdd985b0b5c99599d5cd95960821b604082015260600190565b6020808252818101527f4f776e61626c653a2063616c6c6572206973206e6f7420746865206f776e6572604082015260600190565b60208082526025908201527f45524332303a207472616e736665722066726f6d20746865207a65726f206164604082015264647265737360d81b606082015260800190565b60208082526024908201527f45524332303a20617070726f76652066726f6d20746865207a65726f206164646040820152637265737360e01b606082015260800190565b90815260200190565b60ff91909116815260200190565b60005b83811015610c7b578181015183820152602001610c63565b838111156107cd5750506000910152565b6001600160a01b0381168114610ca157600080fd5b5056fea2646970667358221220c0f9b43dca6014c23c73249650ded03e5a3607c4a75f31edb4ca4d1e84c612e164736f6c634300060c00338be0079c531659141344cd1fd0a4f28419497f9722a3daafe3b4186f6b6457e0",
  "immutableReferences": {},
  "source": "// SPDX-License-Identifier: Apache-2.0\r\n\r\n/******************************************************************************\r\n * Copyright 2020 IEXEC BLOCKCHAIN TECH                                       *\r\n *                                                                            *\r\n * Licensed under the Apache License, Version 2.0 (the \"License\");            *\r\n * you may not use this file except in compliance with the License.           *\r\n * You may obtain a copy of the License at                                    *\r\n *                                                                            *\r\n *     http://www.apache.org/licenses/LICENSE-2.0                             *\r\n *                                                                            *\r\n * Unless required by applicable law or agreed to in writing, software        *\r\n * distributed under the License is distributed on an \"AS IS\" BASIS,          *\r\n * WITHOUT WARRANTIES OR CONDITIONS OF ANY KIND, either express or implied.   *\r\n * See the License for the specific language governing permissions and        *\r\n * limitations under the License.                                             *\r\n ******************************************************************************/\r\n\r\npragma solidity ^0.6.0;\r\npragma experimental ABIEncoderV2;\r\n\r\nimport \"./IexecERC20Delegate.sol\";\r\nimport \"./IexecERC20CoreKYC.sol\";\r\n\r\n\r\ncontract IexecERC20DelegateKYC is IexecERC20Delegate, IexecERC20CoreKYC\r\n{\r\n\tfunction _beforeTokenTransfer(address from, address to, uint256 amount)\r\n\tinternal virtual override(IexecERC20Core, IexecERC20CoreKYC)\r\n\t{\r\n\t\tIexecERC20CoreKYC._beforeTokenTransfer(from, to, amount);\r\n\t}\r\n\r\n\tfunction _isAuthorized(address account)\r\n\tinternal virtual override(IexecERC20Core, IexecERC20CoreKYC) returns (bool)\r\n\t{\r\n\t\treturn IexecERC20CoreKYC._isAuthorized(account);\r\n\t}\r\n}\r\n",
  "sourcePath": "D:\\iexec\\PoCo\\contracts\\modules\\delegates\\IexecERC20DelegateKYC.sol",
  "compiler": {
    "name": "solc",
    "version": "0.6.12+commit.27d51765.Emscripten.clang"
  },
  "schemaVersion": "3.4.3",
  "updatedAt": "2021-08-31T16:42:43.620Z",
  "networkType": "ethereum",
  "devdoc": {
    "kind": "dev",
    "methods": {
      "owner()": {
        "details": "Returns the address of the current owner."
      },
      "renounceOwnership()": {
        "details": "Leaves the contract without owner. It will not be possible to call `onlyOwner` functions anymore. Can only be called by the current owner. NOTE: Renouncing ownership will leave the contract without an owner, thereby removing any functionality that is only available to the owner."
      },
      "transferOwnership(address)": {
        "details": "Transfers ownership of the contract to a new account (`newOwner`). Can only be called by the current owner."
      }
    },
    "version": 1
  },
  "userdoc": {
    "kind": "user",
    "methods": {},
    "version": 1
  }
}