{
  "contractName": "IexecOrderManagementDelegate",
  "abi": [
    {
      "anonymous": false,
      "inputs": [
        {
          "indexed": false,
          "internalType": "bytes32",
          "name": "appHash",
          "type": "bytes32"
        }
      ],
      "name": "ClosedAppOrder",
      "type": "event"
    },
    {
      "anonymous": false,
      "inputs": [
        {
          "indexed": false,
          "internalType": "bytes32",
          "name": "datasetHash",
          "type": "bytes32"
        }
      ],
      "name": "ClosedDatasetOrder",
      "type": "event"
    },
    {
      "anonymous": false,
      "inputs": [
        {
          "indexed": false,
          "internalType": "bytes32",
          "name": "requestHash",
          "type": "bytes32"
        }
      ],
      "name": "ClosedRequestOrder",
      "type": "event"
    },
    {
      "anonymous": false,
      "inputs": [
        {
          "indexed": false,
          "internalType": "bytes32",
          "name": "workerpoolHash",
          "type": "bytes32"
        }
      ],
      "name": "ClosedWorkerpoolOrder",
      "type": "event"
    },
    {
      "anonymous": false,
      "inputs": [
        {
          "indexed": true,
          "internalType": "address",
          "name": "previousOwner",
          "type": "address"
        },
        {
          "indexed": true,
          "internalType": "address",
          "name": "newOwner",
          "type": "address"
        }
      ],
      "name": "OwnershipTransferred",
      "type": "event"
    },
    {
      "anonymous": false,
      "inputs": [
        {
          "indexed": false,
          "internalType": "bytes32",
          "name": "appHash",
          "type": "bytes32"
        }
      ],
      "name": "SignedAppOrder",
      "type": "event"
    },
    {
      "anonymous": false,
      "inputs": [
        {
          "indexed": false,
          "internalType": "bytes32",
          "name": "datasetHash",
          "type": "bytes32"
        }
      ],
      "name": "SignedDatasetOrder",
      "type": "event"
    },
    {
      "anonymous": false,
      "inputs": [
        {
          "indexed": false,
          "internalType": "bytes32",
          "name": "requestHash",
          "type": "bytes32"
        }
      ],
      "name": "SignedRequestOrder",
      "type": "event"
    },
    {
      "anonymous": false,
      "inputs": [
        {
          "indexed": false,
          "internalType": "bytes32",
          "name": "workerpoolHash",
          "type": "bytes32"
        }
      ],
      "name": "SignedWorkerpoolOrder",
      "type": "event"
    },
    {
      "inputs": [],
      "name": "owner",
      "outputs": [
        {
          "internalType": "address",
          "name": "",
          "type": "address"
        }
      ],
      "stateMutability": "view",
      "type": "function",
      "constant": true
    },
    {
      "inputs": [],
      "name": "renounceOwnership",
      "outputs": [],
      "stateMutability": "nonpayable",
      "type": "function"
    },
    {
      "inputs": [
        {
          "internalType": "address",
          "name": "newOwner",
          "type": "address"
        }
      ],
      "name": "transferOwnership",
      "outputs": [],
      "stateMutability": "nonpayable",
      "type": "function"
    },
    {
      "inputs": [
        {
          "components": [
            {
              "components": [
                {
                  "internalType": "address",
                  "name": "app",
                  "type": "address"
                },
                {
                  "internalType": "uint256",
                  "name": "appprice",
                  "type": "uint256"
                },
                {
                  "internalType": "uint256",
                  "name": "volume",
                  "type": "uint256"
                },
                {
                  "internalType": "bytes32",
                  "name": "tag",
                  "type": "bytes32"
                },
                {
                  "internalType": "address",
                  "name": "datasetrestrict",
                  "type": "address"
                },
                {
                  "internalType": "address",
                  "name": "workerpoolrestrict",
                  "type": "address"
                },
                {
                  "internalType": "address",
                  "name": "requesterrestrict",
                  "type": "address"
                },
                {
                  "internalType": "bytes32",
                  "name": "salt",
                  "type": "bytes32"
                },
                {
                  "internalType": "bytes",
                  "name": "sign",
                  "type": "bytes"
                }
              ],
              "internalType": "struct IexecLibOrders_v5.AppOrder",
              "name": "order",
              "type": "tuple"
            },
            {
              "internalType": "enum IexecLibOrders_v5.OrderOperationEnum",
              "name": "operation",
              "type": "uint8"
            },
            {
              "internalType": "bytes",
              "name": "sign",
              "type": "bytes"
            }
          ],
          "internalType": "struct IexecLibOrders_v5.AppOrderOperation",
          "name": "_apporderoperation",
          "type": "tuple"
        }
      ],
      "name": "manageAppOrder",
      "outputs": [],
      "stateMutability": "nonpayable",
      "type": "function"
    },
    {
      "inputs": [
        {
          "components": [
            {
              "components": [
                {
                  "internalType": "address",
                  "name": "dataset",
                  "type": "address"
                },
                {
                  "internalType": "uint256",
                  "name": "datasetprice",
                  "type": "uint256"
                },
                {
                  "internalType": "uint256",
                  "name": "volume",
                  "type": "uint256"
                },
                {
                  "internalType": "bytes32",
                  "name": "tag",
                  "type": "bytes32"
                },
                {
                  "internalType": "address",
                  "name": "apprestrict",
                  "type": "address"
                },
                {
                  "internalType": "address",
                  "name": "workerpoolrestrict",
                  "type": "address"
                },
                {
                  "internalType": "address",
                  "name": "requesterrestrict",
                  "type": "address"
                },
                {
                  "internalType": "bytes32",
                  "name": "salt",
                  "type": "bytes32"
                },
                {
                  "internalType": "bytes",
                  "name": "sign",
                  "type": "bytes"
                }
              ],
              "internalType": "struct IexecLibOrders_v5.DatasetOrder",
              "name": "order",
              "type": "tuple"
            },
            {
              "internalType": "enum IexecLibOrders_v5.OrderOperationEnum",
              "name": "operation",
              "type": "uint8"
            },
            {
              "internalType": "bytes",
              "name": "sign",
              "type": "bytes"
            }
          ],
          "internalType": "struct IexecLibOrders_v5.DatasetOrderOperation",
          "name": "_datasetorderoperation",
          "type": "tuple"
        }
      ],
      "name": "manageDatasetOrder",
      "outputs": [],
      "stateMutability": "nonpayable",
      "type": "function"
    },
    {
      "inputs": [
        {
          "components": [
            {
              "components": [
                {
                  "internalType": "address",
                  "name": "workerpool",
                  "type": "address"
                },
                {
                  "internalType": "uint256",
                  "name": "workerpoolprice",
                  "type": "uint256"
                },
                {
                  "internalType": "uint256",
                  "name": "volume",
                  "type": "uint256"
                },
                {
                  "internalType": "bytes32",
                  "name": "tag",
                  "type": "bytes32"
                },
                {
                  "internalType": "uint256",
                  "name": "category",
                  "type": "uint256"
                },
                {
                  "internalType": "uint256",
                  "name": "trust",
                  "type": "uint256"
                },
                {
                  "internalType": "address",
                  "name": "apprestrict",
                  "type": "address"
                },
                {
                  "internalType": "address",
                  "name": "datasetrestrict",
                  "type": "address"
                },
                {
                  "internalType": "address",
                  "name": "requesterrestrict",
                  "type": "address"
                },
                {
                  "internalType": "bytes32",
                  "name": "salt",
                  "type": "bytes32"
                },
                {
                  "internalType": "bytes",
                  "name": "sign",
                  "type": "bytes"
                }
              ],
              "internalType": "struct IexecLibOrders_v5.WorkerpoolOrder",
              "name": "order",
              "type": "tuple"
            },
            {
              "internalType": "enum IexecLibOrders_v5.OrderOperationEnum",
              "name": "operation",
              "type": "uint8"
            },
            {
              "internalType": "bytes",
              "name": "sign",
              "type": "bytes"
            }
          ],
          "internalType": "struct IexecLibOrders_v5.WorkerpoolOrderOperation",
          "name": "_workerpoolorderoperation",
          "type": "tuple"
        }
      ],
      "name": "manageWorkerpoolOrder",
      "outputs": [],
      "stateMutability": "nonpayable",
      "type": "function"
    },
    {
      "inputs": [
        {
          "components": [
            {
              "components": [
                {
                  "internalType": "address",
                  "name": "app",
                  "type": "address"
                },
                {
                  "internalType": "uint256",
                  "name": "appmaxprice",
                  "type": "uint256"
                },
                {
                  "internalType": "address",
                  "name": "dataset",
                  "type": "address"
                },
                {
                  "internalType": "uint256",
                  "name": "datasetmaxprice",
                  "type": "uint256"
                },
                {
                  "internalType": "address",
                  "name": "workerpool",
                  "type": "address"
                },
                {
                  "internalType": "uint256",
                  "name": "workerpoolmaxprice",
                  "type": "uint256"
                },
                {
                  "internalType": "address",
                  "name": "requester",
                  "type": "address"
                },
                {
                  "internalType": "uint256",
                  "name": "volume",
                  "type": "uint256"
                },
                {
                  "internalType": "bytes32",
                  "name": "tag",
                  "type": "bytes32"
                },
                {
                  "internalType": "uint256",
                  "name": "category",
                  "type": "uint256"
                },
                {
                  "internalType": "uint256",
                  "name": "trust",
                  "type": "uint256"
                },
                {
                  "internalType": "address",
                  "name": "beneficiary",
                  "type": "address"
                },
                {
                  "internalType": "address",
                  "name": "callback",
                  "type": "address"
                },
                {
                  "internalType": "string",
                  "name": "params",
                  "type": "string"
                },
                {
                  "internalType": "bytes32",
                  "name": "salt",
                  "type": "bytes32"
                },
                {
                  "internalType": "bytes",
                  "name": "sign",
                  "type": "bytes"
                }
              ],
              "internalType": "struct IexecLibOrders_v5.RequestOrder",
              "name": "order",
              "type": "tuple"
            },
            {
              "internalType": "enum IexecLibOrders_v5.OrderOperationEnum",
              "name": "operation",
              "type": "uint8"
            },
            {
              "internalType": "bytes",
              "name": "sign",
              "type": "bytes"
            }
          ],
          "internalType": "struct IexecLibOrders_v5.RequestOrderOperation",
          "name": "_requestorderoperation",
          "type": "tuple"
        }
      ],
      "name": "manageRequestOrder",
      "outputs": [],
      "stateMutability": "nonpayable",
      "type": "function"
    }
  ],
  "bytecode": "0x60806040523480156200001157600080fd5b5060006200001e62000067565b600080546001600160a01b0319166001600160a01b03831690811782556040519293509160008051602062001a03833981519152908290a350620000616200006b565b6200011c565b3390565b6200007562000067565b6000546001600160a01b03908116911614620000ae5760405162461bcd60e51b8152600401620000a590620000e7565b60405180910390fd5b600080546040516001600160a01b039091169060008051602062001a03833981519152908390a3600080546001600160a01b0319169055565b6020808252818101527f4f776e61626c653a2063616c6c6572206973206e6f7420746865206f776e6572604082015260600190565b6118d7806200012c6000396000f3fe608060405234801561001057600080fd5b506004361061007d5760003560e01c80638da5cb5b1161005b5780638da5cb5b146100b25780638dd971d5146100d0578063b2b07e66146100e3578063f2fde38b146100f65761007d565b80634b74710614610082578063715018a6146100975780637e34a0771461009f575b600080fd5b610095610090366004611021565b610109565b005b61009561039f565b6100956100ad36600461120f565b61041e565b6100ba61062e565b6040516100c79190611612565b60405180910390f35b6100956100de366004611054565b61063d565b6100956100f1366004611021565b6107da565b610095610104366004610fa9565b6109ea565b60008160000151600001516001600160a01b0316638da5cb5b6040518163ffffffff1660e01b815260040160206040518083038186803b15801561014c57600080fd5b505afa158015610160573d6000803e3d6000fd5b505050506040513d601f19601f820116820180604052508101906101849190610fc5565b905061018e610aa0565b6001600160a01b0316816001600160a01b0316148061024b57506040516308231d7360e31b815261024b9082906102419073__IexecLibOrders_v5_____________________90634118eb98906101e99088906004016117a1565b60206040518083038186803b15801561020157600080fd5b505af4158015610215573d6000803e3d6000fd5b505050506040513d601f19601f820116820180604052508101906102399190610fe1565b601054610aa4565b8460400151610ad1565b6102705760405162461bcd60e51b815260040161026790611733565b60405180910390fd5b81516040516308d9777160e11b81526000916102af9173__IexecLibOrders_v5_____________________916311b2eee2916101e991906004016117b4565b805160209091012090506000836020015160018111156102cb57fe5b1415610335576000818152601160205260409081902080546001600160a01b0319166001600160a01b038516179055517f79ce85909be2c590a728d1634ce6ec8a7cbf815260bacc05387890a313da813090610328908390611626565b60405180910390a161039a565b60018360200151600181111561034757fe5b141561039a5782516040908101516000838152601260205282902055517fcf52e3228bc482a6656d8ab56c09888b1c5bf6aaadba0185e96a34836f2bb1d490610391908390611626565b60405180910390a15b505050565b6103a7610aa0565b6000546001600160a01b039081169116146103d45760405162461bcd60e51b8152600401610267906116fe565b600080546040516001600160a01b03909116907f8be0079c531659141344cd1fd0a4f28419497f9722a3daafe3b4186f6b6457e0908390a3600080546001600160a01b0319169055565b60008160000151600001516001600160a01b0316638da5cb5b6040518163ffffffff1660e01b815260040160206040518083038186803b15801561046157600080fd5b505afa158015610475573d6000803e3d6000fd5b505050506040513d601f19601f820116820180604052508101906104999190610fc5565b90506104a3610aa0565b6001600160a01b0316816001600160a01b031614806104fe5750604051632daacfb560e11b81526104fe9082906102419073__IexecLibOrders_v5_____________________90635b559f6a906101e9908890600401611826565b61051a5760405162461bcd60e51b815260040161026790611733565b8151604051637f6cc2ff60e11b81526000916105599173__IexecLibOrders_v5_____________________9163fed985fe916101e99190600401611842565b8051602090910120905060008360200151600181111561057557fe5b14156105d2576000818152601160205260409081902080546001600160a01b0319166001600160a01b038516179055517f3a61aabf2ab04790d082ff1e332853b2f66944c2e951a146121f80272812a47690610328908390611626565b6001836020015160018111156105e457fe5b141561039a5782516040908101516000838152601260205282902055517f145ad51e4496173bca15e24e7eb46f9ab3a10eea0497e2801a3a6806c06113a390610391908390611626565b6000546001600160a01b031690565b805160c0015161064b610aa0565b6001600160a01b0316816001600160a01b031614806106a657506040516320aabe5360e01b81526106a69082906102419073__IexecLibOrders_v5_____________________906320aabe53906101e99088906004016117c7565b6106c25760405162461bcd60e51b815260040161026790611733565b8151604051638ac03f3360e01b81526000916107019173__IexecLibOrders_v5_____________________91638ac03f33916101e99190600401611813565b8051602090910120905060008360200151600181111561071d57fe5b141561077a576000818152601160205260409081902080546001600160a01b0319166001600160a01b038516179055517f3b0ac04165536d6b11d04220f998c840bd6e439d59c5d8721bba8a4e1fb9ebfd90610328908390611626565b60018360200151600181111561078c57fe5b141561039a57825160e001516000828152601260205260409081902091909155517f582f43f2a741cbe708aae3b8d38a4efc3d09d7e81919697b3ca693f4c444cc0590610391908390611626565b60008160000151600001516001600160a01b0316638da5cb5b6040518163ffffffff1660e01b815260040160206040518083038186803b15801561081d57600080fd5b505afa158015610831573d6000803e3d6000fd5b505050506040513d601f19601f820116820180604052508101906108559190610fc5565b905061085f610aa0565b6001600160a01b0316816001600160a01b031614806108ba5750604051636cf30b8b60e01b81526108ba9082906102419073__IexecLibOrders_v5_____________________90636cf30b8b906101e99088906004016117a1565b6108d65760405162461bcd60e51b815260040161026790611733565b8151604051637c0d54d360e01b81526000916109159173__IexecLibOrders_v5_____________________91637c0d54d3916101e991906004016117b4565b8051602090910120905060008360200151600181111561093157fe5b141561098e576000818152601160205260409081902080546001600160a01b0319166001600160a01b038516179055517f50933cf5a9c44d5ed66b895deb27212aa33d811b46a7b41093e047e213c0bcab90610328908390611626565b6001836020015160018111156109a057fe5b141561039a5782516040908101516000838152601260205282902055517f7343f75be43aba524f85326508cd975d016ef7884676377366c69a7c32e3066890610391908390611626565b6109f2610aa0565b6000546001600160a01b03908116911614610a1f5760405162461bcd60e51b8152600401610267906116fe565b6001600160a01b038116610a455760405162461bcd60e51b81526004016102679061168b565b600080546040516001600160a01b03808516939216917f8be0079c531659141344cd1fd0a4f28419497f9722a3daafe3b4186f6b6457e091a3600080546001600160a01b0319166001600160a01b0392909216919091179055565b3390565b60608183604051602001610ab99291906115f7565b60405160208183030381529060405290505b92915050565b6000610adc84610cb2565b15610c83576040516320c13b0b60e01b81526001600160a01b038516906320c13b0b90610b0f9086908690600401611666565b60206040518083038186803b158015610b2757600080fd5b505afa925050508015610b57575060408051601f3d908101601f19168201909252610b5491810190610ff9565b60015b610b91573d808015610b85576040519150601f19603f3d011682016040523d82523d6000602084013e610b8a565b606091505b5050610bab565b6001600160e01b0319166320c13b0b60e01b149050610cab565b82516020840120604051630b135d3f60e11b81526001600160a01b03861691631626ba7e91610bdf9190869060040161162f565b60206040518083038186803b158015610bf757600080fd5b505afa925050508015610c27575060408051601f3d908101601f19168201909252610c2491810190610ff9565b60015b610c61573d808015610c55576040519150601f19603f3d011682016040523d82523d6000602084013e610c5a565b606091505b5050610c7b565b6001600160e01b031916630b135d3f60e11b149050610cab565b506000610cab565b836001600160a01b0316610c9e848051906020012084610cee565b6001600160a01b03161490505b9392505050565b6000813f7fc5d2460186f7233c927e7db2dcc703c0e500b653ca82273b7bfad8045d85a470818114801590610ce657508115155b949350505050565b600080600080845160411415610d185750505060208201516040830151606084015160001a610d5d565b845160401415610d4557505050602082015160408301516001600160ff1b0381169060001a60071c610d5d565b60405162461bcd60e51b81526004016102679061176a565b601b8160ff161015610d6d57601b015b8060ff16601b1480610d8257508060ff16601c145b610d9e5760405162461bcd60e51b8152600401610267906116d1565b60018682858560405160008152602001604052604051610dc19493929190611648565b6020604051602081039080840390855afa158015610de3573d6000803e3d6000fd5b5050604051601f190151979650505050505050565b8035610acb8161187c565b600082601f830112610e13578081fd5b813567ffffffffffffffff811115610e29578182fd5b610e3c601f8201601f1916602001611855565b9150808252836020828501011115610e5357600080fd5b8060208401602084013760009082016020015292915050565b803560028110610acb57600080fd5b600060608284031215610e8c578081fd5b610e966060611855565b9050813567ffffffffffffffff80821115610eb057600080fd5b8184019150610120808387031215610ec757600080fd5b610ed081611855565b9050610edc8684610df8565b8152602083013560208201526040830135604082015260608301356060820152610f098660808501610df8565b6080820152610f1b8660a08501610df8565b60a0820152610f2d8660c08501610df8565b60c082015260e083013560e08201526101008084013583811115610f5057600080fd5b610f5c88828701610e03565b8284015250508084525060208401359150610f7682611894565b8160208401526040840135915080821115610f9057600080fd5b50610f9d84828501610e03565b60408301525092915050565b600060208284031215610fba578081fd5b8135610cab8161187c565b600060208284031215610fd6578081fd5b8151610cab8161187c565b600060208284031215610ff2578081fd5b5051919050565b60006020828403121561100a578081fd5b81516001600160e01b031981168114610cab578182fd5b600060208284031215611032578081fd5b813567ffffffffffffffff811115611048578182fd5b610ce684828501610e7b565b600060208284031215611065578081fd5b813567ffffffffffffffff8082111561107c578283fd5b908301906060828603121561108f578283fd5b6110996060611855565b8235828111156110a7578485fd5b83016102008188038113156110ba578586fd5b6110c381611855565b90506110cf8883610df8565b8152602082013560208201526110e88860408401610df8565b6040820152606082013560608201526111048860808401610df8565b608082015260a082013560a08201526111208860c08401610df8565b60c082015260e0828101359082015261010080830135908201526101208083013590820152610140808301359082015261016061115f89828501610df8565b9082015261018061117289848301610df8565b908201526101a08281013585811115611189578788fd5b6111958a828601610e03565b8284015250506101c08083013581830152506101e080830135858111156111ba578788fd5b6111c68a828601610e03565b82840152505080835250506111de8660208501610e6c565b60208201526040830135828111156111f4578485fd5b61120087828601610e03565b60408301525095945050505050565b600060208284031215611220578081fd5b813567ffffffffffffffff80821115611237578283fd5b908301906060828603121561124a578283fd5b6112546060611855565b823582811115611262578485fd5b8301610160818803811315611275578586fd5b61127e81611855565b905061128a8883610df8565b81526020820135602082015260408201356040820152606082013560608201526080820135608082015260a082013560a08201526112cb8860c08401610df8565b60c08201526112dd8860e08401610df8565b60e08201526101006112f189828501610df8565b90820152610120828101359082015261014080830135858111156111ba578788fd5b6001600160a01b03169052565b60008151808452815b8181101561134557602081850181015186830182015201611329565b818111156113565782602083870101525b50601f01601f19169290920160200192915050565b6002811061137557fe5b9052565b600081516060845261138e60608501826113c6565b905060208301516002811061139f57fe5b80602086015250604083015184820360408601526113bd8282611320565b95945050505050565b600061012060018060a01b03835116845260208301516020850152604083015160408501526060830151606085015260808301516114076080860182611313565b5060a083015161141a60a0860182611313565b5060c083015161142d60c0860182611313565b5060e083015160e085015261010080840151828287015261145083870182611320565b9695505050505050565b600061020061146a848451611313565b6020830151602085015260408301516114866040860182611313565b506060830151606085015260808301516114a36080860182611313565b5060a083015160a085015260c08301516114c060c0860182611313565b5060e08381015190850152610100808401519085015261012080840151908501526101408084015190850152610160808401516114ff82870182611313565b50506101808084015161151482870182611313565b50506101a080840151828287015261152e83870182611320565b925050506101c08084015181860152506101e080840151858303828701526114508382611320565b6000610160611566848451611313565b6020830151602085015260408301516040850152606083015160608501526080830151608085015260a083015160a085015260c08301516115aa60c0860182611313565b5060e08301516115bd60e0860182611313565b50610100808401516115d182870182611313565b505061012080840151818601525061014080840151828287015261145083870182611320565b61190160f01b81526002810192909252602282015260420190565b6001600160a01b0391909116815260200190565b90815260200190565b600083825260406020830152610ce66040830184611320565b93845260ff9290921660208401526040830152606082015260800190565b6000604082526116796040830185611320565b82810360208401526113bd8185611320565b60208082526026908201527f4f776e61626c653a206e6577206f776e657220697320746865207a65726f206160408201526564647265737360d01b606082015260800190565b60208082526013908201527234b73b30b634b216b9b4b3b730ba3ab93296bb60691b604082015260600190565b6020808252818101527f4f776e61626c653a2063616c6c6572206973206e6f7420746865206f776e6572604082015260600190565b6020808252601b908201527f696e76616c69642d73656e6465722d6f722d7369676e61747572650000000000604082015260600190565b60208082526018908201527f696e76616c69642d7369676e61747572652d666f726d61740000000000000000604082015260600190565b600060208252610cab6020830184611379565b600060208252610cab60208301846113c6565b6000602082528251606060208401526117e3608084018261145a565b905060208401516117f7604085018261136b565b506040840151838203601f190160608501526113bd8282611320565b600060208252610cab602083018461145a565b6000602082528251606060208401526117e36080840182611556565b600060208252610cab6020830184611556565b60405181810167ffffffffffffffff8111828210171561187457600080fd5b604052919050565b6001600160a01b038116811461189157600080fd5b50565b6002811061189157600080fdfea264697066735822122010802710271f035d93f6db485a6cac895964a1410558c0a5eab6bde6932e2eb064736f6c634300060c00338be0079c531659141344cd1fd0a4f28419497f9722a3daafe3b4186f6b6457e0",
  "immutableReferences": {},
  "source": "// SPDX-License-Identifier: Apache-2.0\r\n\r\n/******************************************************************************\r\n * Copyright 2020 IEXEC BLOCKCHAIN TECH                                       *\r\n *                                                                            *\r\n * Licensed under the Apache License, Version 2.0 (the \"License\");            *\r\n * you may not use this file except in compliance with the License.           *\r\n * You may obtain a copy of the License at                                    *\r\n *                                                                            *\r\n *     http://www.apache.org/licenses/LICENSE-2.0                             *\r\n *                                                                            *\r\n * Unless required by applicable law or agreed to in writing, software        *\r\n * distributed under the License is distributed on an \"AS IS\" BASIS,          *\r\n * WITHOUT WARRANTIES OR CONDITIONS OF ANY KIND, either express or implied.   *\r\n * See the License for the specific language governing permissions and        *\r\n * limitations under the License.                                             *\r\n ******************************************************************************/\r\n\r\npragma solidity ^0.6.0;\r\npragma experimental ABIEncoderV2;\r\n\r\nimport \"./SignatureVerifier.sol\";\r\nimport \"../DelegateBase.sol\";\r\nimport \"../interfaces/IexecOrderManagement.sol\";\r\n\r\n\r\ncontract IexecOrderManagementDelegate is IexecOrderManagement, DelegateBase, SignatureVerifier\r\n{\r\n\tusing IexecLibOrders_v5 for IexecLibOrders_v5.AppOrder;\r\n\tusing IexecLibOrders_v5 for IexecLibOrders_v5.DatasetOrder;\r\n\tusing IexecLibOrders_v5 for IexecLibOrders_v5.WorkerpoolOrder;\r\n\tusing IexecLibOrders_v5 for IexecLibOrders_v5.RequestOrder;\r\n\tusing IexecLibOrders_v5 for IexecLibOrders_v5.AppOrderOperation;\r\n\tusing IexecLibOrders_v5 for IexecLibOrders_v5.DatasetOrderOperation;\r\n\tusing IexecLibOrders_v5 for IexecLibOrders_v5.WorkerpoolOrderOperation;\r\n\tusing IexecLibOrders_v5 for IexecLibOrders_v5.RequestOrderOperation;\r\n\r\n\t/***************************************************************************\r\n\t *                         order management tools                          *\r\n\t ***************************************************************************/\r\n\tfunction manageAppOrder(IexecLibOrders_v5.AppOrderOperation memory _apporderoperation)\r\n\tpublic override\r\n\t{\r\n\t\taddress owner = App(_apporderoperation.order.app).owner();\r\n\t\trequire(owner == _msgSender() || _checkSignature(owner, _toEthTypedStruct(_apporderoperation.hash(), EIP712DOMAIN_SEPARATOR), _apporderoperation.sign), 'invalid-sender-or-signature');\r\n\r\n\t\tbytes32 apporderHash = keccak256(_toEthTypedStruct(_apporderoperation.order.hash(), EIP712DOMAIN_SEPARATOR));\r\n\t\tif (_apporderoperation.operation == IexecLibOrders_v5.OrderOperationEnum.SIGN)\r\n\t\t{\r\n\t\t\tm_presigned[apporderHash] = owner;\r\n\t\t\temit SignedAppOrder(apporderHash);\r\n\t\t}\r\n\t\telse if (_apporderoperation.operation == IexecLibOrders_v5.OrderOperationEnum.CLOSE)\r\n\t\t{\r\n\t\t\tm_consumed[apporderHash] = _apporderoperation.order.volume;\r\n\t\t\temit ClosedAppOrder(apporderHash);\r\n\t\t}\r\n\t}\r\n\r\n\tfunction manageDatasetOrder(IexecLibOrders_v5.DatasetOrderOperation memory _datasetorderoperation)\r\n\tpublic override\r\n\t{\r\n\t\taddress owner = Dataset(_datasetorderoperation.order.dataset).owner();\r\n\t\trequire(owner == _msgSender() || _checkSignature(owner, _toEthTypedStruct(_datasetorderoperation.hash(), EIP712DOMAIN_SEPARATOR), _datasetorderoperation.sign), 'invalid-sender-or-signature');\r\n\r\n\t\tbytes32 datasetorderHash = keccak256(_toEthTypedStruct(_datasetorderoperation.order.hash(), EIP712DOMAIN_SEPARATOR));\r\n\t\tif (_datasetorderoperation.operation == IexecLibOrders_v5.OrderOperationEnum.SIGN)\r\n\t\t{\r\n\t\t\tm_presigned[datasetorderHash] = owner;\r\n\t\t\temit SignedDatasetOrder(datasetorderHash);\r\n\t\t}\r\n\t\telse if (_datasetorderoperation.operation == IexecLibOrders_v5.OrderOperationEnum.CLOSE)\r\n\t\t{\r\n\t\t\tm_consumed[datasetorderHash] = _datasetorderoperation.order.volume;\r\n\t\t\temit ClosedDatasetOrder(datasetorderHash);\r\n\t\t}\r\n\t}\r\n\r\n\tfunction manageWorkerpoolOrder(IexecLibOrders_v5.WorkerpoolOrderOperation memory _workerpoolorderoperation)\r\n\tpublic override\r\n\t{\r\n\t\taddress owner = Workerpool(_workerpoolorderoperation.order.workerpool).owner();\r\n\t\trequire(owner == _msgSender() || _checkSignature(owner, _toEthTypedStruct(_workerpoolorderoperation.hash(), EIP712DOMAIN_SEPARATOR), _workerpoolorderoperation.sign), 'invalid-sender-or-signature');\r\n\r\n\t\tbytes32 workerpoolorderHash = keccak256(_toEthTypedStruct(_workerpoolorderoperation.order.hash(), EIP712DOMAIN_SEPARATOR));\r\n\t\tif (_workerpoolorderoperation.operation == IexecLibOrders_v5.OrderOperationEnum.SIGN)\r\n\t\t{\r\n\t\t\tm_presigned[workerpoolorderHash] = owner;\r\n\t\t\temit SignedWorkerpoolOrder(workerpoolorderHash);\r\n\t\t}\r\n\t\telse if (_workerpoolorderoperation.operation == IexecLibOrders_v5.OrderOperationEnum.CLOSE)\r\n\t\t{\r\n\t\t\tm_consumed[workerpoolorderHash] = _workerpoolorderoperation.order.volume;\r\n\t\t\temit ClosedWorkerpoolOrder(workerpoolorderHash);\r\n\t\t}\r\n\t}\r\n\r\n\tfunction manageRequestOrder(IexecLibOrders_v5.RequestOrderOperation memory _requestorderoperation)\r\n\tpublic override\r\n\t{\r\n\t\taddress owner = _requestorderoperation.order.requester;\r\n\t\trequire(owner == _msgSender() || _checkSignature(owner, _toEthTypedStruct(_requestorderoperation.hash(), EIP712DOMAIN_SEPARATOR), _requestorderoperation.sign), 'invalid-sender-or-signature');\r\n\r\n\t\tbytes32 requestorderHash = keccak256(_toEthTypedStruct(_requestorderoperation.order.hash(), EIP712DOMAIN_SEPARATOR));\r\n\t\tif (_requestorderoperation.operation == IexecLibOrders_v5.OrderOperationEnum.SIGN)\r\n\t\t{\r\n\t\t\tm_presigned[requestorderHash] = owner;\r\n\t\t\temit SignedRequestOrder(requestorderHash);\r\n\t\t}\r\n\t\telse if (_requestorderoperation.operation == IexecLibOrders_v5.OrderOperationEnum.CLOSE)\r\n\t\t{\r\n\t\t\tm_consumed[requestorderHash] = _requestorderoperation.order.volume;\r\n\t\t\temit ClosedRequestOrder(requestorderHash);\r\n\t\t}\r\n\t}\r\n}\r\n",
  "sourcePath": "D:\\iexec\\PoCo\\contracts\\modules\\delegates\\IexecOrderManagementDelegate.sol",
  "compiler": {
    "name": "solc",
    "version": "0.6.12+commit.27d51765.Emscripten.clang"
  },
  "schemaVersion": "3.4.3",
  "updatedAt": "2021-08-31T16:42:43.665Z",
  "networkType": "ethereum",
  "devdoc": {
    "kind": "dev",
    "methods": {
      "owner()": {
        "details": "Returns the address of the current owner."
      },
      "renounceOwnership()": {
        "details": "Leaves the contract without owner. It will not be possible to call `onlyOwner` functions anymore. Can only be called by the current owner. NOTE: Renouncing ownership will leave the contract without an owner, thereby removing any functionality that is only available to the owner."
      },
      "transferOwnership(address)": {
        "details": "Transfers ownership of the contract to a new account (`newOwner`). Can only be called by the current owner."
      }
    },
    "version": 1
  },
  "userdoc": {
    "kind": "user",
    "methods": {},
    "version": 1
  }
}