{
  "contractName": "IexecRelayDelegate",
  "abi": [
    {
      "anonymous": false,
      "inputs": [
        {
          "components": [
            {
              "internalType": "address",
              "name": "app",
              "type": "address"
            },
            {
              "internalType": "uint256",
              "name": "appprice",
              "type": "uint256"
            },
            {
              "internalType": "uint256",
              "name": "volume",
              "type": "uint256"
            },
            {
              "internalType": "bytes32",
              "name": "tag",
              "type": "bytes32"
            },
            {
              "internalType": "address",
              "name": "datasetrestrict",
              "type": "address"
            },
            {
              "internalType": "address",
              "name": "workerpoolrestrict",
              "type": "address"
            },
            {
              "internalType": "address",
              "name": "requesterrestrict",
              "type": "address"
            },
            {
              "internalType": "bytes32",
              "name": "salt",
              "type": "bytes32"
            },
            {
              "internalType": "bytes",
              "name": "sign",
              "type": "bytes"
            }
          ],
          "indexed": false,
          "internalType": "struct IexecLibOrders_v5.AppOrder",
          "name": "apporder",
          "type": "tuple"
        }
      ],
      "name": "BroadcastAppOrder",
      "type": "event"
    },
    {
      "anonymous": false,
      "inputs": [
        {
          "components": [
            {
              "internalType": "address",
              "name": "dataset",
              "type": "address"
            },
            {
              "internalType": "uint256",
              "name": "datasetprice",
              "type": "uint256"
            },
            {
              "internalType": "uint256",
              "name": "volume",
              "type": "uint256"
            },
            {
              "internalType": "bytes32",
              "name": "tag",
              "type": "bytes32"
            },
            {
              "internalType": "address",
              "name": "apprestrict",
              "type": "address"
            },
            {
              "internalType": "address",
              "name": "workerpoolrestrict",
              "type": "address"
            },
            {
              "internalType": "address",
              "name": "requesterrestrict",
              "type": "address"
            },
            {
              "internalType": "bytes32",
              "name": "salt",
              "type": "bytes32"
            },
            {
              "internalType": "bytes",
              "name": "sign",
              "type": "bytes"
            }
          ],
          "indexed": false,
          "internalType": "struct IexecLibOrders_v5.DatasetOrder",
          "name": "datasetorder",
          "type": "tuple"
        }
      ],
      "name": "BroadcastDatasetOrder",
      "type": "event"
    },
    {
      "anonymous": false,
      "inputs": [
        {
          "components": [
            {
              "internalType": "address",
              "name": "app",
              "type": "address"
            },
            {
              "internalType": "uint256",
              "name": "appmaxprice",
              "type": "uint256"
            },
            {
              "internalType": "address",
              "name": "dataset",
              "type": "address"
            },
            {
              "internalType": "uint256",
              "name": "datasetmaxprice",
              "type": "uint256"
            },
            {
              "internalType": "address",
              "name": "workerpool",
              "type": "address"
            },
            {
              "internalType": "uint256",
              "name": "workerpoolmaxprice",
              "type": "uint256"
            },
            {
              "internalType": "address",
              "name": "requester",
              "type": "address"
            },
            {
              "internalType": "uint256",
              "name": "volume",
              "type": "uint256"
            },
            {
              "internalType": "bytes32",
              "name": "tag",
              "type": "bytes32"
            },
            {
              "internalType": "uint256",
              "name": "category",
              "type": "uint256"
            },
            {
              "internalType": "uint256",
              "name": "trust",
              "type": "uint256"
            },
            {
              "internalType": "address",
              "name": "beneficiary",
              "type": "address"
            },
            {
              "internalType": "address",
              "name": "callback",
              "type": "address"
            },
            {
              "internalType": "string",
              "name": "params",
              "type": "string"
            },
            {
              "internalType": "bytes32",
              "name": "salt",
              "type": "bytes32"
            },
            {
              "internalType": "bytes",
              "name": "sign",
              "type": "bytes"
            }
          ],
          "indexed": false,
          "internalType": "struct IexecLibOrders_v5.RequestOrder",
          "name": "requestorder",
          "type": "tuple"
        }
      ],
      "name": "BroadcastRequestOrder",
      "type": "event"
    },
    {
      "anonymous": false,
      "inputs": [
        {
          "components": [
            {
              "internalType": "address",
              "name": "workerpool",
              "type": "address"
            },
            {
              "internalType": "uint256",
              "name": "workerpoolprice",
              "type": "uint256"
            },
            {
              "internalType": "uint256",
              "name": "volume",
              "type": "uint256"
            },
            {
              "internalType": "bytes32",
              "name": "tag",
              "type": "bytes32"
            },
            {
              "internalType": "uint256",
              "name": "category",
              "type": "uint256"
            },
            {
              "internalType": "uint256",
              "name": "trust",
              "type": "uint256"
            },
            {
              "internalType": "address",
              "name": "apprestrict",
              "type": "address"
            },
            {
              "internalType": "address",
              "name": "datasetrestrict",
              "type": "address"
            },
            {
              "internalType": "address",
              "name": "requesterrestrict",
              "type": "address"
            },
            {
              "internalType": "bytes32",
              "name": "salt",
              "type": "bytes32"
            },
            {
              "internalType": "bytes",
              "name": "sign",
              "type": "bytes"
            }
          ],
          "indexed": false,
          "internalType": "struct IexecLibOrders_v5.WorkerpoolOrder",
          "name": "workerpoolorder",
          "type": "tuple"
        }
      ],
      "name": "BroadcastWorkerpoolOrder",
      "type": "event"
    },
    {
      "anonymous": false,
      "inputs": [
        {
          "indexed": true,
          "internalType": "address",
          "name": "previousOwner",
          "type": "address"
        },
        {
          "indexed": true,
          "internalType": "address",
          "name": "newOwner",
          "type": "address"
        }
      ],
      "name": "OwnershipTransferred",
      "type": "event"
    },
    {
      "inputs": [],
      "name": "owner",
      "outputs": [
        {
          "internalType": "address",
          "name": "",
          "type": "address"
        }
      ],
      "stateMutability": "view",
      "type": "function",
      "constant": true
    },
    {
      "inputs": [],
      "name": "renounceOwnership",
      "outputs": [],
      "stateMutability": "nonpayable",
      "type": "function"
    },
    {
      "inputs": [
        {
          "internalType": "address",
          "name": "newOwner",
          "type": "address"
        }
      ],
      "name": "transferOwnership",
      "outputs": [],
      "stateMutability": "nonpayable",
      "type": "function"
    },
    {
      "inputs": [
        {
          "components": [
            {
              "internalType": "address",
              "name": "app",
              "type": "address"
            },
            {
              "internalType": "uint256",
              "name": "appprice",
              "type": "uint256"
            },
            {
              "internalType": "uint256",
              "name": "volume",
              "type": "uint256"
            },
            {
              "internalType": "bytes32",
              "name": "tag",
              "type": "bytes32"
            },
            {
              "internalType": "address",
              "name": "datasetrestrict",
              "type": "address"
            },
            {
              "internalType": "address",
              "name": "workerpoolrestrict",
              "type": "address"
            },
            {
              "internalType": "address",
              "name": "requesterrestrict",
              "type": "address"
            },
            {
              "internalType": "bytes32",
              "name": "salt",
              "type": "bytes32"
            },
            {
              "internalType": "bytes",
              "name": "sign",
              "type": "bytes"
            }
          ],
          "internalType": "struct IexecLibOrders_v5.AppOrder",
          "name": "_apporder",
          "type": "tuple"
        }
      ],
      "name": "broadcastAppOrder",
      "outputs": [],
      "stateMutability": "nonpayable",
      "type": "function"
    },
    {
      "inputs": [
        {
          "components": [
            {
              "internalType": "address",
              "name": "dataset",
              "type": "address"
            },
            {
              "internalType": "uint256",
              "name": "datasetprice",
              "type": "uint256"
            },
            {
              "internalType": "uint256",
              "name": "volume",
              "type": "uint256"
            },
            {
              "internalType": "bytes32",
              "name": "tag",
              "type": "bytes32"
            },
            {
              "internalType": "address",
              "name": "apprestrict",
              "type": "address"
            },
            {
              "internalType": "address",
              "name": "workerpoolrestrict",
              "type": "address"
            },
            {
              "internalType": "address",
              "name": "requesterrestrict",
              "type": "address"
            },
            {
              "internalType": "bytes32",
              "name": "salt",
              "type": "bytes32"
            },
            {
              "internalType": "bytes",
              "name": "sign",
              "type": "bytes"
            }
          ],
          "internalType": "struct IexecLibOrders_v5.DatasetOrder",
          "name": "_datasetorder",
          "type": "tuple"
        }
      ],
      "name": "broadcastDatasetOrder",
      "outputs": [],
      "stateMutability": "nonpayable",
      "type": "function"
    },
    {
      "inputs": [
        {
          "components": [
            {
              "internalType": "address",
              "name": "workerpool",
              "type": "address"
            },
            {
              "internalType": "uint256",
              "name": "workerpoolprice",
              "type": "uint256"
            },
            {
              "internalType": "uint256",
              "name": "volume",
              "type": "uint256"
            },
            {
              "internalType": "bytes32",
              "name": "tag",
              "type": "bytes32"
            },
            {
              "internalType": "uint256",
              "name": "category",
              "type": "uint256"
            },
            {
              "internalType": "uint256",
              "name": "trust",
              "type": "uint256"
            },
            {
              "internalType": "address",
              "name": "apprestrict",
              "type": "address"
            },
            {
              "internalType": "address",
              "name": "datasetrestrict",
              "type": "address"
            },
            {
              "internalType": "address",
              "name": "requesterrestrict",
              "type": "address"
            },
            {
              "internalType": "bytes32",
              "name": "salt",
              "type": "bytes32"
            },
            {
              "internalType": "bytes",
              "name": "sign",
              "type": "bytes"
            }
          ],
          "internalType": "struct IexecLibOrders_v5.WorkerpoolOrder",
          "name": "_workerpoolorder",
          "type": "tuple"
        }
      ],
      "name": "broadcastWorkerpoolOrder",
      "outputs": [],
      "stateMutability": "nonpayable",
      "type": "function"
    },
    {
      "inputs": [
        {
          "components": [
            {
              "internalType": "address",
              "name": "app",
              "type": "address"
            },
            {
              "internalType": "uint256",
              "name": "appmaxprice",
              "type": "uint256"
            },
            {
              "internalType": "address",
              "name": "dataset",
              "type": "address"
            },
            {
              "internalType": "uint256",
              "name": "datasetmaxprice",
              "type": "uint256"
            },
            {
              "internalType": "address",
              "name": "workerpool",
              "type": "address"
            },
            {
              "internalType": "uint256",
              "name": "workerpoolmaxprice",
              "type": "uint256"
            },
            {
              "internalType": "address",
              "name": "requester",
              "type": "address"
            },
            {
              "internalType": "uint256",
              "name": "volume",
              "type": "uint256"
            },
            {
              "internalType": "bytes32",
              "name": "tag",
              "type": "bytes32"
            },
            {
              "internalType": "uint256",
              "name": "category",
              "type": "uint256"
            },
            {
              "internalType": "uint256",
              "name": "trust",
              "type": "uint256"
            },
            {
              "internalType": "address",
              "name": "beneficiary",
              "type": "address"
            },
            {
              "internalType": "address",
              "name": "callback",
              "type": "address"
            },
            {
              "internalType": "string",
              "name": "params",
              "type": "string"
            },
            {
              "internalType": "bytes32",
              "name": "salt",
              "type": "bytes32"
            },
            {
              "internalType": "bytes",
              "name": "sign",
              "type": "bytes"
            }
          ],
          "internalType": "struct IexecLibOrders_v5.RequestOrder",
          "name": "_requestorder",
          "type": "tuple"
        }
      ],
      "name": "broadcastRequestOrder",
      "outputs": [],
      "stateMutability": "nonpayable",
      "type": "function"
    }
  ],
  "bytecode": "0x608060405234801561001057600080fd5b50600061001b610060565b600080546001600160a01b0319166001600160a01b0383169081178255604051929350916000805160206109a9833981519152908290a35061005b610064565b61010f565b3390565b61006c610060565b6000546001600160a01b039081169116146100a25760405162461bcd60e51b8152600401610099906100da565b60405180910390fd5b600080546040516001600160a01b03909116906000805160206109a9833981519152908390a3600080546001600160a01b0319169055565b6020808252818101527f4f776e61626c653a2063616c6c6572206973206e6f7420746865206f776e6572604082015260600190565b61088b8061011e6000396000f3fe608060405234801561001057600080fd5b506004361061007d5760003560e01c80638da5cb5b1161005b5780638da5cb5b146100b2578063947f5178146100d0578063c52e9de1146100e3578063f2fde38b146100f65761007d565b80634693d172146100825780634c4692de14610097578063715018a6146100aa575b600080fd5b6100956100903660046103b3565b610109565b005b6100956100a5366004610378565b610143565b610095610172565b6100ba6101fa565b6040516100c7919061051d565b60405180910390f35b6100956100de3660046103ec565b610209565b6100956100f1366004610378565b610238565b610095610104366004610356565b610267565b7f54bee205d9b03332d6dc82bc907476dfef6ed4fd86058d49a72994baee7811758160405161013891906105bf565b60405180910390a150565b7fc56d982ad2fd39ebadca073cc88d9bdaee0f4c8e7b2b6be50227169daefc7b3f8160405161013891906105ac565b61017a61031d565b6000546001600160a01b039081169116146101b05760405162461bcd60e51b81526004016101a790610577565b60405180910390fd5b600080546040516001600160a01b03909116907f8be0079c531659141344cd1fd0a4f28419497f9722a3daafe3b4186f6b6457e0908390a3600080546001600160a01b0319169055565b6000546001600160a01b031690565b7faf81a046e31ebb2be305579e585ac6b2ee3fdc2dc9dba806bb826879bb2c7851816040516101389190610716565b7f6fd493f856b22df174df46975d6dcf0895c7dfb3c63d20179c0dcd5563e2f5658160405161013891906105ac565b61026f61031d565b6000546001600160a01b0390811691161461029c5760405162461bcd60e51b81526004016101a790610577565b6001600160a01b0381166102c25760405162461bcd60e51b81526004016101a790610531565b600080546040516001600160a01b03808516939216917f8be0079c531659141344cd1fd0a4f28419497f9722a3daafe3b4186f6b6457e091a3600080546001600160a01b0319166001600160a01b0392909216919091179055565b3390565b80356001600160a01b038116811461033857600080fd5b92915050565b60006101208284031215610350578081fd5b50919050565b600060208284031215610367578081fd5b6103718383610321565b9392505050565b600060208284031215610389578081fd5b813567ffffffffffffffff81111561039f578182fd5b6103ab8482850161033e565b949350505050565b6000602082840312156103c4578081fd5b813567ffffffffffffffff8111156103da578182fd5b82016102008185031215610371578182fd5b6000602082840312156103fd578081fd5b813567ffffffffffffffff811115610413578182fd5b82016101608185031215610371578182fd5b6001600160a01b03169052565b60008284528282602086013780602084860101526020601f19601f85011685010190509392505050565b6000610120602083016001600160a01b036104778286610321565b168552803560208601525060408301356040850152606083013560608501526104a360808401846107f1565b6104b06080860182610425565b506104be60a08401846107f1565b6104cb60a0860182610425565b506104d960c08401846107f1565b6104e660c0860182610425565b5060e083013560e085015261010061050081850185610809565b83838801526105128488018284610432565b979650505050505050565b6001600160a01b0391909116815260200190565b60208082526026908201527f4f776e61626c653a206e6577206f776e657220697320746865207a65726f206160408201526564647265737360d01b606082015260800190565b6020808252818101527f4f776e61626c653a2063616c6c6572206973206e6f7420746865206f776e6572604082015260600190565b600060208252610371602083018461045c565b600060208252602083016105df602084016105da8387610321565b610425565b80356040840152506105f460408401846107f1565b6106016060840182610425565b506060830135608083015261061960808401846107f1565b61062660a0840182610425565b5060a083013560c083015261063e60c08401846107f1565b61064b60e0840182610425565b5061010060e084013581840152610120818501358185015261014091508085013582850152506101608185013581850152610688818601866107f1565b91505061018061069a81850183610425565b6106a6818601866107f1565b9150506101a06106b881850183610425565b6106c481860186610809565b925090506102006101c081818701526106e261022087018585610432565b93506101e092508087013583870152506106fe82870187610809565b868503601f1901838801529250610512848483610432565b60006020825260208301610731602084016105da8387610321565b80356040840152506040830135606083015260608301356080830152608083013560a083015260a083013560c083015261076e60c08401846107f1565b61077b60e0840182610425565b5061078960e08401846107f1565b61010061079881850183610425565b6107a4818601866107f1565b9150506101206107b681850183610425565b61014091508085013582850152506107d081850185610809565b6101608581015291506107e861018085018383610432565b95945050505050565b600082356001600160a01b0381168114610371578182fd5b6000808335601e1984360301811261081f578283fd5b830160208101925035905067ffffffffffffffff81111561083f57600080fd5b80360383131561084e57600080fd5b925092905056fea2646970667358221220b056e208a36bd2c9447bbc7627f6b7095cb7f5293be6dc79cfb43a438de1824664736f6c634300060c00338be0079c531659141344cd1fd0a4f28419497f9722a3daafe3b4186f6b6457e0",
  "immutableReferences": {},
  "source": "// SPDX-License-Identifier: Apache-2.0\r\n\r\n/******************************************************************************\r\n * Copyright 2020 IEXEC BLOCKCHAIN TECH                                       *\r\n *                                                                            *\r\n * Licensed under the Apache License, Version 2.0 (the \"License\");            *\r\n * you may not use this file except in compliance with the License.           *\r\n * You may obtain a copy of the License at                                    *\r\n *                                                                            *\r\n *     http://www.apache.org/licenses/LICENSE-2.0                             *\r\n *                                                                            *\r\n * Unless required by applicable law or agreed to in writing, software        *\r\n * distributed under the License is distributed on an \"AS IS\" BASIS,          *\r\n * WITHOUT WARRANTIES OR CONDITIONS OF ANY KIND, either express or implied.   *\r\n * See the License for the specific language governing permissions and        *\r\n * limitations under the License.                                             *\r\n ******************************************************************************/\r\n\r\npragma solidity ^0.6.0;\r\npragma experimental ABIEncoderV2;\r\n\r\nimport \"../DelegateBase.sol\";\r\nimport \"../interfaces/IexecRelay.sol\";\r\n\r\n\r\ncontract IexecRelayDelegate is IexecRelay, DelegateBase\r\n{\r\n\tfunction broadcastAppOrder       (IexecLibOrders_v5.AppOrder        calldata _apporder       ) external override { emit BroadcastAppOrder       (_apporder       ); }\r\n\tfunction broadcastDatasetOrder   (IexecLibOrders_v5.DatasetOrder    calldata _datasetorder   ) external override { emit BroadcastDatasetOrder   (_datasetorder   ); }\r\n\tfunction broadcastWorkerpoolOrder(IexecLibOrders_v5.WorkerpoolOrder calldata _workerpoolorder) external override { emit BroadcastWorkerpoolOrder(_workerpoolorder); }\r\n\tfunction broadcastRequestOrder   (IexecLibOrders_v5.RequestOrder    calldata _requestorder   ) external override { emit BroadcastRequestOrder   (_requestorder   ); }\r\n}\r\n",
  "sourcePath": "D:\\iexec\\PoCo\\contracts\\modules\\delegates\\IexecRelayDelegate.sol",
  "compiler": {
    "name": "solc",
    "version": "0.6.12+commit.27d51765.Emscripten.clang"
  },
  "schemaVersion": "3.4.3",
  "updatedAt": "2021-08-31T16:42:43.755Z",
  "networkType": "ethereum",
  "devdoc": {
    "kind": "dev",
    "methods": {
      "owner()": {
        "details": "Returns the address of the current owner."
      },
      "renounceOwnership()": {
        "details": "Leaves the contract without owner. It will not be possible to call `onlyOwner` functions anymore. Can only be called by the current owner. NOTE: Renouncing ownership will leave the contract without an owner, thereby removing any functionality that is only available to the owner."
      },
      "transferOwnership(address)": {
        "details": "Transfers ownership of the contract to a new account (`newOwner`). Can only be called by the current owner."
      }
    },
    "version": 1
  },
  "userdoc": {
    "kind": "user",
    "methods": {},
    "version": 1
  }
}