{
  "contractName": "IexecCategoryManagerDelegate",
  "abi": [
    {
      "anonymous": false,
      "inputs": [
        {
          "indexed": false,
          "internalType": "uint256",
          "name": "catid",
          "type": "uint256"
        },
        {
          "indexed": false,
          "internalType": "string",
          "name": "name",
          "type": "string"
        },
        {
          "indexed": false,
          "internalType": "string",
          "name": "description",
          "type": "string"
        },
        {
          "indexed": false,
          "internalType": "uint256",
          "name": "workClockTimeRef",
          "type": "uint256"
        }
      ],
      "name": "CreateCategory",
      "type": "event"
    },
    {
      "anonymous": false,
      "inputs": [
        {
          "indexed": true,
          "internalType": "address",
          "name": "previousOwner",
          "type": "address"
        },
        {
          "indexed": true,
          "internalType": "address",
          "name": "newOwner",
          "type": "address"
        }
      ],
      "name": "OwnershipTransferred",
      "type": "event"
    },
    {
      "inputs": [],
      "name": "owner",
      "outputs": [
        {
          "internalType": "address",
          "name": "",
          "type": "address"
        }
      ],
      "stateMutability": "view",
      "type": "function",
      "constant": true
    },
    {
      "inputs": [],
      "name": "renounceOwnership",
      "outputs": [],
      "stateMutability": "nonpayable",
      "type": "function"
    },
    {
      "inputs": [
        {
          "internalType": "address",
          "name": "newOwner",
          "type": "address"
        }
      ],
      "name": "transferOwnership",
      "outputs": [],
      "stateMutability": "nonpayable",
      "type": "function"
    },
    {
      "inputs": [
        {
          "internalType": "string",
          "name": "name",
          "type": "string"
        },
        {
          "internalType": "string",
          "name": "description",
          "type": "string"
        },
        {
          "internalType": "uint256",
          "name": "workClockTimeRef",
          "type": "uint256"
        }
      ],
      "name": "createCategory",
      "outputs": [
        {
          "internalType": "uint256",
          "name": "",
          "type": "uint256"
        }
      ],
      "stateMutability": "nonpayable",
      "type": "function"
    }
  ],
  "bytecode": "0x608060405234801561001057600080fd5b50600061001b610060565b600080546001600160a01b0319166001600160a01b03831690811782556040519293509160008051602061072a833981519152908290a35061005b610064565b61010f565b3390565b61006c610060565b6000546001600160a01b039081169116146100a25760405162461bcd60e51b8152600401610099906100da565b60405180910390fd5b600080546040516001600160a01b039091169060008051602061072a833981519152908390a3600080546001600160a01b0319169055565b6020808252818101527f4f776e61626c653a2063616c6c6572206973206e6f7420746865206f776e6572604082015260600190565b61060c8061011e6000396000f3fe608060405234801561001057600080fd5b506004361061004c5760003560e01c8063298503d914610051578063715018a61461007a5780638da5cb5b14610084578063f2fde38b14610099575b600080fd5b61006461005f366004610462565b6100ac565b604051610071919061058c565b60405180910390f35b610082610212565b005b61008c610291565b60405161007191906104fd565b6100826100a7366004610434565b6102a0565b60006100b6610356565b6000546001600160a01b039081169116146100ec5760405162461bcd60e51b81526004016100e390610557565b60405180910390fd5b6040805160806020601f8901819004028201810190925260608101878152601c928291908a908a9081908501838280828437600092019190915250505090825250604080516020601f89018190048102820181019092528781529181019190889088908190840183828082843760009201829052509385525050506020918201869052835460018101855593815281902082518051939460030290910192610197928492019061035a565b5060208281015180516101b0926001850192019061035a565b50604091820151600290910155601c549051600019909101907f62bf08360c9d561749c54eaf4f8bf8cb6c8b6f4f40607bcec39a8172e714d25c906102009083908a908a908a908a908a90610595565b60405180910390a19695505050505050565b61021a610356565b6000546001600160a01b039081169116146102475760405162461bcd60e51b81526004016100e390610557565b600080546040516001600160a01b03909116907f8be0079c531659141344cd1fd0a4f28419497f9722a3daafe3b4186f6b6457e0908390a3600080546001600160a01b0319169055565b6000546001600160a01b031690565b6102a8610356565b6000546001600160a01b039081169116146102d55760405162461bcd60e51b81526004016100e390610557565b6001600160a01b0381166102fb5760405162461bcd60e51b81526004016100e390610511565b600080546040516001600160a01b03808516939216917f8be0079c531659141344cd1fd0a4f28419497f9722a3daafe3b4186f6b6457e091a3600080546001600160a01b0319166001600160a01b0392909216919091179055565b3390565b828054600181600116156101000203166002900490600052602060002090601f016020900481019282601f1061039b57805160ff19168380011785556103c8565b828001600101855582156103c8579182015b828111156103c85782518255916020019190600101906103ad565b506103d49291506103d8565b5090565b5b808211156103d457600081556001016103d9565b60008083601f8401126103fe578182fd5b50813567ffffffffffffffff811115610415578182fd5b60208301915083602082850101111561042d57600080fd5b9250929050565b600060208284031215610445578081fd5b81356001600160a01b038116811461045b578182fd5b9392505050565b600080600080600060608688031215610479578081fd5b853567ffffffffffffffff80821115610490578283fd5b61049c89838a016103ed565b909750955060208801359150808211156104b4578283fd5b506104c1888289016103ed565b96999598509660400135949350505050565b60008284528282602086013780602084860101526020601f19601f85011685010190509392505050565b6001600160a01b0391909116815260200190565b60208082526026908201527f4f776e61626c653a206e6577206f776e657220697320746865207a65726f206160408201526564647265737360d01b606082015260800190565b6020808252818101527f4f776e61626c653a2063616c6c6572206973206e6f7420746865206f776e6572604082015260600190565b90815260200190565b6000878252608060208301526105af6080830187896104d3565b82810360408401526105c28186886104d3565b91505082606083015297965050505050505056fea2646970667358221220a3ee309ab8c9f7780a719f9d8e3162c4b06f1788f0b3d2144b0c5b0e9144b83164736f6c634300060c00338be0079c531659141344cd1fd0a4f28419497f9722a3daafe3b4186f6b6457e0",
  "immutableReferences": {},
  "source": "// SPDX-License-Identifier: Apache-2.0\r\n\r\n/******************************************************************************\r\n * Copyright 2020 IEXEC BLOCKCHAIN TECH                                       *\r\n *                                                                            *\r\n * Licensed under the Apache License, Version 2.0 (the \"License\");            *\r\n * you may not use this file except in compliance with the License.           *\r\n * You may obtain a copy of the License at                                    *\r\n *                                                                            *\r\n *     http://www.apache.org/licenses/LICENSE-2.0                             *\r\n *                                                                            *\r\n * Unless required by applicable law or agreed to in writing, software        *\r\n * distributed under the License is distributed on an \"AS IS\" BASIS,          *\r\n * WITHOUT WARRANTIES OR CONDITIONS OF ANY KIND, either express or implied.   *\r\n * See the License for the specific language governing permissions and        *\r\n * limitations under the License.                                             *\r\n ******************************************************************************/\r\n\r\npragma solidity ^0.6.0;\r\npragma experimental ABIEncoderV2;\r\n\r\nimport \"../DelegateBase.sol\";\r\nimport \"../interfaces/IexecCategoryManager.sol\";\r\n\r\n\r\ncontract IexecCategoryManagerDelegate is IexecCategoryManager, DelegateBase\r\n{\r\n\t/**\r\n\t * Methods\r\n\t */\r\n\tfunction createCategory(\r\n\t\tstring  calldata name,\r\n\t\tstring  calldata description,\r\n\t\tuint256          workClockTimeRef)\r\n\texternal override onlyOwner returns (uint256)\r\n\t{\r\n\t\tm_categories.push(IexecLibCore_v5.Category(\r\n\t\t\tname,\r\n\t\t\tdescription,\r\n\t\t\tworkClockTimeRef\r\n\t\t));\r\n\r\n\t\tuint256 catid = m_categories.length - 1;\r\n\r\n\t\temit CreateCategory(\r\n\t\t\tcatid,\r\n\t\t\tname,\r\n\t\t\tdescription,\r\n\t\t\tworkClockTimeRef\r\n\t\t);\r\n\t\treturn catid;\r\n\t}\r\n}\r\n",
  "sourcePath": "D:\\iexec\\PoCo\\contracts\\modules\\delegates\\IexecCategoryManagerDelegate.sol",
  "compiler": {
    "name": "solc",
    "version": "0.6.12+commit.27d51765.Emscripten.clang"
  },
  "schemaVersion": "3.4.3",
  "updatedAt": "2021-08-31T16:42:43.612Z",
  "networkType": "ethereum",
  "devdoc": {
    "kind": "dev",
    "methods": {
      "owner()": {
        "details": "Returns the address of the current owner."
      },
      "renounceOwnership()": {
        "details": "Leaves the contract without owner. It will not be possible to call `onlyOwner` functions anymore. Can only be called by the current owner. NOTE: Renouncing ownership will leave the contract without an owner, thereby removing any functionality that is only available to the owner."
      },
      "transferOwnership(address)": {
        "details": "Transfers ownership of the contract to a new account (`newOwner`). Can only be called by the current owner."
      }
    },
    "version": 1
  },
  "userdoc": {
    "kind": "user",
    "methods": {
      "createCategory(string,string,uint256)": {
        "notice": "Methods"
      }
    },
    "version": 1
  }
}