{
  "contractName": "IexecLibOrders_v5",
  "abi": [
    {
      "inputs": [],
      "name": "APPORDEROPERATION_TYPEHASH",
      "outputs": [
        {
          "internalType": "bytes32",
          "name": "",
          "type": "bytes32"
        }
      ],
      "stateMutability": "view",
      "type": "function",
      "constant": true
    },
    {
      "inputs": [],
      "name": "APPORDER_TYPEHASH",
      "outputs": [
        {
          "internalType": "bytes32",
          "name": "",
          "type": "bytes32"
        }
      ],
      "stateMutability": "view",
      "type": "function",
      "constant": true
    },
    {
      "inputs": [],
      "name": "DATASETORDEROPERATION_TYPEHASH",
      "outputs": [
        {
          "internalType": "bytes32",
          "name": "",
          "type": "bytes32"
        }
      ],
      "stateMutability": "view",
      "type": "function",
      "constant": true
    },
    {
      "inputs": [],
      "name": "DATASETORDER_TYPEHASH",
      "outputs": [
        {
          "internalType": "bytes32",
          "name": "",
          "type": "bytes32"
        }
      ],
      "stateMutability": "view",
      "type": "function",
      "constant": true
    },
    {
      "inputs": [],
      "name": "EIP712DOMAIN_TYPEHASH",
      "outputs": [
        {
          "internalType": "bytes32",
          "name": "",
          "type": "bytes32"
        }
      ],
      "stateMutability": "view",
      "type": "function",
      "constant": true
    },
    {
      "inputs": [],
      "name": "REQUESTORDEROPERATION_TYPEHASH",
      "outputs": [
        {
          "internalType": "bytes32",
          "name": "",
          "type": "bytes32"
        }
      ],
      "stateMutability": "view",
      "type": "function",
      "constant": true
    },
    {
      "inputs": [],
      "name": "REQUESTORDER_TYPEHASH",
      "outputs": [
        {
          "internalType": "bytes32",
          "name": "",
          "type": "bytes32"
        }
      ],
      "stateMutability": "view",
      "type": "function",
      "constant": true
    },
    {
      "inputs": [],
      "name": "WORKERPOOLORDEROPERATION_TYPEHASH",
      "outputs": [
        {
          "internalType": "bytes32",
          "name": "",
          "type": "bytes32"
        }
      ],
      "stateMutability": "view",
      "type": "function",
      "constant": true
    },
    {
      "inputs": [],
      "name": "WORKERPOOLORDER_TYPEHASH",
      "outputs": [
        {
          "internalType": "bytes32",
          "name": "",
          "type": "bytes32"
        }
      ],
      "stateMutability": "view",
      "type": "function",
      "constant": true
    },
    {
      "inputs": [
        {
          "components": [
            {
              "internalType": "address",
              "name": "dataset",
              "type": "address"
            },
            {
              "internalType": "uint256",
              "name": "datasetprice",
              "type": "uint256"
            },
            {
              "internalType": "uint256",
              "name": "volume",
              "type": "uint256"
            },
            {
              "internalType": "bytes32",
              "name": "tag",
              "type": "bytes32"
            },
            {
              "internalType": "address",
              "name": "apprestrict",
              "type": "address"
            },
            {
              "internalType": "address",
              "name": "workerpoolrestrict",
              "type": "address"
            },
            {
              "internalType": "address",
              "name": "requesterrestrict",
              "type": "address"
            },
            {
              "internalType": "bytes32",
              "name": "salt",
              "type": "bytes32"
            },
            {
              "internalType": "bytes",
              "name": "sign",
              "type": "bytes"
            }
          ],
          "internalType": "struct IexecLibOrders_v5.DatasetOrder",
          "name": "_datasetorder",
          "type": "tuple"
        }
      ],
      "name": "hash",
      "outputs": [
        {
          "internalType": "bytes32",
          "name": "datasethash",
          "type": "bytes32"
        }
      ],
      "stateMutability": "pure",
      "type": "function",
      "constant": true
    },
    {
      "inputs": [
        {
          "components": [
            {
              "components": [
                {
                  "internalType": "address",
                  "name": "app",
                  "type": "address"
                },
                {
                  "internalType": "uint256",
                  "name": "appmaxprice",
                  "type": "uint256"
                },
                {
                  "internalType": "address",
                  "name": "dataset",
                  "type": "address"
                },
                {
                  "internalType": "uint256",
                  "name": "datasetmaxprice",
                  "type": "uint256"
                },
                {
                  "internalType": "address",
                  "name": "workerpool",
                  "type": "address"
                },
                {
                  "internalType": "uint256",
                  "name": "workerpoolmaxprice",
                  "type": "uint256"
                },
                {
                  "internalType": "address",
                  "name": "requester",
                  "type": "address"
                },
                {
                  "internalType": "uint256",
                  "name": "volume",
                  "type": "uint256"
                },
                {
                  "internalType": "bytes32",
                  "name": "tag",
                  "type": "bytes32"
                },
                {
                  "internalType": "uint256",
                  "name": "category",
                  "type": "uint256"
                },
                {
                  "internalType": "uint256",
                  "name": "trust",
                  "type": "uint256"
                },
                {
                  "internalType": "address",
                  "name": "beneficiary",
                  "type": "address"
                },
                {
                  "internalType": "address",
                  "name": "callback",
                  "type": "address"
                },
                {
                  "internalType": "string",
                  "name": "params",
                  "type": "string"
                },
                {
                  "internalType": "bytes32",
                  "name": "salt",
                  "type": "bytes32"
                },
                {
                  "internalType": "bytes",
                  "name": "sign",
                  "type": "bytes"
                }
              ],
              "internalType": "struct IexecLibOrders_v5.RequestOrder",
              "name": "order",
              "type": "tuple"
            },
            {
              "internalType": "enum IexecLibOrders_v5.OrderOperationEnum",
              "name": "operation",
              "type": "IexecLibOrders_v5.OrderOperationEnum"
            },
            {
              "internalType": "bytes",
              "name": "sign",
              "type": "bytes"
            }
          ],
          "internalType": "struct IexecLibOrders_v5.RequestOrderOperation",
          "name": "_requestorderoperation",
          "type": "tuple"
        }
      ],
      "name": "hash",
      "outputs": [
        {
          "internalType": "bytes32",
          "name": "",
          "type": "bytes32"
        }
      ],
      "stateMutability": "pure",
      "type": "function",
      "constant": true
    },
    {
      "inputs": [
        {
          "components": [
            {
              "components": [
                {
                  "internalType": "address",
                  "name": "dataset",
                  "type": "address"
                },
                {
                  "internalType": "uint256",
                  "name": "datasetprice",
                  "type": "uint256"
                },
                {
                  "internalType": "uint256",
                  "name": "volume",
                  "type": "uint256"
                },
                {
                  "internalType": "bytes32",
                  "name": "tag",
                  "type": "bytes32"
                },
                {
                  "internalType": "address",
                  "name": "apprestrict",
                  "type": "address"
                },
                {
                  "internalType": "address",
                  "name": "workerpoolrestrict",
                  "type": "address"
                },
                {
                  "internalType": "address",
                  "name": "requesterrestrict",
                  "type": "address"
                },
                {
                  "internalType": "bytes32",
                  "name": "salt",
                  "type": "bytes32"
                },
                {
                  "internalType": "bytes",
                  "name": "sign",
                  "type": "bytes"
                }
              ],
              "internalType": "struct IexecLibOrders_v5.DatasetOrder",
              "name": "order",
              "type": "tuple"
            },
            {
              "internalType": "enum IexecLibOrders_v5.OrderOperationEnum",
              "name": "operation",
              "type": "IexecLibOrders_v5.OrderOperationEnum"
            },
            {
              "internalType": "bytes",
              "name": "sign",
              "type": "bytes"
            }
          ],
          "internalType": "struct IexecLibOrders_v5.DatasetOrderOperation",
          "name": "_datasetorderoperation",
          "type": "tuple"
        }
      ],
      "name": "hash",
      "outputs": [
        {
          "internalType": "bytes32",
          "name": "",
          "type": "bytes32"
        }
      ],
      "stateMutability": "pure",
      "type": "function",
      "constant": true
    },
    {
      "inputs": [
        {
          "components": [
            {
              "components": [
                {
                  "internalType": "address",
                  "name": "workerpool",
                  "type": "address"
                },
                {
                  "internalType": "uint256",
                  "name": "workerpoolprice",
                  "type": "uint256"
                },
                {
                  "internalType": "uint256",
                  "name": "volume",
                  "type": "uint256"
                },
                {
                  "internalType": "bytes32",
                  "name": "tag",
                  "type": "bytes32"
                },
                {
                  "internalType": "uint256",
                  "name": "category",
                  "type": "uint256"
                },
                {
                  "internalType": "uint256",
                  "name": "trust",
                  "type": "uint256"
                },
                {
                  "internalType": "address",
                  "name": "apprestrict",
                  "type": "address"
                },
                {
                  "internalType": "address",
                  "name": "datasetrestrict",
                  "type": "address"
                },
                {
                  "internalType": "address",
                  "name": "requesterrestrict",
                  "type": "address"
                },
                {
                  "internalType": "bytes32",
                  "name": "salt",
                  "type": "bytes32"
                },
                {
                  "internalType": "bytes",
                  "name": "sign",
                  "type": "bytes"
                }
              ],
              "internalType": "struct IexecLibOrders_v5.WorkerpoolOrder",
              "name": "order",
              "type": "tuple"
            },
            {
              "internalType": "enum IexecLibOrders_v5.OrderOperationEnum",
              "name": "operation",
              "type": "IexecLibOrders_v5.OrderOperationEnum"
            },
            {
              "internalType": "bytes",
              "name": "sign",
              "type": "bytes"
            }
          ],
          "internalType": "struct IexecLibOrders_v5.WorkerpoolOrderOperation",
          "name": "_workerpoolorderoperation",
          "type": "tuple"
        }
      ],
      "name": "hash",
      "outputs": [
        {
          "internalType": "bytes32",
          "name": "",
          "type": "bytes32"
        }
      ],
      "stateMutability": "pure",
      "type": "function",
      "constant": true
    },
    {
      "inputs": [
        {
          "components": [
            {
              "components": [
                {
                  "internalType": "address",
                  "name": "app",
                  "type": "address"
                },
                {
                  "internalType": "uint256",
                  "name": "appprice",
                  "type": "uint256"
                },
                {
                  "internalType": "uint256",
                  "name": "volume",
                  "type": "uint256"
                },
                {
                  "internalType": "bytes32",
                  "name": "tag",
                  "type": "bytes32"
                },
                {
                  "internalType": "address",
                  "name": "datasetrestrict",
                  "type": "address"
                },
                {
                  "internalType": "address",
                  "name": "workerpoolrestrict",
                  "type": "address"
                },
                {
                  "internalType": "address",
                  "name": "requesterrestrict",
                  "type": "address"
                },
                {
                  "internalType": "bytes32",
                  "name": "salt",
                  "type": "bytes32"
                },
                {
                  "internalType": "bytes",
                  "name": "sign",
                  "type": "bytes"
                }
              ],
              "internalType": "struct IexecLibOrders_v5.AppOrder",
              "name": "order",
              "type": "tuple"
            },
            {
              "internalType": "enum IexecLibOrders_v5.OrderOperationEnum",
              "name": "operation",
              "type": "IexecLibOrders_v5.OrderOperationEnum"
            },
            {
              "internalType": "bytes",
              "name": "sign",
              "type": "bytes"
            }
          ],
          "internalType": "struct IexecLibOrders_v5.AppOrderOperation",
          "name": "_apporderoperation",
          "type": "tuple"
        }
      ],
      "name": "hash",
      "outputs": [
        {
          "internalType": "bytes32",
          "name": "",
          "type": "bytes32"
        }
      ],
      "stateMutability": "pure",
      "type": "function",
      "constant": true
    },
    {
      "inputs": [
        {
          "components": [
            {
              "internalType": "string",
              "name": "name",
              "type": "string"
            },
            {
              "internalType": "string",
              "name": "version",
              "type": "string"
            },
            {
              "internalType": "uint256",
              "name": "chainId",
              "type": "uint256"
            },
            {
              "internalType": "address",
              "name": "verifyingContract",
              "type": "address"
            }
          ],
          "internalType": "struct IexecLibOrders_v5.EIP712Domain",
          "name": "_domain",
          "type": "tuple"
        }
      ],
      "name": "hash",
      "outputs": [
        {
          "internalType": "bytes32",
          "name": "domainhash",
          "type": "bytes32"
        }
      ],
      "stateMutability": "pure",
      "type": "function",
      "constant": true
    },
    {
      "inputs": [
        {
          "components": [
            {
              "internalType": "address",
              "name": "app",
              "type": "address"
            },
            {
              "internalType": "uint256",
              "name": "appprice",
              "type": "uint256"
            },
            {
              "internalType": "uint256",
              "name": "volume",
              "type": "uint256"
            },
            {
              "internalType": "bytes32",
              "name": "tag",
              "type": "bytes32"
            },
            {
              "internalType": "address",
              "name": "datasetrestrict",
              "type": "address"
            },
            {
              "internalType": "address",
              "name": "workerpoolrestrict",
              "type": "address"
            },
            {
              "internalType": "address",
              "name": "requesterrestrict",
              "type": "address"
            },
            {
              "internalType": "bytes32",
              "name": "salt",
              "type": "bytes32"
            },
            {
              "internalType": "bytes",
              "name": "sign",
              "type": "bytes"
            }
          ],
          "internalType": "struct IexecLibOrders_v5.AppOrder",
          "name": "_apporder",
          "type": "tuple"
        }
      ],
      "name": "hash",
      "outputs": [
        {
          "internalType": "bytes32",
          "name": "apphash",
          "type": "bytes32"
        }
      ],
      "stateMutability": "pure",
      "type": "function",
      "constant": true
    },
    {
      "inputs": [
        {
          "components": [
            {
              "internalType": "address",
              "name": "app",
              "type": "address"
            },
            {
              "internalType": "uint256",
              "name": "appmaxprice",
              "type": "uint256"
            },
            {
              "internalType": "address",
              "name": "dataset",
              "type": "address"
            },
            {
              "internalType": "uint256",
              "name": "datasetmaxprice",
              "type": "uint256"
            },
            {
              "internalType": "address",
              "name": "workerpool",
              "type": "address"
            },
            {
              "internalType": "uint256",
              "name": "workerpoolmaxprice",
              "type": "uint256"
            },
            {
              "internalType": "address",
              "name": "requester",
              "type": "address"
            },
            {
              "internalType": "uint256",
              "name": "volume",
              "type": "uint256"
            },
            {
              "internalType": "bytes32",
              "name": "tag",
              "type": "bytes32"
            },
            {
              "internalType": "uint256",
              "name": "category",
              "type": "uint256"
            },
            {
              "internalType": "uint256",
              "name": "trust",
              "type": "uint256"
            },
            {
              "internalType": "address",
              "name": "beneficiary",
              "type": "address"
            },
            {
              "internalType": "address",
              "name": "callback",
              "type": "address"
            },
            {
              "internalType": "string",
              "name": "params",
              "type": "string"
            },
            {
              "internalType": "bytes32",
              "name": "salt",
              "type": "bytes32"
            },
            {
              "internalType": "bytes",
              "name": "sign",
              "type": "bytes"
            }
          ],
          "internalType": "struct IexecLibOrders_v5.RequestOrder",
          "name": "_requestorder",
          "type": "tuple"
        }
      ],
      "name": "hash",
      "outputs": [
        {
          "internalType": "bytes32",
          "name": "requesthash",
          "type": "bytes32"
        }
      ],
      "stateMutability": "pure",
      "type": "function",
      "constant": true
    },
    {
      "inputs": [
        {
          "components": [
            {
              "internalType": "address",
              "name": "workerpool",
              "type": "address"
            },
            {
              "internalType": "uint256",
              "name": "workerpoolprice",
              "type": "uint256"
            },
            {
              "internalType": "uint256",
              "name": "volume",
              "type": "uint256"
            },
            {
              "internalType": "bytes32",
              "name": "tag",
              "type": "bytes32"
            },
            {
              "internalType": "uint256",
              "name": "category",
              "type": "uint256"
            },
            {
              "internalType": "uint256",
              "name": "trust",
              "type": "uint256"
            },
            {
              "internalType": "address",
              "name": "apprestrict",
              "type": "address"
            },
            {
              "internalType": "address",
              "name": "datasetrestrict",
              "type": "address"
            },
            {
              "internalType": "address",
              "name": "requesterrestrict",
              "type": "address"
            },
            {
              "internalType": "bytes32",
              "name": "salt",
              "type": "bytes32"
            },
            {
              "internalType": "bytes",
              "name": "sign",
              "type": "bytes"
            }
          ],
          "internalType": "struct IexecLibOrders_v5.WorkerpoolOrder",
          "name": "_workerpoolorder",
          "type": "tuple"
        }
      ],
      "name": "hash",
      "outputs": [
        {
          "internalType": "bytes32",
          "name": "workerpoolhash",
          "type": "bytes32"
        }
      ],
      "stateMutability": "pure",
      "type": "function",
      "constant": true
    }
  ],
  "bytecode": "0x610f46610026600b82828239805160001a60731461001957fe5b30600052607381538281f3fe73000000000000000000000000000000000000000030146080604052600436106101205760003560e01c8063735f5619116100ac5780639a6f72ee1161007b5780639a6f72ee146101fb578063b75cdd5314610203578063c49f91d31461020b578063c4b7bfc314610213578063fed985fe1461021b57610120565b8063735f5619146101ba57806374147c4d146101c25780637c0d54d3146101d55780638ac03f33146101e857610120565b806359b123db116100f357806359b123db1461017c5780635b559f6a1461018457806365db1dbb146101975780636cf30b8b1461019f5780636f84d2da146101b257610120565b806311b2eee214610125578063207dbbfe1461014e57806320aabe53146101565780634118eb9814610169575b600080fd5b610138610133366004610aba565b61022e565b6040516101459190610d79565b60405180910390f35b6101386102ac565b610138610164366004610b95565b6102d0565b610138610177366004610a80565b610315565b610138610345565b610138610192366004610c66565b610369565b610138610399565b6101386101ad366004610a80565b6103bd565b6101386103ed565b610138610411565b6101386101d0366004610aec565b610435565b6101386101e3366004610aba565b610491565b6101386101f6366004610c34565b6104f2565b6101386105c0565b6101386105e4565b610138610608565b61013861062c565b610138610229366004610cc4565b610650565b80516020808301516040808501516060860151608087015160a088015160c089015160e08a0151955160009961028f997f6cfc932a5a3d22c4359295b9f433edff52b60703fa47690a04a83e40933dd47c9991989197969594939201610dbd565b604051602081830303815290604052805190602001209050919050565b7f60815a0eeec47dddf1615fe53b31d016c31444e01b9d796db365443a6445d00881565b80516000907f0ded7b52c2d77595a40d242eca751df172b18e686326dbbed3f4748828af77c790610300906104f2565b60208085015160405161028f94939201610e94565b80516000907f075eb6f7578ff4292c241bd2484cd5c1d5e6ecc2ddd3317e1d8176b5a45865ec906103009061022e565b7f322d980b7d7a6a1f7c39ff0c5445da6ae1d8e0393ff0dd468c8be3e2c864438881565b80516000907f322d980b7d7a6a1f7c39ff0c5445da6ae1d8e0393ff0dd468c8be3e2c86443889061030090610650565b7faa3429fb281b34691803133d3d978a75bb77c617ed6bc9aa162b9b30920022bb81565b80516000907f0638bb0702457e2b4b01be8a202579b8bf97e587fb4f2cc4d4aad01f21a06ee09061030090610491565b7f6cfc932a5a3d22c4359295b9f433edff52b60703fa47690a04a83e40933dd47c81565b7f0ded7b52c2d77595a40d242eca751df172b18e686326dbbed3f4748828af77c781565b60007f8b73c3c69bb8fe3d512ecc4cf759cc79239f7b179b0ffacaa9a75d522b39400f60001b8260000151805190602001208360200151805190602001208460400151856060015160405160200161028f959493929190610e68565b80516020808301516040808501516060860151608087015160a088015160c089015160e08a0151955160009961028f997f60815a0eeec47dddf1615fe53b31d016c31444e01b9d796db365443a6445d0089991989197969594939201610dbd565b80516020808301516040808501516060860151608087015160a08801519351600097610547977ff24e853034a3a450aba845a82914fbb564ad85accca6cf62be112a154520fae0979196919594939201610d82565b60408051601f198184030181529082905260c084015160e08501516101008601516101208701516101408801516101608901516101808a01516101a08b015180516020918201206101c08d0151999a6105a29a919201610d25565b60408051601f198184030181529082905261028f9291602001610cf6565b7ff24e853034a3a450aba845a82914fbb564ad85accca6cf62be112a154520fae081565b7f0638bb0702457e2b4b01be8a202579b8bf97e587fb4f2cc4d4aad01f21a06ee081565b7f8b73c3c69bb8fe3d512ecc4cf759cc79239f7b179b0ffacaa9a75d522b39400f81565b7f075eb6f7578ff4292c241bd2484cd5c1d5e6ecc2ddd3317e1d8176b5a45865ec81565b80516020808301516040808501516060860151608087015160a088015160c089015160e08a01516101008b01516101208c0151975160009b61028f9b7faa3429fb281b34691803133d3d978a75bb77c617ed6bc9aa162b9b30920022bb9b919a91999897969594939201610e0b565b80356001600160a01b03811681146106d657600080fd5b92915050565b600082601f8301126106ec578081fd5b81356001600160401b03811115610701578182fd5b610714601f8201601f1916602001610eba565b915080825283602082850101111561072b57600080fd5b8060208401602084013760009082016020015292915050565b8035600281106106d657600080fd5b600060608284031215610764578081fd5b61076e6060610eba565b905081356001600160401b038082111561078757600080fd5b610793858386016107dc565b835260208401359150600282106107a957600080fd5b81602084015260408401359150808211156107c357600080fd5b506107d0848285016106dc565b60408301525092915050565b60006101208083850312156107ef578182fd5b6107f881610eba565b91505061080583836106bf565b815260208201356020820152604082013560408201526060820135606082015261083283608084016106bf565b60808201526108448360a084016106bf565b60a08201526108568360c084016106bf565b60c082015260e082013560e0820152610100808301356001600160401b0381111561088057600080fd5b61088c858286016106dc565b82840152505092915050565b60006102008083850312156108ab578182fd5b6108b481610eba565b9150506108c183836106bf565b8152602082013560208201526108da83604084016106bf565b6040820152606082013560608201526108f683608084016106bf565b608082015260a082013560a08201526109128360c084016106bf565b60c082015260e08281013590820152610100808301359082015261012080830135908201526101408083013590820152610160610951848285016106bf565b90820152610180610964848483016106bf565b908201526101a0828101356001600160401b038082111561098457600080fd5b610990868387016106dc565b838501526101c0925082850135838501526101e09250828501359150808211156109b957600080fd5b5061088c858286016106dc565b60006101608083850312156109d9578182fd5b6109e281610eba565b9150506109ef83836106bf565b81526020820135602082015260408201356040820152606082013560608201526080820135608082015260a082013560a0820152610a308360c084016106bf565b60c0820152610a428360e084016106bf565b60e0820152610100610a56848285016106bf565b908201526101208281013590820152610140808301356001600160401b0381111561088057600080fd5b600060208284031215610a91578081fd5b81356001600160401b03811115610aa6578182fd5b610ab284828501610753565b949350505050565b600060208284031215610acb578081fd5b81356001600160401b03811115610ae0578182fd5b610ab2848285016107dc565b600060208284031215610afd578081fd5b81356001600160401b0380821115610b13578283fd5b9083019060808286031215610b26578283fd5b610b306080610eba565b823582811115610b3e578485fd5b610b4a878286016106dc565b825250602083013582811115610b5e578485fd5b610b6a878286016106dc565b60208301525060408301356040820152610b8786606085016106bf565b606082015295945050505050565b600060208284031215610ba6578081fd5b81356001600160401b0380821115610bbc578283fd5b9083019060608286031215610bcf578283fd5b610bd96060610eba565b823582811115610be7578485fd5b610bf387828601610898565b825250610c038660208501610744565b6020820152604083013582811115610c19578485fd5b610c25878286016106dc565b60408301525095945050505050565b600060208284031215610c45578081fd5b81356001600160401b03811115610c5a578182fd5b610ab284828501610898565b600060208284031215610c77578081fd5b81356001600160401b0380821115610c8d578283fd5b9083019060608286031215610ca0578283fd5b610caa6060610eba565b823582811115610cb8578485fd5b610bf3878286016109c6565b600060208284031215610cd5578081fd5b81356001600160401b03811115610cea578182fd5b610ab2848285016109c6565b60008351610d08818460208801610ee0565b835190830190610d1c818360208801610ee0565b01949350505050565b6001600160a01b03998a1681526020810198909852604088019690965260608701949094526080860192909252851660a085015290931660c083015260e08201929092526101008101919091526101200190565b90815260200190565b9687526001600160a01b03958616602088015260408701949094529184166060860152608085015290911660a083015260c082015260e00190565b9889526001600160a01b0397881660208a0152604089019690965260608801949094526080870192909252841660a0860152831660c085015290911660e08301526101008201526101200190565b9a8b526001600160a01b03998a1660208c015260408b019890985260608a0196909652608089019490945260a088019290925260c0870152841660e086015283166101008501529091166101208301526101408201526101600190565b9485526020850193909352604084019190915260608301526001600160a01b0316608082015260a00190565b838152602081018390526060810160028310610eac57fe5b826040830152949350505050565b6040518181016001600160401b0381118282101715610ed857600080fd5b604052919050565b60005b83811015610efb578181015183820152602001610ee3565b83811115610f0a576000848401525b5050505056fea26469706673582212200e980a0aad85d468e546922728bcd26d5b1da7dec0164d1f0176e3c53946526864736f6c634300060c0033",
  "immutableReferences": {},
  "source": "// SPDX-License-Identifier: Apache-2.0\r\n\r\n/******************************************************************************\r\n * Copyright 2020 IEXEC BLOCKCHAIN TECH                                       *\r\n *                                                                            *\r\n * Licensed under the Apache License, Version 2.0 (the \"License\");            *\r\n * you may not use this file except in compliance with the License.           *\r\n * You may obtain a copy of the License at                                    *\r\n *                                                                            *\r\n *     http://www.apache.org/licenses/LICENSE-2.0                             *\r\n *                                                                            *\r\n * Unless required by applicable law or agreed to in writing, software        *\r\n * distributed under the License is distributed on an \"AS IS\" BASIS,          *\r\n * WITHOUT WARRANTIES OR CONDITIONS OF ANY KIND, either express or implied.   *\r\n * See the License for the specific language governing permissions and        *\r\n * limitations under the License.                                             *\r\n ******************************************************************************/\r\n\r\npragma solidity ^0.6.0;\r\npragma experimental ABIEncoderV2;\r\n\r\n\r\nlibrary IexecLibOrders_v5\r\n{\r\n\t// bytes32 public constant             EIP712DOMAIN_TYPEHASH = keccak256('EIP712Domain(string name,string version,uint256 chainId,address verifyingContract)');\r\n\t// bytes32 public constant                 APPORDER_TYPEHASH = keccak256('AppOrder(address app,uint256 appprice,uint256 volume,bytes32 tag,address datasetrestrict,address workerpoolrestrict,address requesterrestrict,bytes32 salt)');\r\n\t// bytes32 public constant             DATASETORDER_TYPEHASH = keccak256('DatasetOrder(address dataset,uint256 datasetprice,uint256 volume,bytes32 tag,address apprestrict,address workerpoolrestrict,address requesterrestrict,bytes32 salt)');\r\n\t// bytes32 public constant          WORKERPOOLORDER_TYPEHASH = keccak256('WorkerpoolOrder(address workerpool,uint256 workerpoolprice,uint256 volume,bytes32 tag,uint256 category,uint256 trust,address apprestrict,address datasetrestrict,address requesterrestrict,bytes32 salt)');\r\n\t// bytes32 public constant             REQUESTORDER_TYPEHASH = keccak256('RequestOrder(address app,uint256 appmaxprice,address dataset,uint256 datasetmaxprice,address workerpool,uint256 workerpoolmaxprice,address requester,uint256 volume,bytes32 tag,uint256 category,uint256 trust,address beneficiary,address callback,string params,bytes32 salt)');\r\n\t// bytes32 public constant        APPORDEROPERATION_TYPEHASH = keccak256('AppOrderOperation(AppOrder order,uint256 operation)AppOrder(address app,uint256 appprice,uint256 volume,bytes32 tag,address datasetrestrict,address workerpoolrestrict,address requesterrestrict,bytes32 salt)');\r\n\t// bytes32 public constant    DATASETORDEROPERATION_TYPEHASH = keccak256('DatasetOrderOperation(DatasetOrder order,uint256 operation)DatasetOrder(address dataset,uint256 datasetprice,uint256 volume,bytes32 tag,address apprestrict,address workerpoolrestrict,address requesterrestrict,bytes32 salt)');\r\n\t// bytes32 public constant WORKERPOOLORDEROPERATION_TYPEHASH = keccak256('WorkerpoolOrderOperation(WorkerpoolOrder order,uint256 operation)WorkerpoolOrder(address workerpool,uint256 workerpoolprice,uint256 volume,bytes32 tag,uint256 category,uint256 trust,address apprestrict,address datasetrestrict,address requesterrestrict,bytes32 salt)');\r\n\t// bytes32 public constant    REQUESTORDEROPERATION_TYPEHASH = keccak256('RequestOrderOperation(RequestOrder order,uint256 operation)RequestOrder(address app,uint256 appmaxprice,address dataset,uint256 datasetmaxprice,address workerpool,uint256 workerpoolmaxprice,address requester,uint256 volume,bytes32 tag,uint256 category,uint256 trust,address beneficiary,address callback,string params,bytes32 salt)');\r\n\tbytes32 public constant             EIP712DOMAIN_TYPEHASH = 0x8b73c3c69bb8fe3d512ecc4cf759cc79239f7b179b0ffacaa9a75d522b39400f;\r\n\tbytes32 public constant                 APPORDER_TYPEHASH = 0x60815a0eeec47dddf1615fe53b31d016c31444e01b9d796db365443a6445d008;\r\n\tbytes32 public constant             DATASETORDER_TYPEHASH = 0x6cfc932a5a3d22c4359295b9f433edff52b60703fa47690a04a83e40933dd47c;\r\n\tbytes32 public constant          WORKERPOOLORDER_TYPEHASH = 0xaa3429fb281b34691803133d3d978a75bb77c617ed6bc9aa162b9b30920022bb;\r\n\tbytes32 public constant             REQUESTORDER_TYPEHASH = 0xf24e853034a3a450aba845a82914fbb564ad85accca6cf62be112a154520fae0;\r\n\tbytes32 public constant        APPORDEROPERATION_TYPEHASH = 0x0638bb0702457e2b4b01be8a202579b8bf97e587fb4f2cc4d4aad01f21a06ee0;\r\n\tbytes32 public constant    DATASETORDEROPERATION_TYPEHASH = 0x075eb6f7578ff4292c241bd2484cd5c1d5e6ecc2ddd3317e1d8176b5a45865ec;\r\n\tbytes32 public constant WORKERPOOLORDEROPERATION_TYPEHASH = 0x322d980b7d7a6a1f7c39ff0c5445da6ae1d8e0393ff0dd468c8be3e2c8644388;\r\n\tbytes32 public constant    REQUESTORDEROPERATION_TYPEHASH = 0x0ded7b52c2d77595a40d242eca751df172b18e686326dbbed3f4748828af77c7;\r\n\r\n\tenum OrderOperationEnum\r\n\t{\r\n\t\tSIGN,\r\n\t\tCLOSE\r\n\t}\r\n\r\n\tstruct EIP712Domain\r\n\t{\r\n\t\tstring  name;\r\n\t\tstring  version;\r\n\t\tuint256 chainId;\r\n\t\taddress verifyingContract;\r\n\t}\r\n\r\n\tstruct AppOrder\r\n\t{\r\n\t\taddress app;\r\n\t\tuint256 appprice;\r\n\t\tuint256 volume;\r\n\t\tbytes32 tag;\r\n\t\taddress datasetrestrict;\r\n\t\taddress workerpoolrestrict;\r\n\t\taddress requesterrestrict;\r\n\t\tbytes32 salt;\r\n\t\tbytes   sign;\r\n\t}\r\n\r\n\tstruct DatasetOrder\r\n\t{\r\n\t\taddress dataset;\r\n\t\tuint256 datasetprice;\r\n\t\tuint256 volume;\r\n\t\tbytes32 tag;\r\n\t\taddress apprestrict;\r\n\t\taddress workerpoolrestrict;\r\n\t\taddress requesterrestrict;\r\n\t\tbytes32 salt;\r\n\t\tbytes   sign;\r\n\t}\r\n\r\n\tstruct WorkerpoolOrder\r\n\t{\r\n\t\taddress workerpool;\r\n\t\tuint256 workerpoolprice;\r\n\t\tuint256 volume;\r\n\t\tbytes32 tag;\r\n\t\tuint256 category;\r\n\t\tuint256 trust;\r\n\t\taddress apprestrict;\r\n\t\taddress datasetrestrict;\r\n\t\taddress requesterrestrict;\r\n\t\tbytes32 salt;\r\n\t\tbytes   sign;\r\n\t}\r\n\r\n\tstruct RequestOrder\r\n\t{\r\n\t\taddress app;\r\n\t\tuint256 appmaxprice;\r\n\t\taddress dataset;\r\n\t\tuint256 datasetmaxprice;\r\n\t\taddress workerpool;\r\n\t\tuint256 workerpoolmaxprice;\r\n\t\taddress requester;\r\n\t\tuint256 volume;\r\n\t\tbytes32 tag;\r\n\t\tuint256 category;\r\n\t\tuint256 trust;\r\n\t\taddress beneficiary;\r\n\t\taddress callback;\r\n\t\tstring  params;\r\n\t\tbytes32 salt;\r\n\t\tbytes   sign;\r\n\t}\r\n\r\n\tstruct AppOrderOperation\r\n\t{\r\n\t\tAppOrder           order;\r\n\t\tOrderOperationEnum operation;\r\n\t\tbytes              sign;\r\n\t}\r\n\r\n\tstruct DatasetOrderOperation\r\n\t{\r\n\t\tDatasetOrder       order;\r\n\t\tOrderOperationEnum operation;\r\n\t\tbytes              sign;\r\n\t}\r\n\r\n\tstruct WorkerpoolOrderOperation\r\n\t{\r\n\t\tWorkerpoolOrder    order;\r\n\t\tOrderOperationEnum operation;\r\n\t\tbytes              sign;\r\n\t}\r\n\r\n\tstruct RequestOrderOperation\r\n\t{\r\n\t\tRequestOrder       order;\r\n\t\tOrderOperationEnum operation;\r\n\t\tbytes              sign;\r\n\t}\r\n\r\n\tfunction hash(EIP712Domain memory _domain)\r\n\tpublic pure returns (bytes32 domainhash)\r\n\t{\r\n\t\t/**\r\n\t\t * Readeable but expensive\r\n\t\t */\r\n\t\treturn keccak256(abi.encode(\r\n\t\t\tEIP712DOMAIN_TYPEHASH\r\n\t\t,\tkeccak256(bytes(_domain.name))\r\n\t\t,\tkeccak256(bytes(_domain.version))\r\n\t\t,\t_domain.chainId\r\n\t\t,\t_domain.verifyingContract\r\n\t\t));\r\n\t}\r\n\r\n\tfunction hash(AppOrder memory _apporder)\r\n\tpublic pure returns (bytes32 apphash)\r\n\t{\r\n\t\t/**\r\n\t\t * Readeable but expensive\r\n\t\t */\r\n\t\treturn keccak256(abi.encode(\r\n\t\t\tAPPORDER_TYPEHASH\r\n\t\t,\t_apporder.app\r\n\t\t,\t_apporder.appprice\r\n\t\t,\t_apporder.volume\r\n\t\t,\t_apporder.tag\r\n\t\t,\t_apporder.datasetrestrict\r\n\t\t,\t_apporder.workerpoolrestrict\r\n\t\t,\t_apporder.requesterrestrict\r\n\t\t,\t_apporder.salt\r\n\t\t));\r\n\t}\r\n\r\n\tfunction hash(DatasetOrder memory _datasetorder)\r\n\tpublic pure returns (bytes32 datasethash)\r\n\t{\r\n\t\t/**\r\n\t\t * Readeable but expensive\r\n\t\t */\r\n\t\treturn keccak256(abi.encode(\r\n\t\t\tDATASETORDER_TYPEHASH\r\n\t\t,\t_datasetorder.dataset\r\n\t\t,\t_datasetorder.datasetprice\r\n\t\t,\t_datasetorder.volume\r\n\t\t,\t_datasetorder.tag\r\n\t\t,\t_datasetorder.apprestrict\r\n\t\t,\t_datasetorder.workerpoolrestrict\r\n\t\t,\t_datasetorder.requesterrestrict\r\n\t\t,\t_datasetorder.salt\r\n\t\t));\r\n\t}\r\n\r\n\tfunction hash(WorkerpoolOrder memory _workerpoolorder)\r\n\tpublic pure returns (bytes32 workerpoolhash)\r\n\t{\r\n\t\t/**\r\n\t\t * Readeable but expensive\r\n\t\t */\r\n\t\treturn keccak256(abi.encode(\r\n\t\t\tWORKERPOOLORDER_TYPEHASH\r\n\t\t,\t_workerpoolorder.workerpool\r\n\t\t,\t_workerpoolorder.workerpoolprice\r\n\t\t,\t_workerpoolorder.volume\r\n\t\t,\t_workerpoolorder.tag\r\n\t\t,\t_workerpoolorder.category\r\n\t\t,\t_workerpoolorder.trust\r\n\t\t,\t_workerpoolorder.apprestrict\r\n\t\t,\t_workerpoolorder.datasetrestrict\r\n\t\t,\t_workerpoolorder.requesterrestrict\r\n\t\t,\t_workerpoolorder.salt\r\n\t\t));\r\n\t}\r\n\r\n\tfunction hash(RequestOrder memory _requestorder)\r\n\tpublic pure returns (bytes32 requesthash)\r\n\t{\r\n\t\t/**\r\n\t\t * Readeable but expensive\r\n\t\t */\r\n\t\treturn keccak256(abi.encodePacked(\r\n\t\t\tabi.encode(\r\n\t\t\t\tREQUESTORDER_TYPEHASH\r\n\t\t\t,\t_requestorder.app\r\n\t\t\t,\t_requestorder.appmaxprice\r\n\t\t\t,\t_requestorder.dataset\r\n\t\t\t,\t_requestorder.datasetmaxprice\r\n\t\t\t,\t_requestorder.workerpool\r\n\t\t\t,\t_requestorder.workerpoolmaxprice\r\n\t\t\t),\r\n\t\t\tabi.encode(\r\n\t\t\t\t_requestorder.requester\r\n\t\t\t,\t_requestorder.volume\r\n\t\t\t,\t_requestorder.tag\r\n\t\t\t,\t_requestorder.category\r\n\t\t\t,\t_requestorder.trust\r\n\t\t\t,\t_requestorder.beneficiary\r\n\t\t\t,\t_requestorder.callback\r\n\t\t\t,\tkeccak256(bytes(_requestorder.params))\r\n\t\t\t,\t_requestorder.salt\r\n\t\t\t)\r\n\t\t));\r\n\t}\r\n\r\n\tfunction hash(AppOrderOperation memory _apporderoperation)\r\n\tpublic pure returns (bytes32)\r\n\t{\r\n\t\treturn keccak256(abi.encode(\r\n\t\t\tAPPORDEROPERATION_TYPEHASH\r\n\t\t,\thash(_apporderoperation.order)\r\n\t\t,\t_apporderoperation.operation\r\n\t\t));\r\n\t}\r\n\r\n\tfunction hash(DatasetOrderOperation memory _datasetorderoperation)\r\n\tpublic pure returns (bytes32)\r\n\t{\r\n\t\treturn keccak256(abi.encode(\r\n\t\t\tDATASETORDEROPERATION_TYPEHASH\r\n\t\t,\thash(_datasetorderoperation.order)\r\n\t\t,\t_datasetorderoperation.operation\r\n\t\t));\r\n\t}\r\n\r\n\tfunction hash(WorkerpoolOrderOperation memory _workerpoolorderoperation)\r\n\tpublic pure returns (bytes32)\r\n\t{\r\n\t\treturn keccak256(abi.encode(\r\n\t\t\tWORKERPOOLORDEROPERATION_TYPEHASH\r\n\t\t,\thash(_workerpoolorderoperation.order)\r\n\t\t,\t_workerpoolorderoperation.operation\r\n\t\t));\r\n\t}\r\n\r\n\tfunction hash(RequestOrderOperation memory _requestorderoperation)\r\n\tpublic pure returns (bytes32)\r\n\t{\r\n\t\treturn keccak256(abi.encode(\r\n\t\t\tREQUESTORDEROPERATION_TYPEHASH\r\n\t\t,\thash(_requestorderoperation.order)\r\n\t\t,\t_requestorderoperation.operation\r\n\t\t));\r\n\t}\r\n}\r\n",
  "sourcePath": "D:\\iexec\\PoCo\\contracts\\libs\\IexecLibOrders_v5.sol",
  "compiler": {
    "name": "solc",
    "version": "0.6.12+commit.27d51765.Emscripten.clang"
  },
  "schemaVersion": "3.4.3",
  "updatedAt": "2021-08-31T16:42:43.579Z",
  "networkType": "ethereum",
  "devdoc": {
    "kind": "dev",
    "methods": {},
    "version": 1
  },
  "userdoc": {
    "kind": "user",
    "methods": {},
    "version": 1
  }
}