{
  "contractName": "IexecPoco1DelegateKYC",
  "abi": [
    {
      "anonymous": false,
      "inputs": [
        {
          "indexed": true,
          "internalType": "address",
          "name": "owner",
          "type": "address"
        },
        {
          "indexed": true,
          "internalType": "address",
          "name": "spender",
          "type": "address"
        },
        {
          "indexed": false,
          "internalType": "uint256",
          "name": "value",
          "type": "uint256"
        }
      ],
      "name": "Approval",
      "type": "event"
    },
    {
      "anonymous": false,
      "inputs": [
        {
          "indexed": false,
          "internalType": "address",
          "name": "owner",
          "type": "address"
        },
        {
          "indexed": false,
          "internalType": "uint256",
          "name": "amount",
          "type": "uint256"
        }
      ],
      "name": "Lock",
      "type": "event"
    },
    {
      "anonymous": false,
      "inputs": [
        {
          "indexed": false,
          "internalType": "bytes32",
          "name": "dealid",
          "type": "bytes32"
        },
        {
          "indexed": false,
          "internalType": "bytes32",
          "name": "appHash",
          "type": "bytes32"
        },
        {
          "indexed": false,
          "internalType": "bytes32",
          "name": "datasetHash",
          "type": "bytes32"
        },
        {
          "indexed": false,
          "internalType": "bytes32",
          "name": "workerpoolHash",
          "type": "bytes32"
        },
        {
          "indexed": false,
          "internalType": "bytes32",
          "name": "requestHash",
          "type": "bytes32"
        },
        {
          "indexed": false,
          "internalType": "uint256",
          "name": "volume",
          "type": "uint256"
        }
      ],
      "name": "OrdersMatched",
      "type": "event"
    },
    {
      "anonymous": false,
      "inputs": [
        {
          "indexed": true,
          "internalType": "address",
          "name": "previousOwner",
          "type": "address"
        },
        {
          "indexed": true,
          "internalType": "address",
          "name": "newOwner",
          "type": "address"
        }
      ],
      "name": "OwnershipTransferred",
      "type": "event"
    },
    {
      "anonymous": false,
      "inputs": [
        {
          "indexed": false,
          "internalType": "address",
          "name": "owner",
          "type": "address"
        },
        {
          "indexed": false,
          "internalType": "uint256",
          "name": "amount",
          "type": "uint256"
        },
        {
          "indexed": false,
          "internalType": "bytes32",
          "name": "ref",
          "type": "bytes32"
        }
      ],
      "name": "Reward",
      "type": "event"
    },
    {
      "anonymous": false,
      "inputs": [
        {
          "indexed": true,
          "internalType": "address",
          "name": "workerpool",
          "type": "address"
        },
        {
          "indexed": false,
          "internalType": "bytes32",
          "name": "dealid",
          "type": "bytes32"
        }
      ],
      "name": "SchedulerNotice",
      "type": "event"
    },
    {
      "anonymous": false,
      "inputs": [
        {
          "indexed": false,
          "internalType": "address",
          "name": "owner",
          "type": "address"
        },
        {
          "indexed": false,
          "internalType": "uint256",
          "name": "amount",
          "type": "uint256"
        },
        {
          "indexed": false,
          "internalType": "bytes32",
          "name": "ref",
          "type": "bytes32"
        }
      ],
      "name": "Seize",
      "type": "event"
    },
    {
      "anonymous": false,
      "inputs": [
        {
          "indexed": true,
          "internalType": "address",
          "name": "from",
          "type": "address"
        },
        {
          "indexed": true,
          "internalType": "address",
          "name": "to",
          "type": "address"
        },
        {
          "indexed": false,
          "internalType": "uint256",
          "name": "value",
          "type": "uint256"
        }
      ],
      "name": "Transfer",
      "type": "event"
    },
    {
      "anonymous": false,
      "inputs": [
        {
          "indexed": false,
          "internalType": "address",
          "name": "owner",
          "type": "address"
        },
        {
          "indexed": false,
          "internalType": "uint256",
          "name": "amount",
          "type": "uint256"
        }
      ],
      "name": "Unlock",
      "type": "event"
    },
    {
      "inputs": [
        {
          "components": [
            {
              "internalType": "address",
              "name": "app",
              "type": "address"
            },
            {
              "internalType": "uint256",
              "name": "appprice",
              "type": "uint256"
            },
            {
              "internalType": "uint256",
              "name": "volume",
              "type": "uint256"
            },
            {
              "internalType": "bytes32",
              "name": "tag",
              "type": "bytes32"
            },
            {
              "internalType": "address",
              "name": "datasetrestrict",
              "type": "address"
            },
            {
              "internalType": "address",
              "name": "workerpoolrestrict",
              "type": "address"
            },
            {
              "internalType": "address",
              "name": "requesterrestrict",
              "type": "address"
            },
            {
              "internalType": "bytes32",
              "name": "salt",
              "type": "bytes32"
            },
            {
              "internalType": "bytes",
              "name": "sign",
              "type": "bytes"
            }
          ],
          "internalType": "struct IexecLibOrders_v5.AppOrder",
          "name": "_apporder",
          "type": "tuple"
        },
        {
          "components": [
            {
              "internalType": "address",
              "name": "dataset",
              "type": "address"
            },
            {
              "internalType": "uint256",
              "name": "datasetprice",
              "type": "uint256"
            },
            {
              "internalType": "uint256",
              "name": "volume",
              "type": "uint256"
            },
            {
              "internalType": "bytes32",
              "name": "tag",
              "type": "bytes32"
            },
            {
              "internalType": "address",
              "name": "apprestrict",
              "type": "address"
            },
            {
              "internalType": "address",
              "name": "workerpoolrestrict",
              "type": "address"
            },
            {
              "internalType": "address",
              "name": "requesterrestrict",
              "type": "address"
            },
            {
              "internalType": "bytes32",
              "name": "salt",
              "type": "bytes32"
            },
            {
              "internalType": "bytes",
              "name": "sign",
              "type": "bytes"
            }
          ],
          "internalType": "struct IexecLibOrders_v5.DatasetOrder",
          "name": "_datasetorder",
          "type": "tuple"
        },
        {
          "components": [
            {
              "internalType": "address",
              "name": "workerpool",
              "type": "address"
            },
            {
              "internalType": "uint256",
              "name": "workerpoolprice",
              "type": "uint256"
            },
            {
              "internalType": "uint256",
              "name": "volume",
              "type": "uint256"
            },
            {
              "internalType": "bytes32",
              "name": "tag",
              "type": "bytes32"
            },
            {
              "internalType": "uint256",
              "name": "category",
              "type": "uint256"
            },
            {
              "internalType": "uint256",
              "name": "trust",
              "type": "uint256"
            },
            {
              "internalType": "address",
              "name": "apprestrict",
              "type": "address"
            },
            {
              "internalType": "address",
              "name": "datasetrestrict",
              "type": "address"
            },
            {
              "internalType": "address",
              "name": "requesterrestrict",
              "type": "address"
            },
            {
              "internalType": "bytes32",
              "name": "salt",
              "type": "bytes32"
            },
            {
              "internalType": "bytes",
              "name": "sign",
              "type": "bytes"
            }
          ],
          "internalType": "struct IexecLibOrders_v5.WorkerpoolOrder",
          "name": "_workerpoolorder",
          "type": "tuple"
        },
        {
          "components": [
            {
              "internalType": "address",
              "name": "app",
              "type": "address"
            },
            {
              "internalType": "uint256",
              "name": "appmaxprice",
              "type": "uint256"
            },
            {
              "internalType": "address",
              "name": "dataset",
              "type": "address"
            },
            {
              "internalType": "uint256",
              "name": "datasetmaxprice",
              "type": "uint256"
            },
            {
              "internalType": "address",
              "name": "workerpool",
              "type": "address"
            },
            {
              "internalType": "uint256",
              "name": "workerpoolmaxprice",
              "type": "uint256"
            },
            {
              "internalType": "address",
              "name": "requester",
              "type": "address"
            },
            {
              "internalType": "uint256",
              "name": "volume",
              "type": "uint256"
            },
            {
              "internalType": "bytes32",
              "name": "tag",
              "type": "bytes32"
            },
            {
              "internalType": "uint256",
              "name": "category",
              "type": "uint256"
            },
            {
              "internalType": "uint256",
              "name": "trust",
              "type": "uint256"
            },
            {
              "internalType": "address",
              "name": "beneficiary",
              "type": "address"
            },
            {
              "internalType": "address",
              "name": "callback",
              "type": "address"
            },
            {
              "internalType": "string",
              "name": "params",
              "type": "string"
            },
            {
              "internalType": "bytes32",
              "name": "salt",
              "type": "bytes32"
            },
            {
              "internalType": "bytes",
              "name": "sign",
              "type": "bytes"
            }
          ],
          "internalType": "struct IexecLibOrders_v5.RequestOrder",
          "name": "_requestorder",
          "type": "tuple"
        }
      ],
      "name": "matchOrders",
      "outputs": [
        {
          "internalType": "bytes32",
          "name": "",
          "type": "bytes32"
        }
      ],
      "stateMutability": "nonpayable",
      "type": "function"
    },
    {
      "inputs": [],
      "name": "owner",
      "outputs": [
        {
          "internalType": "address",
          "name": "",
          "type": "address"
        }
      ],
      "stateMutability": "view",
      "type": "function"
    },
    {
      "inputs": [],
      "name": "renounceOwnership",
      "outputs": [],
      "stateMutability": "nonpayable",
      "type": "function"
    },
    {
      "inputs": [
        {
          "internalType": "address",
          "name": "newOwner",
          "type": "address"
        }
      ],
      "name": "transferOwnership",
      "outputs": [],
      "stateMutability": "nonpayable",
      "type": "function"
    },
    {
      "inputs": [
        {
          "internalType": "address",
          "name": "_identity",
          "type": "address"
        },
        {
          "internalType": "bytes32",
          "name": "_hash",
          "type": "bytes32"
        }
      ],
      "name": "verifyPresignature",
      "outputs": [
        {
          "internalType": "bool",
          "name": "",
          "type": "bool"
        }
      ],
      "stateMutability": "view",
      "type": "function"
    },
    {
      "inputs": [
        {
          "internalType": "address",
          "name": "_identity",
          "type": "address"
        },
        {
          "internalType": "bytes32",
          "name": "_hash",
          "type": "bytes32"
        },
        {
          "internalType": "bytes",
          "name": "_signature",
          "type": "bytes"
        }
      ],
      "name": "verifyPresignatureOrSignature",
      "outputs": [
        {
          "internalType": "bool",
          "name": "",
          "type": "bool"
        }
      ],
      "stateMutability": "view",
      "type": "function"
    },
    {
      "inputs": [
        {
          "internalType": "address",
          "name": "_identity",
          "type": "address"
        },
        {
          "internalType": "bytes32",
          "name": "_hash",
          "type": "bytes32"
        },
        {
          "internalType": "bytes",
          "name": "_signature",
          "type": "bytes"
        }
      ],
      "name": "verifySignature",
      "outputs": [
        {
          "internalType": "bool",
          "name": "",
          "type": "bool"
        }
      ],
      "stateMutability": "view",
      "type": "function"
    }
  ],
  "bytecode": "0x60806040523480156200001157600080fd5b5060006200001e62000067565b600080546001600160a01b0319166001600160a01b03831690811782556040519293509160008051602062002ed0833981519152908290a350620000616200006b565b6200011c565b3390565b6200007562000067565b6000546001600160a01b03908116911614620000ae5760405162461bcd60e51b8152600401620000a590620000e7565b60405180910390fd5b600080546040516001600160a01b039091169060008051602062002ed0833981519152908390a3600080546001600160a01b0319169055565b6020808252818101527f4f776e61626c653a2063616c6c6572206973206e6f7420746865206f776e6572604082015260600190565b612da4806200012c6000396000f3fe608060405234801561001057600080fd5b506004361061007d5760003560e01c80638da5cb5b1161005b5780638da5cb5b146100d5578063bf36994e146100ea578063c87b582a146100fd578063f2fde38b146101105761007d565b80630175199814610082578063156194d4146100ab578063715018a6146100cb575b600080fd5b610095610090366004611efb565b610123565b6040516100a29190612285565b60405180910390f35b6100be6100b9366004611fdf565b61016f565b6040516100a29190612290565b6100d3611208565b005b6100dd611287565b6040516100a29190612258565b6100956100f8366004611efb565b611296565b61009561010b366004611ed0565b6112d9565b6100d361011e366004611e98565b6112ee565b6000610166858585858080601f0160208091040260200160405190810160405280939291908181526020018383808284376000920191909152506113a492505050565b95945050505050565b60008082610100015185606001518760600151171790508360800151836101200151146101b75760405162461bcd60e51b81526004016101ae906125cc565b60405180910390fd5b601c54610120840151106101dd5760405162461bcd60e51b81526004016101ae90612595565b8360a0015183610140015111156102065760405162461bcd60e51b81526004016101ae9061274d565b85602001518360200151101561022e5760405162461bcd60e51b81526004016101ae90612967565b8460200151836060015110156102565760405162461bcd60e51b81526004016101ae90612671565b83602001518360a00151101561027e5760405162461bcd60e51b81526004016101ae90612527565b6060840151198116156102a35760405162461bcd60e51b81526004016101ae906126a8565b6060860151811860f81b600160f81b16156102d05760405162461bcd60e51b81526004016101ae9061255e565b855183516001600160a01b039081169116146102fe5760405162461bcd60e51b81526004016101ae90612930565b84600001516001600160a01b031683604001516001600160a01b0316146103375760405162461bcd60e51b81526004016101ae90612405565b60808301516001600160a01b0316158061036057506103608360800151856000015160046114ae565b61037c5760405162461bcd60e51b81526004016101ae90612a88565b60808601516001600160a01b031615806103a557506103a58660800151866000015160046114ae565b6103c15760405162461bcd60e51b81526004016101ae906124f0565b60a08601516001600160a01b031615806103ea57506103ea8660a00151856000015160046114ae565b6104065760405162461bcd60e51b81526004016101ae906127bb565b60c08601516001600160a01b0316158061042f575061042f8660c001518460c0015160046114ae565b61044b5760405162461bcd60e51b81526004016101ae90612a1a565b60808501516001600160a01b0316158061047457506104748560800151876000015160046114ae565b6104905760405162461bcd60e51b81526004016101ae906127f2565b60a08501516001600160a01b031615806104b957506104b98560a00151856000015160046114ae565b6104d55760405162461bcd60e51b81526004016101ae90612b2d565b60c08501516001600160a01b031615806104fe57506104fe8560c001518460c0015160046114ae565b61051a5760405162461bcd60e51b81526004016101ae90612860565b60c08401516001600160a01b0316158061054357506105438460c00151876000015160046114ae565b61055f5760405162461bcd60e51b81526004016101ae9061231d565b60e08401516001600160a01b0316158061058857506105888460e00151866000015160046114ae565b6105a45760405162461bcd60e51b81526004016101ae90612603565b6101008401516001600160a01b031615806105cf57506105cf8461010001518460c0015160046114ae565b6105eb5760405162461bcd60e51b81526004016101ae9061263a565b6105f3611b42565b85516001600160a01b03161515610160820152604051637c0d54d360e01b81526106999073__IexecLibOrders_v5_____________________90637c0d54d390610641908b90600401612b64565b60206040518083038186803b15801561065957600080fd5b505af415801561066d573d6000803e3d6000fd5b505050506040513d601f19601f820116820180604052508101906106919190611f9f565b601054611559565b808252805160209182012081830152875160408051638da5cb5b60e01b815290516001600160a01b0390921692638da5cb5b92600480840193829003018186803b1580156106e657600080fd5b505afa1580156106fa573d6000803e3d6000fd5b505050506040513d601f19601f8201168201806040525081019061071e9190611eb4565b6001600160a01b039081166040808401919091526005548951915163c3c5a54760e01b815292169163c3c5a5479161075891600401612258565b60206040518083038186803b15801561077057600080fd5b505afa158015610784573d6000803e3d6000fd5b505050506040513d601f19601f820116820180604052508101906107a89190611f7f565b6107c45760405162461bcd60e51b81526004016101ae90612829565b6107dc81604001518260000151896101000151611585565b6107f85760405162461bcd60e51b81526004016101ae90612a51565b61080581604001516115a9565b6108215760405162461bcd60e51b81526004016101ae90612af6565b806101600151156109f4576040516308d9777160e11b81526108679073__IexecLibOrders_v5_____________________906311b2eee290610641908a90600401612b64565b6060820181905280516020918201206080830152865160408051638da5cb5b60e01b815290516001600160a01b0390921692638da5cb5b92600480840193829003018186803b1580156108b957600080fd5b505afa1580156108cd573d6000803e3d6000fd5b505050506040513d601f19601f820116820180604052508101906108f19190611eb4565b6001600160a01b0390811660a0830152600654875160405163c3c5a54760e01b8152919092169163c3c5a5479161092b9190600401612258565b60206040518083038186803b15801561094357600080fd5b505afa158015610957573d6000803e3d6000fd5b505050506040513d601f19601f8201168201806040525081019061097b9190611f7f565b6109975760405162461bcd60e51b81526004016101ae906124b9565b6109af8160a001518260600151886101000151611585565b6109cb5760405162461bcd60e51b81526004016101ae90612354565b6109d88160a001516115a9565b6109f45760405162461bcd60e51b81526004016101ae90612abf565b604051637f6cc2ff60e11b8152610a2f9073__IexecLibOrders_v5_____________________9063fed985fe90610641908990600401612c87565b60c08201819052805160209182012060e0830152855160408051638da5cb5b60e01b815290516001600160a01b0390921692638da5cb5b92600480840193829003018186803b158015610a8157600080fd5b505afa158015610a95573d6000803e3d6000fd5b505050506040513d601f19601f82011682018060405250810190610ab99190611eb4565b6001600160a01b03908116610100830152600754865160405163c3c5a54760e01b8152919092169163c3c5a54791610af49190600401612258565b60206040518083038186803b158015610b0c57600080fd5b505afa158015610b20573d6000803e3d6000fd5b505050506040513d601f19601f82011682018060405250810190610b449190611f7f565b610b605760405162461bcd60e51b81526004016101ae90612716565b610b798161010001518260c00151876101400151611585565b610b955760405162461bcd60e51b81526004016101ae9061243c565b610ba38161010001516115a9565b610bbf5760405162461bcd60e51b81526004016101ae906123ce565b604051638ac03f3360e01b8152610bfa9073__IexecLibOrders_v5_____________________90638ac03f3390610641908890600401612b77565b61012082018190528051602082012061014083015260c08501516101e0860151610c249290611585565b610c405760405162461bcd60e51b81526004016101ae906126df565b610c4d8460c001516115a9565b610c695760405162461bcd60e51b81526004016101ae906128f9565b6020808201516000908152601290915260408082205490890151610c8c916115b4565b9050816101600151610c9e5780610ccd565b6080820151600090815260126020526040908190205490880151610ccd91610cc691906115b4565b82906115c9565b60e0830151600090815260126020526040908190205490880151919250610cf791610cc6916115b4565b61014083015160009081526012602052604090205460e0870151919250610d2191610cc6916115b4565b905060008111610d435760405162461bcd60e51b81526004016101ae90612784565b61014082015160008181526012602090815260408083205490519293610d6b9390920161222f565b60408051808303601f1901815291815281516020928301206000818152601384528290208c5181546001600160a01b03199081166001600160a01b03928316178355938801516001830180548616918316919091179055938d0151600282015560a087015160048201805485169186169190911790558b51600382018054909416941693909317909155610160850151909250610e09576000610e0f565b88602001515b600582015587516006820180546001600160a01b039283166001600160a01b03199182161790915561010086015160078401805491909316911617905560208801516008820155610140870151610e679060016115df565b6009820155610120870151600a820155600b810185905560c0870151600c820180546001600160a01b039283166001600160a01b031991821617909155610160890151600d84018054918416918316919091179055610180890151600e840180549190931691161790556101a08701518051610eed91600f840191602090910190611ba5565b504260108201556101408401516000908152601260208181526040928390205460118501559083018590558951825163b55e75af60e01b81529251610f9c936001600160a01b039092169263b55e75af9260048082019391829003018186803b158015610f5957600080fd5b505afa158015610f6d573d6000803e3d6000fd5b505050506040513d601f19601f82011682018060405250810190610f919190611f9f565b60208a0151906115ef565b816013018190555087600001516001600160a01b03166387639c686040518163ffffffff1660e01b815260040160206040518083038186803b158015610fe157600080fd5b505afa158015610ff5573d6000803e3d6000fd5b505050506040513d601f19601f820116820180604052508101906110199190611f9f565b601482015560208085015160009081526012909152604090205461103d90846115fd565b60208086015160009081526012909152604090205561016084015161108390611067576000611069565b835b6080860151600090815260126020526040902054906115fd565b60808501516000908152601260205260408082209290925560e0860151815220546110ae90846115fd565b60e085015160009081526012602052604080822092909255610140860151815220546110da90846115fd565b610140850151600090815260126020526040902055600c810154600882015460058301546002840154611137936001600160a01b03169261113292889261112c929161112691906115fd565b906115fd565b9061160f565b611636565b60078101546008820154611160916001600160a01b03169061113290869061112c90601e6115ef565b60068101546040516001600160a01b03909116907f692ad61076dceddd0f1a861f737553dd61fc8501cf4190d29c4e90af6607f765906111a1908590612290565b60405180910390a27fd811b592ed0899225773e8933d8df64bd0b62761a9d7aad4ed5b22735f4610a482856020015186608001518760e00151886101400151886040516111f396959493929190612299565b60405180910390a15098975050505050505050565b6112106116be565b6000546001600160a01b0390811691161461123d5760405162461bcd60e51b81526004016101ae906128c4565b600080546040516001600160a01b03909116907f8be0079c531659141344cd1fd0a4f28419497f9722a3daafe3b4186f6b6457e0908390a3600080546001600160a01b0319169055565b6000546001600160a01b031690565b6000610166858585858080601f0160208091040260200160405190810160405280939291908181526020018383808284376000920191909152506116c292505050565b60006112e583836116df565b90505b92915050565b6112f66116be565b6000546001600160a01b039081169116146113235760405162461bcd60e51b81526004016101ae906128c4565b6001600160a01b0381166113495760405162461bcd60e51b81526004016101ae90612473565b600080546040516001600160a01b03808516939216917f8be0079c531659141344cd1fd0a4f28419497f9722a3daafe3b4186f6b6457e091a3600080546001600160a01b0319166001600160a01b0392909216919091179055565b60006113af84611715565b1561148657604051630b135d3f60e11b81526001600160a01b03851690631626ba7e906113e290869086906004016122c1565b60206040518083038186803b1580156113fa57600080fd5b505afa92505050801561142a575060408051601f3d908101601f1916820190925261142791810190611fb7565b60015b611464573d808015611458576040519150601f19603f3d011682016040523d82523d6000602084013e61145d565b606091505b505061147e565b6001600160e01b031916630b135d3f60e11b1490506114a7565b5060006114a7565b836001600160a01b031661149a848461174e565b6001600160a01b03161490505b9392505050565b6000826001600160a01b0316846001600160a01b031614806115515750836001600160a01b031663d202158d6114e385611858565b846040518363ffffffff1660e01b815260040161150192919061222f565b60206040518083038186803b15801561151957600080fd5b505afa15801561152d573d6000803e3d6000fd5b505050506040513d601f19601f820116820180604052508101906115519190611f7f565b949350505050565b6060818360405160200161156e92919061223d565b604051602081830303815290604052905092915050565b60006115988484805190602001206116df565b806115515750611551848484611864565b60006112e88261198d565b6000828211156115c357600080fd5b50900390565b60008183106115d857816112e5565b5090919050565b6000818310156115d857816112e5565b60006112e583836064611a0e565b6000828201838110156112e557600080fd5b60008261161e575060006112e8565b8282028284828161162b57fe5b04146112e557600080fd5b611641823083611a23565b6001600160a01b0382166000908152600e602052604090205461166490826115fd565b6001600160a01b0383166000908152600e60205260409081902091909155517f625fed9875dada8643f2418b838ae0bc78d9a148a18eee4ee1979ff0f3f5d427906116b2908490849061226c565b60405180910390a15050565b3390565b60006116ce84846116df565b8061155157506115518484846113a4565b60006001600160a01b038316158015906112e55750506000908152601160205260409020546001600160a01b0390811691161490565b6000813f7fc5d2460186f7233c927e7db2dcc703c0e500b653ca82273b7bfad8045d85a470818114801590611551575050151592915050565b6000806000808451604114156117785750505060208201516040830151606084015160001a6117bd565b8451604014156117a557505050602082015160408301516001600160ff1b0381169060001a60071c6117bd565b60405162461bcd60e51b81526004016101ae906129e3565b601b8160ff1610156117cd57601b015b8060ff16601b14806117e257508060ff16601c145b6117fe5760405162461bcd60e51b81526004016101ae90612897565b6001868285856040516000815260200160405260405161182194939291906122da565b6020604051602081039080840390855afa158015611843573d6000803e3d6000fd5b5050604051601f190151979650505050505050565b6001600160a01b031690565b600061186f84611715565b15611972576040516320c13b0b60e01b81526001600160a01b038516906320c13b0b906118a290869086906004016122f8565b60206040518083038186803b1580156118ba57600080fd5b505afa9250505080156118ea575060408051601f3d908101601f191682019092526118e791810190611fb7565b60015b611924573d808015611918576040519150601f19603f3d011682016040523d82523d6000602084013e61191d565b606091505b505061193e565b6001600160e01b0319166320c13b0b60e01b1490506114a7565b82516020840120604051630b135d3f60e11b81526001600160a01b03861691631626ba7e916113e2919086906004016122c1565b836001600160a01b031661149a84805190602001208461174e565b6008546040516313289ea360e31b81526000916001600160a01b031690639944f518906119be908590600401612258565b60206040518083038186803b1580156119d657600080fd5b505afa1580156119ea573d6000803e3d6000fd5b505050506040513d601f19601f820116820180604052508101906112e89190611f7f565b6000611551611a1d858561160f565b83611b20565b6001600160a01b038316611a495760405162461bcd60e51b81526004016101ae9061299e565b6001600160a01b038216611a6f5760405162461bcd60e51b81526004016101ae9061238b565b6001600160a01b0383166000908152600d6020526040902054611a9290826115b4565b6001600160a01b038085166000908152600d60205260408082209390935590841681522054611ac190826115fd565b6001600160a01b038084166000818152600d602052604090819020939093559151908516907fddf252ad1be2c89b69c2b068fc378daa952ba7f163c4a11628f55a4df523b3ef90611b13908590612290565b60405180910390a3505050565b6000808211611b2e57600080fd5b6000828481611b3957fe5b04949350505050565b604080516101808101825260608082526000602083018190529282018390528082018190526080820183905260a0820183905260c0820181905260e082018390526101008201839052610120820152610140810182905261016081019190915290565b828054600181600116156101000203166002900490600052602060002090601f016020900481019282601f10611be657805160ff1916838001178555611c13565b82800160010185558215611c13579182015b82811115611c13578251825591602001919060010190611bf8565b50611c1f929150611c23565b5090565b5b80821115611c1f5760008155600101611c24565b80356112e881612d56565b600082601f830112611c53578081fd5b813567ffffffffffffffff811115611c69578182fd5b611c7c601f8201601f1916602001612d2f565b9150808252836020828501011115611c9357600080fd5b8060208401602084013760009082016020015292915050565b6000610120808385031215611cbf578182fd5b611cc881612d2f565b915050611cd58383611c38565b8152602082013560208201526040820135604082015260608201356060820152611d028360808401611c38565b6080820152611d148360a08401611c38565b60a0820152611d268360c08401611c38565b60c082015260e082013560e08201526101008083013567ffffffffffffffff811115611d5157600080fd5b611d5d85828601611c43565b82840152505092915050565b6000610200808385031215611d7c578182fd5b611d8581612d2f565b915050611d928383611c38565b815260208201356020820152611dab8360408401611c38565b604082015260608201356060820152611dc78360808401611c38565b608082015260a082013560a0820152611de38360c08401611c38565b60c082015260e08281013590820152610100808301359082015261012080830135908201526101408083013590820152610160611e2284828501611c38565b90820152610180611e3584848301611c38565b908201526101a08281013567ffffffffffffffff80821115611e5657600080fd5b611e6286838701611c43565b838501526101c0925082850135838501526101e0925082850135915080821115611e8b57600080fd5b50611d5d85828601611c43565b600060208284031215611ea9578081fd5b81356112e581612d56565b600060208284031215611ec5578081fd5b81516112e581612d56565b60008060408385031215611ee2578081fd5b8235611eed81612d56565b946020939093013593505050565b60008060008060608587031215611f10578182fd5b8435611f1b81612d56565b935060208501359250604085013567ffffffffffffffff80821115611f3e578384fd5b818701915087601f830112611f51578384fd5b813581811115611f5f578485fd5b886020828501011115611f70578485fd5b95989497505060200194505050565b600060208284031215611f90578081fd5b815180151581146112e5578182fd5b600060208284031215611fb0578081fd5b5051919050565b600060208284031215611fc8578081fd5b81516001600160e01b0319811681146112e5578182fd5b60008060008060808587031215611ff4578182fd5b843567ffffffffffffffff8082111561200b578384fd5b61201788838901611cac565b9550602087013591508082111561202c578384fd5b61203888838901611cac565b9450604087013591508082111561204d578384fd5b818701915061016080838a031215612063578485fd5b61206c81612d2f565b90506120788984611c38565b81526020830135602082015260408301356040820152606083013560608201526080830135608082015260a083013560a08201526120b98960c08501611c38565b60c08201526120cb8960e08501611c38565b60e08201526101006120df8a828601611c38565b9082015261012083810135908201526101408084013583811115612101578687fd5b61210d8b828701611c43565b82840152505080945050606087013591508082111561212a578283fd5b5061213787828801611d69565b91505092959194509250565b6001600160a01b03169052565b60008151808452815b8181101561217557602081850181015186830182015201612159565b818111156121865782602083870101525b50601f01601f19169290920160200192915050565b600061012060018060a01b03835116845260208301516020850152604083015160408501526060830151606085015260808301516121dc6080860182612143565b5060a08301516121ef60a0860182612143565b5060c083015161220260c0860182612143565b5060e083015160e085015261010080840151828287015261222583870182612150565b9695505050505050565b918252602082015260400190565b61190160f01b81526002810192909252602282015260420190565b6001600160a01b0391909116815260200190565b6001600160a01b03929092168252602082015260400190565b901515815260200190565b90815260200190565b958652602086019490945260408501929092526060840152608083015260a082015260c00190565b6000838252604060208301526115516040830184612150565b93845260ff9290921660208401526040830152606082015260800190565b60006040825261230b6040830185612150565b82810360208401526101668185612150565b60208082526018908201527f694578656356352d6d617463684f72646572732d307831390000000000000000604082015260600190565b60208082526018908201527f694578656356352d6d617463684f72646572732d307833310000000000000000604082015260600190565b60208082526023908201527f45524332303a207472616e7366657220746f20746865207a65726f206164647260408201526265737360e81b606082015260800190565b60208082526018908201527f694578656356352d6d617463684f72646572732d307834320000000000000000604082015260600190565b60208082526018908201527f694578656356352d6d617463684f72646572732d307831310000000000000000604082015260600190565b60208082526018908201527f694578656356352d6d617463684f72646572732d307834310000000000000000604082015260600190565b60208082526026908201527f4f776e61626c653a206e6577206f776e657220697320746865207a65726f206160408201526564647265737360d01b606082015260800190565b60208082526018908201527f694578656356352d6d617463684f72646572732d307833300000000000000000604082015260600190565b60208082526018908201527f694578656356352d6d617463684f72646572732d307831330000000000000000604082015260600190565b60208082526018908201527f694578656356352d6d617463684f72646572732d307830350000000000000000604082015260600190565b60208082526018908201527f694578656356352d6d617463684f72646572732d307830370000000000000000604082015260600190565b60208082526018908201527f694578656356352d6d617463684f72646572732d307830310000000000000000604082015260600190565b60208082526018908201527f694578656356352d6d617463684f72646572732d307830300000000000000000604082015260600190565b60208082526018908201527f694578656356352d6d617463684f72646572732d307831610000000000000000604082015260600190565b60208082526018908201527f694578656356352d6d617463684f72646572732d307831620000000000000000604082015260600190565b60208082526018908201527f694578656356352d6d617463684f72646572732d307830340000000000000000604082015260600190565b60208082526018908201527f694578656356352d6d617463684f72646572732d307830360000000000000000604082015260600190565b60208082526018908201527f694578656356352d6d617463684f72646572732d307835300000000000000000604082015260600190565b60208082526018908201527f694578656356352d6d617463684f72646572732d307834300000000000000000604082015260600190565b60208082526018908201527f694578656356352d6d617463684f72646572732d307830320000000000000000604082015260600190565b60208082526018908201527f694578656356352d6d617463684f72646572732d307836300000000000000000604082015260600190565b60208082526018908201527f694578656356352d6d617463684f72646572732d307831340000000000000000604082015260600190565b60208082526018908201527f694578656356352d6d617463684f72646572732d307831360000000000000000604082015260600190565b60208082526018908201527f694578656356352d6d617463684f72646572732d307832300000000000000000604082015260600190565b60208082526018908201527f694578656356352d6d617463684f72646572732d307831380000000000000000604082015260600190565b60208082526013908201527234b73b30b634b216b9b4b3b730ba3ab93296bb60691b604082015260600190565b6020808252818101527f4f776e61626c653a2063616c6c6572206973206e6f7420746865206f776e6572604082015260600190565b60208082526018908201527f694578656356352d6d617463684f72646572732d307835310000000000000000604082015260600190565b60208082526018908201527f694578656356352d6d617463684f72646572732d307831300000000000000000604082015260600190565b60208082526018908201527f694578656356352d6d617463684f72646572732d307830330000000000000000604082015260600190565b60208082526025908201527f45524332303a207472616e736665722066726f6d20746865207a65726f206164604082015264647265737360d81b606082015260800190565b60208082526018908201527f696e76616c69642d7369676e61747572652d666f726d61740000000000000000604082015260600190565b60208082526018908201527f694578656356352d6d617463684f72646572732d307831350000000000000000604082015260600190565b60208082526018908201527f694578656356352d6d617463684f72646572732d307832310000000000000000604082015260600190565b60208082526018908201527f694578656356352d6d617463684f72646572732d307831320000000000000000604082015260600190565b60208082526018908201527f694578656356352d6d617463684f72646572732d307833320000000000000000604082015260600190565b60208082526018908201527f694578656356352d6d617463684f72646572732d307832320000000000000000604082015260600190565b60208082526018908201527f694578656356352d6d617463684f72646572732d307831370000000000000000604082015260600190565b6000602082526112e5602083018461219b565b600060208252612b8b602083018451612143565b602083015160408301526040830151612ba76060840182612143565b50606083015160808301526080830151612bc460a0840182612143565b5060a083015160c083015260c0830151612be160e0840182612143565b5060e083015161010083810191909152830151610120808401919091528301516101408084019190915283015161016080840191909152830151610180612c2a81850183612143565b84015190506101a0612c3e84820183612143565b808501519150506102006101c08181860152612c5e610220860184612150565b908601516101e086810191909152860151858203601f1901838701529092506122258382612150565b600060208252612c9b602083018451612143565b602083015160408301526040830151606083015260608301516080830152608083015160a083015260a083015160c083015260c0830151612cdf60e0840182612143565b5060e0830151610100612cf481850183612143565b8401519050610120612d0884820183612143565b84015161014084810191909152840151610160808501529050611551610180840182612150565b60405181810167ffffffffffffffff81118282101715612d4e57600080fd5b604052919050565b6001600160a01b0381168114612d6b57600080fd5b5056fea2646970667358221220b0bb131e9b1c0e12836b68db6d06ed0e9b742ef4740596c4aa7c8b6ee0b725c364736f6c634300060c00338be0079c531659141344cd1fd0a4f28419497f9722a3daafe3b4186f6b6457e0",
  "immutableReferences": {},
  "source": "// SPDX-License-Identifier: Apache-2.0\r\n\r\n/******************************************************************************\r\n * Copyright 2020 IEXEC BLOCKCHAIN TECH                                       *\r\n *                                                                            *\r\n * Licensed under the Apache License, Version 2.0 (the \"License\");            *\r\n * you may not use this file except in compliance with the License.           *\r\n * You may obtain a copy of the License at                                    *\r\n *                                                                            *\r\n *     http://www.apache.org/licenses/LICENSE-2.0                             *\r\n *                                                                            *\r\n * Unless required by applicable law or agreed to in writing, software        *\r\n * distributed under the License is distributed on an \"AS IS\" BASIS,          *\r\n * WITHOUT WARRANTIES OR CONDITIONS OF ANY KIND, either express or implied.   *\r\n * See the License for the specific language governing permissions and        *\r\n * limitations under the License.                                             *\r\n ******************************************************************************/\r\n\r\npragma solidity ^0.6.0;\r\npragma experimental ABIEncoderV2;\r\n\r\nimport \"./IexecPoco1Delegate.sol\";\r\nimport \"./IexecERC20CoreKYC.sol\";\r\n\r\n\r\ncontract IexecPoco1DelegateKYC is IexecPoco1Delegate, IexecERC20CoreKYC\r\n{\r\n\tfunction _beforeTokenTransfer(address from, address to, uint256 amount)\r\n\tinternal virtual override(IexecERC20Core, IexecERC20CoreKYC)\r\n\t{\r\n\t\tIexecERC20CoreKYC._beforeTokenTransfer(from, to, amount);\r\n\t}\r\n\r\n\tfunction _isAuthorized(address account)\r\n\tinternal virtual override(IexecERC20Core, IexecERC20CoreKYC) returns (bool)\r\n\t{\r\n\t\treturn IexecERC20CoreKYC._isAuthorized(account);\r\n\t}\r\n}\r\n",
  "sourcePath": "D:\\iexec\\PoCo\\contracts\\modules\\delegates\\IexecPoco1DelegateKYC.sol",
  "compiler": {
    "name": "solc",
    "version": "0.6.12+commit.27d51765.Emscripten.clang"
  },
  "schemaVersion": "3.4.3",
  "updatedAt": "2021-08-31T16:42:43.694Z",
  "networkType": "ethereum",
  "devdoc": {
    "kind": "dev",
    "methods": {
      "owner()": {
        "details": "Returns the address of the current owner."
      },
      "renounceOwnership()": {
        "details": "Leaves the contract without owner. It will not be possible to call `onlyOwner` functions anymore. Can only be called by the current owner. NOTE: Renouncing ownership will leave the contract without an owner, thereby removing any functionality that is only available to the owner."
      },
      "transferOwnership(address)": {
        "details": "Transfers ownership of the contract to a new account (`newOwner`). Can only be called by the current owner."
      }
    },
    "version": 1
  },
  "userdoc": {
    "kind": "user",
    "methods": {},
    "version": 1
  }
}