{
  "contractName": "IexecPoco2DelegateKYC",
  "abi": [
    {
      "anonymous": false,
      "inputs": [
        {
          "indexed": true,
          "internalType": "address",
          "name": "worker",
          "type": "address"
        },
        {
          "indexed": true,
          "internalType": "bytes32",
          "name": "taskid",
          "type": "bytes32"
        }
      ],
      "name": "AccurateContribution",
      "type": "event"
    },
    {
      "anonymous": false,
      "inputs": [
        {
          "indexed": true,
          "internalType": "address",
          "name": "owner",
          "type": "address"
        },
        {
          "indexed": true,
          "internalType": "address",
          "name": "spender",
          "type": "address"
        },
        {
          "indexed": false,
          "internalType": "uint256",
          "name": "value",
          "type": "uint256"
        }
      ],
      "name": "Approval",
      "type": "event"
    },
    {
      "anonymous": false,
      "inputs": [
        {
          "indexed": true,
          "internalType": "address",
          "name": "worker",
          "type": "address"
        },
        {
          "indexed": true,
          "internalType": "bytes32",
          "name": "taskid",
          "type": "bytes32"
        }
      ],
      "name": "FaultyContribution",
      "type": "event"
    },
    {
      "anonymous": false,
      "inputs": [
        {
          "indexed": false,
          "internalType": "address",
          "name": "owner",
          "type": "address"
        },
        {
          "indexed": false,
          "internalType": "uint256",
          "name": "amount",
          "type": "uint256"
        }
      ],
      "name": "Lock",
      "type": "event"
    },
    {
      "anonymous": false,
      "inputs": [
        {
          "indexed": true,
          "internalType": "address",
          "name": "previousOwner",
          "type": "address"
        },
        {
          "indexed": true,
          "internalType": "address",
          "name": "newOwner",
          "type": "address"
        }
      ],
      "name": "OwnershipTransferred",
      "type": "event"
    },
    {
      "anonymous": false,
      "inputs": [
        {
          "indexed": false,
          "internalType": "address",
          "name": "owner",
          "type": "address"
        },
        {
          "indexed": false,
          "internalType": "uint256",
          "name": "amount",
          "type": "uint256"
        },
        {
          "indexed": false,
          "internalType": "bytes32",
          "name": "ref",
          "type": "bytes32"
        }
      ],
      "name": "Reward",
      "type": "event"
    },
    {
      "anonymous": false,
      "inputs": [
        {
          "indexed": false,
          "internalType": "address",
          "name": "owner",
          "type": "address"
        },
        {
          "indexed": false,
          "internalType": "uint256",
          "name": "amount",
          "type": "uint256"
        },
        {
          "indexed": false,
          "internalType": "bytes32",
          "name": "ref",
          "type": "bytes32"
        }
      ],
      "name": "Seize",
      "type": "event"
    },
    {
      "anonymous": false,
      "inputs": [
        {
          "indexed": true,
          "internalType": "bytes32",
          "name": "taskid",
          "type": "bytes32"
        }
      ],
      "name": "TaskClaimed",
      "type": "event"
    },
    {
      "anonymous": false,
      "inputs": [
        {
          "indexed": true,
          "internalType": "bytes32",
          "name": "taskid",
          "type": "bytes32"
        },
        {
          "indexed": false,
          "internalType": "bytes32",
          "name": "consensus",
          "type": "bytes32"
        }
      ],
      "name": "TaskConsensus",
      "type": "event"
    },
    {
      "anonymous": false,
      "inputs": [
        {
          "indexed": true,
          "internalType": "bytes32",
          "name": "taskid",
          "type": "bytes32"
        },
        {
          "indexed": true,
          "internalType": "address",
          "name": "worker",
          "type": "address"
        },
        {
          "indexed": false,
          "internalType": "bytes32",
          "name": "hash",
          "type": "bytes32"
        }
      ],
      "name": "TaskContribute",
      "type": "event"
    },
    {
      "anonymous": false,
      "inputs": [
        {
          "indexed": true,
          "internalType": "bytes32",
          "name": "taskid",
          "type": "bytes32"
        },
        {
          "indexed": false,
          "internalType": "bytes",
          "name": "results",
          "type": "bytes"
        }
      ],
      "name": "TaskFinalize",
      "type": "event"
    },
    {
      "anonymous": false,
      "inputs": [
        {
          "indexed": true,
          "internalType": "bytes32",
          "name": "taskid",
          "type": "bytes32"
        },
        {
          "indexed": true,
          "internalType": "address",
          "name": "workerpool",
          "type": "address"
        }
      ],
      "name": "TaskInitialize",
      "type": "event"
    },
    {
      "anonymous": false,
      "inputs": [
        {
          "indexed": true,
          "internalType": "bytes32",
          "name": "taskid",
          "type": "bytes32"
        }
      ],
      "name": "TaskReopen",
      "type": "event"
    },
    {
      "anonymous": false,
      "inputs": [
        {
          "indexed": true,
          "internalType": "bytes32",
          "name": "taskid",
          "type": "bytes32"
        },
        {
          "indexed": true,
          "internalType": "address",
          "name": "worker",
          "type": "address"
        },
        {
          "indexed": false,
          "internalType": "bytes32",
          "name": "digest",
          "type": "bytes32"
        }
      ],
      "name": "TaskReveal",
      "type": "event"
    },
    {
      "anonymous": false,
      "inputs": [
        {
          "indexed": true,
          "internalType": "address",
          "name": "from",
          "type": "address"
        },
        {
          "indexed": true,
          "internalType": "address",
          "name": "to",
          "type": "address"
        },
        {
          "indexed": false,
          "internalType": "uint256",
          "name": "value",
          "type": "uint256"
        }
      ],
      "name": "Transfer",
      "type": "event"
    },
    {
      "anonymous": false,
      "inputs": [
        {
          "indexed": false,
          "internalType": "address",
          "name": "owner",
          "type": "address"
        },
        {
          "indexed": false,
          "internalType": "uint256",
          "name": "amount",
          "type": "uint256"
        }
      ],
      "name": "Unlock",
      "type": "event"
    },
    {
      "inputs": [
        {
          "internalType": "bytes32",
          "name": "_taskid",
          "type": "bytes32"
        }
      ],
      "name": "claim",
      "outputs": [],
      "stateMutability": "nonpayable",
      "type": "function"
    },
    {
      "inputs": [
        {
          "internalType": "bytes32[]",
          "name": "_taskid",
          "type": "bytes32[]"
        }
      ],
      "name": "claimArray",
      "outputs": [
        {
          "internalType": "bool",
          "name": "",
          "type": "bool"
        }
      ],
      "stateMutability": "nonpayable",
      "type": "function"
    },
    {
      "inputs": [
        {
          "internalType": "bytes32",
          "name": "_taskid",
          "type": "bytes32"
        },
        {
          "internalType": "bytes32",
          "name": "_resultHash",
          "type": "bytes32"
        },
        {
          "internalType": "bytes32",
          "name": "_resultSeal",
          "type": "bytes32"
        },
        {
          "internalType": "address",
          "name": "_enclaveChallenge",
          "type": "address"
        },
        {
          "internalType": "bytes",
          "name": "_enclaveSign",
          "type": "bytes"
        },
        {
          "internalType": "bytes",
          "name": "_authorizationSign",
          "type": "bytes"
        }
      ],
      "name": "contribute",
      "outputs": [],
      "stateMutability": "nonpayable",
      "type": "function"
    },
    {
      "inputs": [
        {
          "internalType": "bytes32",
          "name": "_taskid",
          "type": "bytes32"
        },
        {
          "internalType": "bytes32",
          "name": "_resultDigest",
          "type": "bytes32"
        },
        {
          "internalType": "bytes",
          "name": "_results",
          "type": "bytes"
        },
        {
          "internalType": "bytes",
          "name": "_resultsCallback",
          "type": "bytes"
        },
        {
          "internalType": "address",
          "name": "_enclaveChallenge",
          "type": "address"
        },
        {
          "internalType": "bytes",
          "name": "_enclaveSign",
          "type": "bytes"
        },
        {
          "internalType": "bytes",
          "name": "_authorizationSign",
          "type": "bytes"
        }
      ],
      "name": "contributeAndFinalize",
      "outputs": [],
      "stateMutability": "nonpayable",
      "type": "function"
    },
    {
      "inputs": [
        {
          "internalType": "bytes32",
          "name": "_taskid",
          "type": "bytes32"
        },
        {
          "internalType": "bytes",
          "name": "_results",
          "type": "bytes"
        },
        {
          "internalType": "bytes",
          "name": "_resultsCallback",
          "type": "bytes"
        }
      ],
      "name": "finalize",
      "outputs": [],
      "stateMutability": "nonpayable",
      "type": "function"
    },
    {
      "inputs": [
        {
          "internalType": "bytes32",
          "name": "_dealid",
          "type": "bytes32"
        },
        {
          "internalType": "uint256",
          "name": "idx",
          "type": "uint256"
        }
      ],
      "name": "initialize",
      "outputs": [
        {
          "internalType": "bytes32",
          "name": "",
          "type": "bytes32"
        }
      ],
      "stateMutability": "nonpayable",
      "type": "function"
    },
    {
      "inputs": [
        {
          "internalType": "bytes32[]",
          "name": "_dealid",
          "type": "bytes32[]"
        },
        {
          "internalType": "uint256[]",
          "name": "_idx",
          "type": "uint256[]"
        }
      ],
      "name": "initializeAndClaimArray",
      "outputs": [
        {
          "internalType": "bool",
          "name": "",
          "type": "bool"
        }
      ],
      "stateMutability": "nonpayable",
      "type": "function"
    },
    {
      "inputs": [
        {
          "internalType": "bytes32[]",
          "name": "_dealid",
          "type": "bytes32[]"
        },
        {
          "internalType": "uint256[]",
          "name": "_idx",
          "type": "uint256[]"
        }
      ],
      "name": "initializeArray",
      "outputs": [
        {
          "internalType": "bool",
          "name": "",
          "type": "bool"
        }
      ],
      "stateMutability": "nonpayable",
      "type": "function"
    },
    {
      "inputs": [],
      "name": "owner",
      "outputs": [
        {
          "internalType": "address",
          "name": "",
          "type": "address"
        }
      ],
      "stateMutability": "view",
      "type": "function"
    },
    {
      "inputs": [],
      "name": "renounceOwnership",
      "outputs": [],
      "stateMutability": "nonpayable",
      "type": "function"
    },
    {
      "inputs": [
        {
          "internalType": "bytes32",
          "name": "_taskid",
          "type": "bytes32"
        }
      ],
      "name": "reopen",
      "outputs": [],
      "stateMutability": "nonpayable",
      "type": "function"
    },
    {
      "inputs": [
        {
          "internalType": "bytes32",
          "name": "_taskid",
          "type": "bytes32"
        },
        {
          "internalType": "bytes32",
          "name": "_resultDigest",
          "type": "bytes32"
        }
      ],
      "name": "reveal",
      "outputs": [],
      "stateMutability": "nonpayable",
      "type": "function"
    },
    {
      "inputs": [
        {
          "internalType": "address",
          "name": "newOwner",
          "type": "address"
        }
      ],
      "name": "transferOwnership",
      "outputs": [],
      "stateMutability": "nonpayable",
      "type": "function"
    }
  ],
  "bytecode": "0x60806040523480156200001157600080fd5b5060006200001e62000067565b600080546001600160a01b0319166001600160a01b03831690811782556040519293509160008051602062004084833981519152908290a350620000616200006b565b6200011c565b3390565b6200007562000067565b6000546001600160a01b03908116911614620000ae5760405162461bcd60e51b8152600401620000a590620000e7565b60405180910390fd5b600080546040516001600160a01b039091169060008051602062004084833981519152908390a3600080546001600160a01b0319169055565b6020808252818101527f4f776e61626c653a2063616c6c6572206973206e6f7420746865206f776e6572604082015260600190565b613f58806200012c6000396000f3fe608060405234801561001057600080fd5b50600436106100cf5760003560e01c8063b504681d1161008c578063f6c68e1011610066578063f6c68e101461019b578063f722cb32146101ae578063fa055d7e146101c1578063fc334e8c146101d4576100cf565b8063b504681d14610155578063bd66528a14610175578063f2fde38b14610188576100cf565b806334623484146100d45780635b36c66b146100e95780635facd76114610112578063715018a6146101255780638da5cb5b1461012d5780638fc375e514610142575b600080fd5b6100e76100e236600461398e565b6101e7565b005b6100fc6100f736600461396d565b6106f4565b6040516101099190613cdb565b60405180910390f35b6100e7610120366004613a28565b610a1a565b6100e761100a565b610135611092565b6040516101099190613c82565b6100e7610150366004613af5565b6110a1565b6101686101633660046138cc565b61141c565b6040516101099190613cd0565b6100e7610183366004613955565b611478565b6100e7610196366004613871565b611568565b6100e76101a9366004613955565b61161e565b6101686101bc3660046138cc565b6117f2565b6101686101cf36600461388c565b611838565b6100e76101e236600461396d565b611871565b6101f76101f26119fb565b6119ff565b61020057600080fd5b600086815260146020908152604080832060169092528220909190816102246119fb565b6001600160a01b03166001600160a01b03168152602001908152602001600020905061024e61350c565b60018381015460009081526013602090815260409182902082516102408101845281546001600160a01b039081166101e0830190815283870154821661020084015260028085015461022085015290835285516060808201885260038601548416825260048601548416828801526005860154828901528487019190915286518082018852600686015484168152600786015484168188015260088601548189015284880152600985015490840152600a8401546080840152600b84015460a0840152600c840154821660c0840152600d840154821660e0840152600e84015490911661010080840191909152600f840180548751988116159092026000190190911691909104601f8101859004850287018501909552848652909491936101208601938301828280156103c35780601f10610398576101008083540402835291602001916103c3565b820191906000526020600020905b8154815290600101906020018083116103a657829003601f168201915b50505091835250506010820154602082015260118201546040820152601282015460608201526013820154608082015260149091015460a09091015290506001835460ff16600481111561041357fe5b1461041d57600080fd5b4283600401541161042d57600080fd5b6000825460ff16600381111561043f57fe5b1461044957600080fd5b6001600160a01b03861615158061046e575060a0810151601f1a60f81b600160f81b16155b61047757600080fd5b6104fb6001600160a01b0387161580159061049c5750601a546001600160a01b031615155b6104ae578160400151602001516104bb565b601a546001600160a01b03165b6104f56104c66119fb565b8c8a6040516020016104da93929190613bc0565b60405160208183030381529060405280519060200120611a0a565b86611a33565b61050457600080fd5b6001600160a01b038616158061053557506105358661052f8a8a6040516020016104da929190613c17565b87611a33565b61053e57600080fd5b8154600160ff19909116811783558201889055600282018790556003820180546001600160a01b0319166001600160a01b038816179055600a83016105816119fb565b815460018082018455600093845260209093200180546001600160a01b0319166001600160a01b03929092169190911790558301546105c7906105c26119fb565b611c14565b6105cf6119fb565b6001600160a01b0316897f3fdb8d7797562d49a81078dbf7fa1771958ea452f8b13d1148383bd9506aecfb8a6040516106089190613cdb565b60405180910390a3600089815260156020526040812090610664600161065e6003610658816017876106386119fb565b6001600160a01b0316815260208101919091526040016000205490611c38565b90611c5a565b90611c71565b60008b81526020849052604081205491925061068f8261065e85610689836001611c5a565b90611c86565b905061069a83611cad565b600487015560008c8152602085905260409020546106b89082611e6b565b60008d81526020869052604090205560018401546106d69082611e6b565b60018501556106e58d8d611e7d565b50505050505050505050505050565b60006106fe61350c565b60008481526013602090815260409182902082516102408101845281546001600160a01b039081166101e08301908152600180850154831661020085015260028086015461022086015291845286516060808201895260038701548516825260048701548516828901526005870154828a0152858801919091528751808201895260068701548516815260078701548516818901526008870154818a015285890152600986015490850152600a8501546080850152600b85015460a0850152600c850154831660c0850152600d850154831660e0850152600e85015490921661010080850191909152600f850180548851948116159092026000190190911691909104601f810186900486028301860190965285825291949293610120860193919291908301828280156108735780601f1061084857610100808354040283529160200191610873565b820191906000526020600020905b81548152906001019060200180831161085657829003601f168201915b505050505081526020016010820154815260200160118201548152602001601282015481526020016013820154815260200160148201548152505090508061016001518310156108c257600080fd5b6101808101516101608201516108d791611e6b565b83106108e257600080fd5b600084846040516020016108f7929190613c17565b60408051601f1981840301815291815281516020928301206000818152601490935290822090925090815460ff16600481111561093057fe5b1461093a57600080fd5b805460ff1916600190811782558101869055600281018590556080830151601c8054909190811061096757fe5b600091825260209091206003918202016002015490820181905561014084015161099c91610996906007611c86565b90611e6b565b600482015561014083015160038201546109bc919061099690600a611c86565b6006820155600082815260156020526040808220600190810155848101515190516001600160a01b039091169184917f252992fb0468d68d6a5784ec03214f0d0a362083f2d7ebd157af43b017a22e069190a3509150505b92915050565b610a256101f26119fb565b610a2e57600080fd5b60008781526014602090815260408083206016909252822090919081610a526119fb565b6001600160a01b03166001600160a01b031681526020019081526020016000209050610a7c61350c565b60018381015460009081526013602090815260409182902082516102408101845281546001600160a01b039081166101e0830190815283870154821661020084015260028085015461022085015290835285516060808201885260038601548416825260048601548416828801526005860154828901528487019190915286518082018852600686015484168152600786015484168188015260088601548189015284880152600985015490840152600a8401546080840152600b84015460a0840152600c840154821660c0840152600d840154821660e0840152600e84015490911661010080840191909152600f840180548751988116159092026000190190911691909104601f810185900485028701850190955284865290949193610120860193830182828015610bf15780601f10610bc657610100808354040283529160200191610bf1565b820191906000526020600020905b815481529060010190602001808311610bd457829003601f168201915b50505091835250506010820154602082015260118201546040820152601282015460608201526013820154608082015260149091015460a09091015290506001835460ff166004811115610c4157fe5b14610c4b57600080fd5b42836004015411610c5b57600080fd5b600a83015415610c6a57600080fd5b8060600151600114610c7b57600080fd5b60008a8a604051602001610c90929190613c17565b6040516020818303038152906040528051906020012090506000610cb26119fb565b8c8c604051602001610cc693929190613bed565b60405160208183030381529060405280519060200120905060006001600160a01b03168361010001516001600160a01b0316148015610d0457508851155b80610d185750600b850154895160208b0120145b610d2157600080fd5b6001600160a01b038816151580610d46575060a0830151601f1a60f81b600160f81b16155b610d4f57600080fd5b610db86001600160a01b03891615801590610d745750601a546001600160a01b031615155b610d8657836040015160200151610d93565b601a546001600160a01b03165b610db2610d9e6119fb565b8f8c6040516020016104da93929190613bc0565b88611a33565b610dc157600080fd5b6001600160a01b0388161580610df25750610df288610dec84846040516020016104da929190613c17565b89611a33565b610dfb57600080fd5b8354600260ff199182168117865560018601848155818701849055600380880180546001600160a01b0319166001600160a01b038e1617905588549093168317885554600788015590860154610e5691429161099691611c86565b60058601556001600886018190556009860155600b85018b90558951610e8590600c87019060208d01906135b2565b508851610e9b90600e87019060208c01906135b2565b5084600a01610ea86119fb565b815460018082018455600093845260209093200180546001600160a01b0319166001600160a01b0392909216919091179055850154610ee7908d612014565b610ef08c61219b565b610ef86119fb565b6001600160a01b03168c7f3fdb8d7797562d49a81078dbf7fa1771958ea452f8b13d1148383bd9506aecfb84604051610f319190613cdb565b60405180910390a38b7ff6d49bf3e05d33a4bc497d3c793fb5756388bb96b947cf51bb60aaecb0e022e383604051610f699190613cdb565b60405180910390a2610f796119fb565b6001600160a01b03168c7f4b1763d473ac8fa80b4432ba90047e1b92444d8fabc55e6a002d9b1a316d79598d604051610fb29190613cdb565b60405180910390a38b7f78ce8a8bc0fcb704e8ba3b3dbb36aa88002df8038128b4af2f27ef65db6650448b604051610fea9190613d4a565b60405180910390a2610ffc8c8a612602565b505050505050505050505050565b6110126119fb565b6000546001600160a01b039081169116146110485760405162461bcd60e51b815260040161103f90613e41565b60405180910390fd5b600080546040516001600160a01b03909116907f8be0079c531659141344cd1fd0a4f28419497f9722a3daafe3b4186f6b6457e0908390a3600080546001600160a01b0319169055565b6000546001600160a01b031690565b6000858152601460209081526040808320600101548352601390915290206007015485906001600160a01b03166110d66119fb565b6001600160a01b0316146110e957600080fd5b60008681526014602052604090206110ff61350c565b60018281015460009081526013602090815260409182902082516102408101845281546001600160a01b039081166101e0830190815283870154821661020084015260028085015461022085015290835285516060808201885260038601548416825260048601548416828801526005860154828901528487019190915286518082018852600686015484168152600786015484168188015260088601548189015284880152600985015490840152600a8401546080840152600b84015460a0840152600c840154821660c0840152600d840154821660e0840152600e84015490911661010080840191909152600f840180548751988116159092026000190190911691909104601f8101859004850287018501909552848652909491936101208601938301828280156112745780601f1061124957610100808354040283529160200191611274565b820191906000526020600020905b81548152906001019060200180831161125757829003601f168201915b50505091835250506010820154602082015260118201546040820152601282015460608201526013820154608082015260149091015460a09091015290506002825460ff1660048111156112c457fe5b146112ce57600080fd5b428260060154116112de57600080fd5b816009015482600801541480611307575060008260080154118015611307575042826005015411155b61131057600080fd5b6101008101516001600160a01b031615801561132a575083155b8061134f575081600b01548585604051611345929190613c25565b6040518091039020145b61135857600080fd5b815460ff19166003178255611371600c83018888613630565b50611380600e83018686613630565b5061138f826001015489612014565b611398886126ee565b877f78ce8a8bc0fcb704e8ba3b3dbb36aa88002df8038128b4af2f27ef65db66504488886040516113ca929190613d1b565b60405180910390a26114128886868080601f01602080910402602001604051908101604052809392919081815260200183838082843760009201919091525061260292505050565b5050505050505050565b600083821461142a57600080fd5b60005b8481101561146c5761146386868381811061144457fe5b9050602002013585858481811061145757fe5b905060200201356106f4565b5060010161142d565b50600195945050505050565b60008181526014602052604090206001815460ff16600481111561149857fe5b14806114b357506002815460ff1660048111156114b157fe5b145b6114bc57600080fd5b42816006015411156114cd57600080fd5b805460ff1916600417815560018101546114e79083612d77565b60005b600a82015481101561153857600082600a01828154811061150757fe5b60009182526020909120015460018401546001600160a01b03909116915061152f9082612fe2565b506001016114ea565b5060405182907fcbc308b5f91040d2659a5201858344b0b583cd2f9e18e8470c2fa052c5b21ff890600090a25050565b6115706119fb565b6000546001600160a01b0390811691161461159d5760405162461bcd60e51b815260040161103f90613e41565b6001600160a01b0381166115c35760405162461bcd60e51b815260040161103f90613dce565b600080546040516001600160a01b03808516939216917f8be0079c531659141344cd1fd0a4f28419497f9722a3daafe3b4186f6b6457e091a3600080546001600160a01b0319166001600160a01b0392909216919091179055565b6000818152601460209081526040808320600101548352601390915290206007015481906001600160a01b03166116536119fb565b6001600160a01b03161461166657600080fd5b60008281526014602052604090206002815460ff16600481111561168657fe5b1461169057600080fd5b428160060154116116a057600080fd5b428160050154111580156116b657506008810154155b6116bf57600080fd5b60005b600a82015481101561175857600082600a0182815481106116df57fe5b600091825260208083209091015460078601548884526016835260408085206001600160a01b03909316808652929093529190922060010154919250141561174f5760008581526016602090815260408083206001600160a01b03851684529091529020805460ff191660031790555b506001016116c2565b506000838152601560209081526040808320600785015484529182905290912054600182015461178791611c71565b600182810191909155600783018054600090815260208490526040808220829055855460ff19169093178555908190556005840181905560098401819055905185917f3afe0f24796ce653c6ab1f3e7aba5ce564eece5e82aee724aff28253e829f07b91a250505050565b600083821461180057600080fd5b60005b8481101561146c5761183061018387878481811061181d57fe5b9050602002013586868581811061145757fe5b600101611803565b6000805b828110156118675761185f84848381811061185357fe5b90506020020135611478565b60010161183c565b5060019392505050565b600082815260146020908152604080832060169092528220909190816118956119fb565b6001600160a01b03168152602081019190915260400160002090506002825460ff1660048111156118c257fe5b146118cc57600080fd5b428260050154116118dc57600080fd5b6001815460ff1660038111156118ee57fe5b146118f857600080fd5b816007015481600101541461190c57600080fd5b838360405160200161191f929190613c17565b6040516020818303038152906040528051906020012081600101541461194457600080fd5b61194c6119fb565b848460405160200161196093929190613bed565b6040516020818303038152906040528051906020012081600201541461198557600080fd5b805460ff1916600217815560088201546119a0906001611e6b565b6008830155600b82018390556119b46119fb565b6001600160a01b0316847f4b1763d473ac8fa80b4432ba90047e1b92444d8fabc55e6a002d9b1a316d7959856040516119ed9190613cdb565b60405180910390a350505050565b3390565b6000610a1482613002565b606081604051602001611a1d9190613c51565b6040516020818303038152906040529050919050565b6000611a3e84613083565b15611be5576040516320c13b0b60e01b81526001600160a01b038516906320c13b0b90611a719086908690600401613d5d565b60206040518083038186803b158015611a8957600080fd5b505afa925050508015611ab9575060408051601f3d908101601f19168201909252611ab691810190613b6c565b60015b611af3573d808015611ae7576040519150601f19603f3d011682016040523d82523d6000602084013e611aec565b606091505b5050611b0d565b6001600160e01b0319166320c13b0b60e01b149050611c0d565b82516020840120604051630b135d3f60e11b81526001600160a01b03861691631626ba7e91611b4191908690600401613ce4565b60206040518083038186803b158015611b5957600080fd5b505afa925050508015611b89575060408051601f3d908101601f19168201909252611b8691810190613b6c565b60015b611bc3573d808015611bb7576040519150601f19603f3d011682016040523d82523d6000602084013e611bbc565b606091505b5050611bdd565b6001600160e01b031916630b135d3f60e11b149050611c0d565b506000611c0d565b836001600160a01b0316611c008480519060200120846130bf565b6001600160a01b03161490505b9392505050565b611c348160136000858152602001908152602001600020601301546131c9565b5050565b6000808211611c4657600080fd5b6000828481611c5157fe5b04949350505050565b600081831015611c6a5781611c0d565b5090919050565b600082821115611c8057600080fd5b50900390565b600082611c9557506000610a14565b82820282848281611ca257fe5b0414611c0d57600080fd5b604080517ff8f9cbfae6cc78fbefe7cdc3a1793dfcf4f0e8bbd8cec470b6a28a7a5a3e1efd81527ff5ecf1b3e9debc68e1d9cfabc5997135bfb7a7a3938b7b606b5b4b3f2f1f0ffe60208201527ff6e4ed9ff2d6b458eadcdf97bd91692de2d4da8fd2d0ac50c6ae9a8272523616818301527fc8c0b887b0a8a4489c948c7f847c6125746c645c544c444038302820181008ff60608201527ff7cae577eec2a03cf3bad76fb589591debb2dd67e0aa9834bea6925f6a4a2e0e60808201527fe39ed557db96902cd38ed14fad815115c786af479b7e8324736353433727170760a08201527fc976c13bb96e881cb166a933a55e490d9d56952b8d4e801485467d236242260660c08201527f753a6d1b65325d0c552a4d1345224105391a310b29122104190a11030902010060e0820152610100808201909252600160f81b6001600160801b68010000000000000000640100000000620100006010600460026000198c019081041790810417908104178881041790810417908104179081041790810417017e818283848586878898a8b8c8d8e8f929395969799a9b9d9e9faaeb6bedeeff0281900460ff039091015104600160ff1b909211020190565b600082820183811015611c0d57600080fd5b6000828152601460209081526040808320601583528184206001808301548652601390945291909320600901549091611ec690611ebb908390611c71565b600184015490611c86565b600085815260208490526040902054611edf9083611c86565b111561200d576000805b600a850154811015611f9557600085600a018281548110611f0657fe5b60009182526020808320909101548a83526016825260408084206001600160a01b039092168085529190925291206001015490915087148015611f795750600160008981526016602090815260408083206001600160a01b038616845290915290205460ff166003811115611f7757fe5b145b15611f8c57611f89836001611e6b565b92505b50600101611ee9565b50835460ff191660029081178555600785018690556003850154611fbe91429161099691611c86565b6005850155600060088501556009840181905560405186907ff6d49bf3e05d33a4bc497d3c793fb5756388bb96b947cf51bb60aaecb0e022e390612003908890613cdb565b60405180910390a2505b5050505050565b600082815260136020526040812060088101546005820154600283015492939261204392916109969190611e6b565b600883015490915060009061205990601e613251565b600c840154909150612075906001600160a01b0316838661325f565b60028301541561209d576001830154600284015461209d916001600160a01b031690866132df565b6005830154158015906120bc575060038301546001600160a01b031615155b156120df57600483015460058401546120df916001600160a01b031690866132df565b60078301546120f7906001600160a01b03168261331d565b7399c2268479b93fde36232351229815df80837e23600052600e6020527f0c6541af8a90dc64ec40ead0c49d5d6bd34489a48d08db53d659372ff556a4305480156121935761215981612153633b9aca0061065883600a613251565b90613399565b905061217a7399c2268479b93fde36232351229815df80837e23828761325f565b6007840154612193906001600160a01b031682876132df565b505050505050565b6121a361369e565b6000828152601460205260409081902081516101e081019092528054829060ff1660048111156121cf57fe5b60048111156121da57fe5b8152602001600182015481526020016002820154815260200160038201548152602001600482015481526020016005820154815260200160068201548152602001600782015481526020016008820154815260200160098201548152602001600a820180548060200260200160405190810160405280929190818152602001828054801561229157602002820191906000526020600020905b81546001600160a01b03168152600190910190602001808311612273575b5050509183525050600b820154602080830191909152600c8301805460408051601f6002600019610100600187161502019094169390930492830185900485028101850182528281529401939283018282801561232f5780601f106123045761010080835404028352916020019161232f565b820191906000526020600020905b81548152906001019060200180831161231257829003601f168201915b5050509183525050600d820154602080830191909152600e8301805460408051601f600260001961010060018716150201909416939093049283018590048502810185018252828152940193928301828280156123cd5780601f106123a2576101008083540402835291602001916123cd565b820191906000526020600020905b8154815290600101906020018083116123b057829003601f168201915b50505050508152505090506123e061350c565b60208281015160009081526013825260409081902081516102408101835281546001600160a01b039081166101e08301908152600180850154831661020085015260028086015461022086015291845285516060808201885260038701548516825260048701548516828a0152600587015482890152858901919091528651808201885260068701548516815260078701548516818a015260088701548189015285880152600986015490850152600a8501546080850152600b85015460a0850152600c850154831660c0850152600d850154831660e0850152600e85015490921661010080850191909152600f850180548751948116159092026000190190911691909104601f8101879004870283018701909552848252919492936101208601939192918301828280156125575780601f1061252c57610100808354040283529160200191612557565b820191906000526020600020905b81548152906001019060200180831161253a57829003601f168201915b5050505050815260200160108201548152602001601182015481526020016012820154815260200160138201548152602001601482015481525050905060006125c06125b2836101c001516064611c7190919063ffffffff16565b604080850151015190613251565b905060006125df82846040015160400151611c7190919063ffffffff16565b90506125f36125ec6119fb565b83876133a8565b61200d846020015182876133b3565b600082815260146020908152604080832060010154835260139091529020600e01546001600160a01b031680156126e95760006060826001600160a01b0316601b548686604051602401612657929190613ce4565b60408051601f198184030181529181526020820180516001600160e01b0316635dd8085560e01b1790525161268c9190613c35565b60006040518083038160008787f1925050503d80600081146126ca576040519150601f19603f3d011682016040523d82523d6000602084013e6126cf565b606091505b5091509150603f601b54816126e057fe5b045a1161200d57fe5b505050565b6126f661369e565b6000828152601460205260409081902081516101e081019092528054829060ff16600481111561272257fe5b600481111561272d57fe5b8152602001600182015481526020016002820154815260200160038201548152602001600482015481526020016005820154815260200160068201548152602001600782015481526020016008820154815260200160098201548152602001600a82018054806020026020016040519081016040528092919081815260200182805480156127e457602002820191906000526020600020905b81546001600160a01b031681526001909101906020018083116127c6575b5050509183525050600b820154602080830191909152600c8301805460408051601f600260001961010060018716150201909416939093049283018590048502810185018252828152940193928301828280156128825780601f1061285757610100808354040283529160200191612882565b820191906000526020600020905b81548152906001019060200180831161286557829003601f168201915b5050509183525050600d820154602080830191909152600e8301805460408051601f600260001961010060018716150201909416939093049283018590048502810185018252828152940193928301828280156129205780601f106128f557610100808354040283529160200191612920565b820191906000526020600020905b81548152906001019060200180831161290357829003601f168201915b505050505081525050905061293361350c565b60208281015160009081526013825260409081902081516102408101835281546001600160a01b039081166101e08301908152600180850154831661020085015260028086015461022086015291845285516060808201885260038701548516825260048701548516828a0152600587015482890152858901919091528651808201885260068701548516815260078701548516818a015260088701548189015285880152600986015490850152600a8501546080850152600b85015460a0850152600c850154831660c0850152600d850154831660e0850152600e85015490921661010080850191909152600f850180548751948116159092026000190190911691909104601f810187900487028301870190955284825291949293610120860193919291830182828015612aaa5780601f10612a7f57610100808354040283529160200191612aaa565b820191906000526020600020905b815481529060010190602001808311612a8d57829003601f168201915b50505050508152602001601082015481526020016011820154815260200160128201548152602001601382015481526020016014820154815250509050600080826040015160400151905060005b84610140015151811015612b965760008561014001518281518110612b1957fe5b60209081029190910181015160008981526016835260408082206001600160a01b0384168352909352919091209091506002815460ff166003811115612b5b57fe5b1415612b78576004810154612b71908690611e6b565b9450612b8c565b6101a0860151612b89908590611e6b565b93505b5050600101612af8565b506000612bbc612bb5856101c001516064611c7190919063ffffffff16565b8390613251565b905060005b85610140015151811015612d675760008661014001518281518110612be257fe5b60209081029190910181015160008a81526016835260408082206001600160a01b0384168352909352919091209091506002815460ff166003811115612c2457fe5b1415612ce3576004810154600090612c3e908690896133d9565b9050612c4a8682611c71565b9550612c5a896020015184612fe2565b612c6583828c6133a8565b6001896101400151511115612cdd576001600160a01b038316600090815260176020526040902054612c98906001611e6b565b6001600160a01b0384166000818152601760205260408082209390935591518c927f9703f4589802246c80b822e63697180da799e363cd1b6fd9465a5e5574d5349291a35b50612d5d565b612cf28860200151838b6133ee565b6001600160a01b038216600090815260176020526040902054612d1890600260036133d9565b6001600160a01b0383166000818152601760205260408082209390935591518b927ff868788948d55240774fdbad06555105ef20bbc70d1b7eccda982b65e11e79bb91a35b5050600101612bc1565b50612193856020015183886133b3565b612d7f61350c565b60008381526013602090815260409182902082516102408101845281546001600160a01b039081166101e08301908152600180850154831661020085015260028086015461022086015291845286516060808201895260038701548516825260048701548516828901526005870154828a0152858801919091528751808201895260068701548516815260078701548516818901526008870154818a015285890152600986015490850152600a8501546080850152600b85015460a0850152600c850154831660c0850152600d850154831660e0850152600e85015490921661010080850191909152600f850180548851948116159092026000190190911691909104601f81018690048602830186019096528582529194929361012086019391929190830182828015612ef45780601f10612ec957610100808354040283529160200191612ef4565b820191906000526020600020905b815481529060010190602001808311612ed757829003601f168201915b505050505081526020016010820154815260200160118201548152602001601282015481526020016013820154815260200160148201548152505090506000612f62826040015160400151610996846020015160400151856000015160400151611e6b90919063ffffffff16565b90506000612f82601e84604001516040015161325190919063ffffffff16565b9050612f928360c001518361331d565b612fa5836040015160200151828661325f565b612fc47399c2268479b93fde36232351229815df80837e2382866132df565b61200d7399c2268479b93fde36232351229815df80837e23826131c9565b611c3481601360008581526020019081526020016000206013015461331d565b6008546040516313289ea360e31b81526000916001600160a01b031690639944f51890613033908590600401613c82565b60206040518083038186803b15801561304b57600080fd5b505afa15801561305f573d6000803e3d6000fd5b505050506040513d601f19601f82011682018060405250810190610a149190613935565b6000813f7fc5d2460186f7233c927e7db2dcc703c0e500b653ca82273b7bfad8045d85a4708181148015906130b757508115155b949350505050565b6000806000808451604114156130e95750505060208201516040830151606084015160001a61312e565b84516040141561311657505050602082015160408301516001600160ff1b0381169060001a60071c61312e565b60405162461bcd60e51b815260040161103f90613ebb565b601b8160ff16101561313e57601b015b8060ff16601b148061315357508060ff16601c145b61316f5760405162461bcd60e51b815260040161103f90613e14565b600186828585604051600081526020016040526040516131929493929190613cfd565b6020604051602081039080840390855afa1580156131b4573d6000803e3d6000fd5b5050604051601f190151979650505050505050565b6131d482308361340f565b6001600160a01b0382166000908152600e60205260409020546131f79082611e6b565b6001600160a01b0383166000908152600e60205260409081902091909155517f625fed9875dada8643f2418b838ae0bc78d9a148a18eee4ee1979ff0f3f5d427906132459084908490613c96565b60405180910390a15050565b6000611c0d838360646133d9565b6001600160a01b0383166000908152600e60205260409020546132829083611c71565b6001600160a01b0384166000908152600e60205260409081902091909155517f1bccc549c38561cd5b57f0db11ceb8dde1b0b6ee05ab5e155b51c7c5ba64becb906132d290859085908590613caf565b60405180910390a1505050565b6132ea30848461340f565b7fc2aca55aa696938c7e95842e8939ca0fbb2120a3eeb8948cdcee2b70da5666728383836040516132d293929190613caf565b61332830838361340f565b6001600160a01b0382166000908152600e602052604090205461334b9082611c71565b6001600160a01b0383166000908152600e60205260409081902091909155517f6381d9813cabeb57471b5a7e05078e64845ccdb563146a6911d536f24ce960f1906132459084908490613c96565b6000818310611c6a5781611c0d565b6126e98383836132df565b6000838152601360205260409020600701546126e9906001600160a01b031683836132df565b60006130b76133e88585611c86565b83611c38565b6126e98260136000868152602001908152602001600020601301548361325f565b6001600160a01b0383166134355760405162461bcd60e51b815260040161103f90613e76565b6001600160a01b03821661345b5760405162461bcd60e51b815260040161103f90613d8b565b6001600160a01b0383166000908152600d602052604090205461347e9082611c71565b6001600160a01b038085166000908152600d602052604080822093909355908416815220546134ad9082611e6b565b6001600160a01b038084166000818152600d602052604090819020939093559151908516907fddf252ad1be2c89b69c2b068fc378daa952ba7f163c4a11628f55a4df523b3ef906134ff908590613cdb565b60405180910390a3505050565b604051806101e0016040528061352061371e565b815260200161352d61371e565b815260200161353a61371e565b815260200160008152602001600081526020016000801916815260200160006001600160a01b0316815260200160006001600160a01b0316815260200160006001600160a01b031681526020016060815260200160008152602001600081526020016000815260200160008152602001600081525090565b828054600181600116156101000203166002900490600052602060002090601f016020900481019282601f106135f357805160ff1916838001178555613620565b82800160010185558215613620579182015b82811115613620578251825591602001919060010190613605565b5061362c92915061373e565b5090565b828054600181600116156101000203166002900490600052602060002090601f016020900481019282601f106136715782800160ff19823516178555613620565b82800160010185558215613620579182015b82811115613620578235825591602001919060010190613683565b604080516101e08101909152806000815260200160008019168152602001600081526020016000815260200160008152602001600081526020016000815260200160008019168152602001600081526020016000815260200160608152602001600080191681526020016060815260200160008152602001606081525090565b604080516060810182526000808252602082018190529181019190915290565b5b8082111561362c576000815560010161373f565b80356001600160a01b0381168114610a1457600080fd5b60008083601f84011261377b578182fd5b50813567ffffffffffffffff811115613792578182fd5b60208301915083602080830285010111156137ac57600080fd5b9250929050565b60008083601f8401126137c4578182fd5b50813567ffffffffffffffff8111156137db578182fd5b6020830191508360208285010111156137ac57600080fd5b600082601f830112613803578081fd5b813567ffffffffffffffff8082111561381a578283fd5b604051601f8301601f19168101602001828111828210171561383a578485fd5b60405282815292508284830160200186101561385557600080fd5b8260208601602083013760006020848301015250505092915050565b600060208284031215613882578081fd5b611c0d8383613753565b6000806020838503121561389e578081fd5b823567ffffffffffffffff8111156138b4578182fd5b6138c08582860161376a565b90969095509350505050565b600080600080604085870312156138e1578182fd5b843567ffffffffffffffff808211156138f8578384fd5b6139048883890161376a565b9096509450602087013591508082111561391c578384fd5b506139298782880161376a565b95989497509550505050565b600060208284031215613946578081fd5b81518015158114611c0d578182fd5b600060208284031215613966578081fd5b5035919050565b6000806040838503121561397f578182fd5b50508035926020909101359150565b60008060008060008060c087890312156139a6578182fd5b86359550602087013594506040870135935060608701356001600160a01b03811681146139d1578283fd5b9250608087013567ffffffffffffffff808211156139ed578384fd5b6139f98a838b016137f3565b935060a0890135915080821115613a0e578283fd5b50613a1b89828a016137f3565b9150509295509295509295565b600080600080600080600060e0888a031215613a42578081fd5b8735965060208801359550604088013567ffffffffffffffff80821115613a67578283fd5b613a738b838c016137f3565b965060608a0135915080821115613a88578283fd5b613a948b838c016137f3565b9550613aa38b60808c01613753565b945060a08a0135915080821115613ab8578283fd5b613ac48b838c016137f3565b935060c08a0135915080821115613ad9578283fd5b50613ae68a828b016137f3565b91505092959891949750929550565b600080600080600060608688031215613b0c578081fd5b85359450602086013567ffffffffffffffff80821115613b2a578283fd5b613b3689838a016137b3565b90965094506040880135915080821115613b4e578283fd5b50613b5b888289016137b3565b969995985093965092949392505050565b600060208284031215613b7d578081fd5b81516001600160e01b031981168114611c0d578182fd5b60008151808452613bac816020860160208601613ef2565b601f01601f19169290920160200192915050565b6bffffffffffffffffffffffff19606094851b811682526014820193909352921b16603482015260480190565b60609390931b6bffffffffffffffffffffffff191683526014830191909152603482015260540190565b918252602082015260400190565b6000828483379101908152919050565b60008251613c47818460208701613ef2565b9190910192915050565b7f19457468657265756d205369676e6564204d6573736167653a0a3332000000008152601c810191909152603c0190565b6001600160a01b0391909116815260200190565b6001600160a01b03929092168252602082015260400190565b6001600160a01b039390931683526020830191909152604082015260600190565b901515815260200190565b90815260200190565b6000838252604060208301526130b76040830184613b94565b93845260ff9290921660208401526040830152606082015260800190565b60006020825282602083015282846040840137818301604090810191909152601f909201601f19160101919050565b600060208252611c0d6020830184613b94565b600060408252613d706040830185613b94565b8281036020840152613d828185613b94565b95945050505050565b60208082526023908201527f45524332303a207472616e7366657220746f20746865207a65726f206164647260408201526265737360e81b606082015260800190565b60208082526026908201527f4f776e61626c653a206e6577206f776e657220697320746865207a65726f206160408201526564647265737360d01b606082015260800190565b60208082526013908201527234b73b30b634b216b9b4b3b730ba3ab93296bb60691b604082015260600190565b6020808252818101527f4f776e61626c653a2063616c6c6572206973206e6f7420746865206f776e6572604082015260600190565b60208082526025908201527f45524332303a207472616e736665722066726f6d20746865207a65726f206164604082015264647265737360d81b606082015260800190565b60208082526018908201527f696e76616c69642d7369676e61747572652d666f726d61740000000000000000604082015260600190565b60005b83811015613f0d578181015183820152602001613ef5565b83811115613f1c576000848401525b5050505056fea2646970667358221220e3bc3077444f79133024b49295cee71b55ff928d83a835a3873b5ab9d3ce9b1964736f6c634300060c00338be0079c531659141344cd1fd0a4f28419497f9722a3daafe3b4186f6b6457e0",
  "immutableReferences": {},
  "source": "// SPDX-License-Identifier: Apache-2.0\r\n\r\n/******************************************************************************\r\n * Copyright 2020 IEXEC BLOCKCHAIN TECH                                       *\r\n *                                                                            *\r\n * Licensed under the Apache License, Version 2.0 (the \"License\");            *\r\n * you may not use this file except in compliance with the License.           *\r\n * You may obtain a copy of the License at                                    *\r\n *                                                                            *\r\n *     http://www.apache.org/licenses/LICENSE-2.0                             *\r\n *                                                                            *\r\n * Unless required by applicable law or agreed to in writing, software        *\r\n * distributed under the License is distributed on an \"AS IS\" BASIS,          *\r\n * WITHOUT WARRANTIES OR CONDITIONS OF ANY KIND, either express or implied.   *\r\n * See the License for the specific language governing permissions and        *\r\n * limitations under the License.                                             *\r\n ******************************************************************************/\r\n\r\npragma solidity ^0.6.0;\r\npragma experimental ABIEncoderV2;\r\n\r\nimport \"./IexecPoco2Delegate.sol\";\r\nimport \"./IexecERC20CoreKYC.sol\";\r\n\r\n\r\ncontract IexecPoco2DelegateKYC is IexecPoco2Delegate, IexecERC20CoreKYC\r\n{\r\n\tfunction _beforeTokenTransfer(address from, address to, uint256 amount)\r\n\tinternal virtual override(IexecERC20Core, IexecERC20CoreKYC)\r\n\t{\r\n\t\tIexecERC20CoreKYC._beforeTokenTransfer(from, to, amount);\r\n\t}\r\n\r\n\tfunction _isAuthorized(address account)\r\n\tinternal virtual override(IexecERC20Core, IexecERC20CoreKYC) returns (bool)\r\n\t{\r\n\t\treturn IexecERC20CoreKYC._isAuthorized(account);\r\n\t}\r\n}\r\n",
  "sourcePath": "D:\\iexec\\PoCo\\contracts\\modules\\delegates\\IexecPoco2KYCDelegate.sol",
  "compiler": {
    "name": "solc",
    "version": "0.6.12+commit.27d51765.Emscripten.clang"
  },
  "schemaVersion": "3.4.3",
  "updatedAt": "2021-08-31T16:42:43.752Z",
  "networkType": "ethereum",
  "devdoc": {
    "kind": "dev",
    "methods": {
      "owner()": {
        "details": "Returns the address of the current owner."
      },
      "renounceOwnership()": {
        "details": "Leaves the contract without owner. It will not be possible to call `onlyOwner` functions anymore. Can only be called by the current owner. NOTE: Renouncing ownership will leave the contract without an owner, thereby removing any functionality that is only available to the owner."
      },
      "transferOwnership(address)": {
        "details": "Transfers ownership of the contract to a new account (`newOwner`). Can only be called by the current owner."
      }
    },
    "version": 1
  },
  "userdoc": {
    "kind": "user",
    "methods": {},
    "version": 1
  }
}