{
  "contractName": "IexecPoco3Delegate",
  "abi": [
    {
      "anonymous": false,
      "inputs": [
        {
          "indexed": true,
          "internalType": "address",
          "name": "worker",
          "type": "address"
        },
        {
          "indexed": true,
          "internalType": "bytes32",
          "name": "taskid",
          "type": "bytes32"
        }
      ],
      "name": "AccurateContribution",
      "type": "event"
    },
    {
      "anonymous": false,
      "inputs": [
        {
          "indexed": true,
          "internalType": "address",
          "name": "owner",
          "type": "address"
        },
        {
          "indexed": true,
          "internalType": "address",
          "name": "spender",
          "type": "address"
        },
        {
          "indexed": false,
          "internalType": "uint256",
          "name": "value",
          "type": "uint256"
        }
      ],
      "name": "Approval",
      "type": "event"
    },
    {
      "anonymous": false,
      "inputs": [
        {
          "indexed": true,
          "internalType": "address",
          "name": "worker",
          "type": "address"
        },
        {
          "indexed": true,
          "internalType": "bytes32",
          "name": "taskid",
          "type": "bytes32"
        }
      ],
      "name": "FaultyContribution",
      "type": "event"
    },
    {
      "anonymous": false,
      "inputs": [
        {
          "indexed": false,
          "internalType": "address",
          "name": "owner",
          "type": "address"
        },
        {
          "indexed": false,
          "internalType": "uint256",
          "name": "amount",
          "type": "uint256"
        }
      ],
      "name": "Lock",
      "type": "event"
    },
    {
      "anonymous": false,
      "inputs": [
        {
          "indexed": true,
          "internalType": "address",
          "name": "previousOwner",
          "type": "address"
        },
        {
          "indexed": true,
          "internalType": "address",
          "name": "newOwner",
          "type": "address"
        }
      ],
      "name": "OwnershipTransferred",
      "type": "event"
    },
    {
      "anonymous": false,
      "inputs": [
        {
          "indexed": false,
          "internalType": "address",
          "name": "owner",
          "type": "address"
        },
        {
          "indexed": false,
          "internalType": "uint256",
          "name": "amount",
          "type": "uint256"
        },
        {
          "indexed": false,
          "internalType": "bytes32",
          "name": "ref",
          "type": "bytes32"
        }
      ],
      "name": "Reward",
      "type": "event"
    },
    {
      "anonymous": false,
      "inputs": [
        {
          "indexed": false,
          "internalType": "address",
          "name": "owner",
          "type": "address"
        },
        {
          "indexed": false,
          "internalType": "uint256",
          "name": "amount",
          "type": "uint256"
        },
        {
          "indexed": false,
          "internalType": "bytes32",
          "name": "ref",
          "type": "bytes32"
        }
      ],
      "name": "Seize",
      "type": "event"
    },
    {
      "anonymous": false,
      "inputs": [
        {
          "indexed": true,
          "internalType": "bytes32",
          "name": "taskid",
          "type": "bytes32"
        }
      ],
      "name": "TaskClaimed",
      "type": "event"
    },
    {
      "anonymous": false,
      "inputs": [
        {
          "indexed": true,
          "internalType": "bytes32",
          "name": "taskid",
          "type": "bytes32"
        },
        {
          "indexed": false,
          "internalType": "bytes32",
          "name": "consensus",
          "type": "bytes32"
        }
      ],
      "name": "TaskConsensus",
      "type": "event"
    },
    {
      "anonymous": false,
      "inputs": [
        {
          "indexed": true,
          "internalType": "bytes32",
          "name": "taskid",
          "type": "bytes32"
        },
        {
          "indexed": true,
          "internalType": "address",
          "name": "worker",
          "type": "address"
        },
        {
          "indexed": false,
          "internalType": "bytes32",
          "name": "hash",
          "type": "bytes32"
        }
      ],
      "name": "TaskContribute",
      "type": "event"
    },
    {
      "anonymous": false,
      "inputs": [
        {
          "indexed": true,
          "internalType": "bytes32",
          "name": "taskid",
          "type": "bytes32"
        },
        {
          "indexed": false,
          "internalType": "bytes",
          "name": "results",
          "type": "bytes"
        }
      ],
      "name": "TaskFinalize",
      "type": "event"
    },
    {
      "anonymous": false,
      "inputs": [
        {
          "indexed": true,
          "internalType": "bytes32",
          "name": "taskid",
          "type": "bytes32"
        },
        {
          "indexed": true,
          "internalType": "address",
          "name": "workerpool",
          "type": "address"
        }
      ],
      "name": "TaskInitialize",
      "type": "event"
    },
    {
      "anonymous": false,
      "inputs": [
        {
          "indexed": true,
          "internalType": "bytes32",
          "name": "taskid",
          "type": "bytes32"
        }
      ],
      "name": "TaskReopen",
      "type": "event"
    },
    {
      "anonymous": false,
      "inputs": [
        {
          "indexed": true,
          "internalType": "bytes32",
          "name": "taskid",
          "type": "bytes32"
        },
        {
          "indexed": true,
          "internalType": "address",
          "name": "worker",
          "type": "address"
        },
        {
          "indexed": false,
          "internalType": "bytes32",
          "name": "digest",
          "type": "bytes32"
        }
      ],
      "name": "TaskReveal",
      "type": "event"
    },
    {
      "anonymous": false,
      "inputs": [
        {
          "indexed": true,
          "internalType": "address",
          "name": "from",
          "type": "address"
        },
        {
          "indexed": true,
          "internalType": "address",
          "name": "to",
          "type": "address"
        },
        {
          "indexed": false,
          "internalType": "uint256",
          "name": "value",
          "type": "uint256"
        }
      ],
      "name": "Transfer",
      "type": "event"
    },
    {
      "anonymous": false,
      "inputs": [
        {
          "indexed": false,
          "internalType": "address",
          "name": "owner",
          "type": "address"
        },
        {
          "indexed": false,
          "internalType": "uint256",
          "name": "amount",
          "type": "uint256"
        }
      ],
      "name": "Unlock",
      "type": "event"
    },
    {
      "inputs": [],
      "name": "owner",
      "outputs": [
        {
          "internalType": "address",
          "name": "",
          "type": "address"
        }
      ],
      "stateMutability": "view",
      "type": "function",
      "constant": true
    },
    {
      "inputs": [],
      "name": "renounceOwnership",
      "outputs": [],
      "stateMutability": "nonpayable",
      "type": "function"
    },
    {
      "inputs": [
        {
          "internalType": "address",
          "name": "newOwner",
          "type": "address"
        }
      ],
      "name": "transferOwnership",
      "outputs": [],
      "stateMutability": "nonpayable",
      "type": "function"
    },
    {
      "inputs": [
        {
          "components": [
            {
              "internalType": "uint256",
              "name": "chain",
              "type": "uint256"
            },
            {
              "internalType": "address",
              "name": "sourceHub",
              "type": "address"
            },
            {
              "components": [
                {
                  "internalType": "address",
                  "name": "pointer",
                  "type": "address"
                },
                {
                  "internalType": "address",
                  "name": "owner",
                  "type": "address"
                },
                {
                  "internalType": "uint256",
                  "name": "price",
                  "type": "uint256"
                }
              ],
              "internalType": "struct IexecLibCore_v5.Resource",
              "name": "app",
              "type": "tuple"
            },
            {
              "components": [
                {
                  "internalType": "address",
                  "name": "pointer",
                  "type": "address"
                },
                {
                  "internalType": "address",
                  "name": "owner",
                  "type": "address"
                },
                {
                  "internalType": "uint256",
                  "name": "price",
                  "type": "uint256"
                }
              ],
              "internalType": "struct IexecLibCore_v5.Resource",
              "name": "dataset",
              "type": "tuple"
            },
            {
              "components": [
                {
                  "internalType": "address",
                  "name": "pointer",
                  "type": "address"
                },
                {
                  "internalType": "address",
                  "name": "owner",
                  "type": "address"
                },
                {
                  "internalType": "uint256",
                  "name": "price",
                  "type": "uint256"
                }
              ],
              "internalType": "struct IexecLibCore_v5.Resource",
              "name": "workerpool",
              "type": "tuple"
            },
            {
              "internalType": "uint256",
              "name": "trust",
              "type": "uint256"
            },
            {
              "internalType": "bytes32",
              "name": "tag",
              "type": "bytes32"
            }
          ],
          "internalType": "struct IexecLibCore_v5.ProxyDeal",
          "name": "_inDeal",
          "type": "tuple"
        },
        {
          "components": [
            {
              "internalType": "enum IexecLibCore_v5.TaskStatusEnum",
              "name": "status",
              "type": "uint8"
            },
            {
              "internalType": "bytes32",
              "name": "dealid",
              "type": "bytes32"
            },
            {
              "internalType": "uint256",
              "name": "idx",
              "type": "uint256"
            },
            {
              "internalType": "bytes32",
              "name": "consensusValue",
              "type": "bytes32"
            },
            {
              "internalType": "address[]",
              "name": "contributors",
              "type": "address[]"
            },
            {
              "internalType": "bytes32",
              "name": "resultDigest",
              "type": "bytes32"
            },
            {
              "internalType": "bytes",
              "name": "results",
              "type": "bytes"
            },
            {
              "internalType": "bytes",
              "name": "resultsCallback",
              "type": "bytes"
            }
          ],
          "internalType": "struct IexecLibCore_v5.ProxyTask",
          "name": "_inTask",
          "type": "tuple"
        },
        {
          "internalType": "address",
          "name": "_enclaveChallenge",
          "type": "address"
        },
        {
          "internalType": "bytes",
          "name": "_enclaveSign",
          "type": "bytes"
        },
        {
          "internalType": "bytes",
          "name": "_authorizationSign",
          "type": "bytes"
        }
      ],
      "name": "proxyInitContribAndFinalize",
      "outputs": [],
      "stateMutability": "nonpayable",
      "type": "function"
    }
  ],
  "bytecode": "0x608060405234801561001057600080fd5b50600061001b610060565b600080546001600160a01b0319166001600160a01b038316908117825560405192935091600080516020611144833981519152908290a35061005b610064565b61010f565b3390565b61006c610060565b6000546001600160a01b039081169116146100a25760405162461bcd60e51b8152600401610099906100da565b60405180910390fd5b600080546040516001600160a01b0390911690600080516020611144833981519152908390a3600080546001600160a01b0319169055565b6020808252818101527f4f776e61626c653a2063616c6c6572206973206e6f7420746865206f776e6572604082015260600190565b6110268061011e6000396000f3fe608060405234801561001057600080fd5b506004361061004c5760003560e01c80634f0b469214610051578063715018a6146100665780638da5cb5b1461006e578063f2fde38b1461008c575b600080fd5b61006461005f366004610c39565b61009f565b005b610064610491565b610076610510565b6040516100839190610e3a565b60405180910390f35b61006461009a366004610bf6565b61051f565b6100af6100aa6105d5565b6105d9565b6100b857600080fd5b6000846020015185604001516040516020016100d5929190610dfb565b60408051601f19818403018152918152815160209283012060008181526019845282812060169094529182209093508161010d6105d5565b6001600160a01b03168152602080820192909252604090810160009081208a84015182526018909352908120919250835460ff16600481111561014c57fe5b146101725760405162461bcd60e51b815260040161016990610ef9565b60405180910390fd5b60018851600481111561018157fe5b1461018b57600080fd5b6000848960a001516040516020016101a4929190610dfb565b60405160208183030381529060405280519060200120905060006101c66105d5565b60a08b01516040516101dd92918991602001610dd1565b60408051601f19818403018152919052805160209091012090506001600160a01b03891615158061021c575060c08b0151601f1a60f81b600160f81b16155b61022557600080fd5b6102a96001600160a01b038a161580159061024a5750601a546001600160a01b031615155b61025c578b6080015160200151610269565b601a546001600160a01b03165b6102a36102746105d5565b898d60405160200161028893929190610da4565b604051602081830303815290604052805190602001206105df565b89610608565b6102b257600080fd5b6001600160a01b03891615806102e357506102e3896102dd8484604051602001610288929190610dfb565b8a610608565b6102ec57600080fd5b8354600260ff199182168117865560018601848155908601839055600380870180546001600160a01b0319166001600160a01b038e16179055875490921682178755549086015560a08a0151600586015560c08a01518051610358916006880191602090910190610930565b5060e08a01518051610374916007880191602090910190610930565b50846004016103816105d5565b815460018082018455600093845260209384902090910180546001600160a01b03199081166001600160a01b03948516179091558e5187558e84015191870180548216928416929092179091556040808f015180516002890180548516918616919091179055808501516003890180548516918616919091179055810151600488015560608f015180516005890180548516918616919091179055808501516006890180548516918616919091179055810151600788015560808f0151805160088901805485169186169190911790559384015160098801805490931693169290921790550151600a840155505060a0890151600b82015560c090980151600c9098019790975550505050505050565b6104996105d5565b6000546001600160a01b039081169116146104c65760405162461bcd60e51b815260040161016990610f5d565b600080546040516001600160a01b03909116907f8be0079c531659141344cd1fd0a4f28419497f9722a3daafe3b4186f6b6457e0908390a3600080546001600160a01b0319169055565b6000546001600160a01b031690565b6105276105d5565b6000546001600160a01b039081169116146105545760405162461bcd60e51b815260040161016990610f5d565b6001600160a01b03811661057a5760405162461bcd60e51b815260040161016990610eb3565b600080546040516001600160a01b03808516939216917f8be0079c531659141344cd1fd0a4f28419497f9722a3daafe3b4186f6b6457e091a3600080546001600160a01b0319166001600160a01b0392909216919091179055565b3390565b50600190565b6060816040516020016105f29190610e09565b6040516020818303038152906040529050919050565b6000610613846107e9565b156107ba576040516320c13b0b60e01b81526001600160a01b038516906320c13b0b906106469086908690600401610e85565b60206040518083038186803b15801561065e57600080fd5b505afa92505050801561068e575060408051601f3d908101601f1916820190925261068b91810190610c11565b60015b6106c8573d8080156106bc576040519150601f19603f3d011682016040523d82523d6000602084013e6106c1565b606091505b50506106e2565b6001600160e01b0319166320c13b0b60e01b1490506107e2565b82516020840120604051630b135d3f60e11b81526001600160a01b03861691631626ba7e9161071691908690600401610e4e565b60206040518083038186803b15801561072e57600080fd5b505afa92505050801561075e575060408051601f3d908101601f1916820190925261075b91810190610c11565b60015b610798573d80801561078c576040519150601f19603f3d011682016040523d82523d6000602084013e610791565b606091505b50506107b2565b6001600160e01b031916630b135d3f60e11b1490506107e2565b5060006107e2565b836001600160a01b03166107d5848051906020012084610825565b6001600160a01b03161490505b9392505050565b6000813f7fc5d2460186f7233c927e7db2dcc703c0e500b653ca82273b7bfad8045d85a47081811480159061081d57508115155b949350505050565b60008060008084516041141561084f5750505060208201516040830151606084015160001a610894565b84516040141561087c57505050602082015160408301516001600160ff1b0381169060001a60071c610894565b60405162461bcd60e51b815260040161016990610f92565b601b8160ff1610156108a457601b015b8060ff16601b14806108b957508060ff16601c145b6108d55760405162461bcd60e51b815260040161016990610f30565b600186828585604051600081526020016040526040516108f89493929190610e67565b6020604051602081039080840390855afa15801561091a573d6000803e3d6000fd5b5050506020604051035193505050505b92915050565b828054600181600116156101000203166002900490600052602060002090601f016020900481019282601f1061097157805160ff191683800117855561099e565b8280016001018555821561099e579182015b8281111561099e578251825591602001919060010190610983565b506109aa9291506109ae565b5090565b5b808211156109aa57600081556001016109af565b80356001600160a01b038116811461092a57600080fd5b600082601f8301126109ea578081fd5b813567ffffffffffffffff811115610a00578182fd5b6020808202610a10828201610fc9565b83815293508184018583018287018401881015610a2c57600080fd5b600092505b84831015610a5757610a4388826109c3565b825260019290920191908301908301610a31565b505050505092915050565b600082601f830112610a72578081fd5b813567ffffffffffffffff811115610a88578182fd5b610a9b601f8201601f1916602001610fc9565b9150808252836020828501011115610ab257600080fd5b8060208401602084013760009082016020015292915050565b80356005811061092a57600080fd5b6000610100808385031215610aed578182fd5b610af681610fc9565b915050610b038383610acb565b8152602082013560208201526040820135604082015260608201356060820152608082013567ffffffffffffffff80821115610b3e57600080fd5b610b4a858386016109da565b608084015260a084013560a084015260c0840135915080821115610b6d57600080fd5b610b7985838601610a62565b60c084015260e0840135915080821115610b9257600080fd5b50610b9f84828501610a62565b60e08301525092915050565b600060608284031215610bbc578081fd5b610bc66060610fc9565b9050610bd283836109c3565b8152610be183602084016109c3565b60208201526040820135604082015292915050565b600060208284031215610c07578081fd5b6107e283836109c3565b600060208284031215610c22578081fd5b81516001600160e01b0319811681146107e2578182fd5b6000806000806000858703610220811215610c52578182fd5b6101a080821215610c61578283fd5b610c6b60e0610fc9565b915087358252610c7e8960208a016109c3565b6020830152610c908960408a01610bab565b6040830152610ca28960a08a01610bab565b6060830152610cb5896101008a01610bab565b608083015261016088013560a083015261018088013560c083015290955086013567ffffffffffffffff80821115610ceb578283fd5b610cf789838a01610ada565b9550610d07896101c08a016109c3565b94506101e0880135915080821115610d1d578283fd5b610d2989838a01610a62565b9350610200880135915080821115610d3f578283fd5b50610d4c88828901610a62565b9150509295509295909350565b60008151808452815b81811015610d7e57602081850181015186830182015201610d62565b81811115610d8f5782602083870101525b50601f01601f19169290920160200192915050565b6bffffffffffffffffffffffff19606094851b811682526014820193909352921b16603482015260480190565b60609390931b6bffffffffffffffffffffffff191683526014830191909152603482015260540190565b918252602082015260400190565b7f19457468657265756d205369676e6564204d6573736167653a0a3332000000008152601c810191909152603c0190565b6001600160a01b0391909116815260200190565b60008382526040602083015261081d6040830184610d59565b93845260ff9290921660208401526040830152606082015260800190565b600060408252610e986040830185610d59565b8281036020840152610eaa8185610d59565b95945050505050565b60208082526026908201527f4f776e61626c653a206e6577206f776e657220697320746865207a65726f206160408201526564647265737360d01b606082015260800190565b60208082526019908201527f50726f7879207461736b20616c72656164792065786973747300000000000000604082015260600190565b60208082526013908201527234b73b30b634b216b9b4b3b730ba3ab93296bb60691b604082015260600190565b6020808252818101527f4f776e61626c653a2063616c6c6572206973206e6f7420746865206f776e6572604082015260600190565b60208082526018908201527f696e76616c69642d7369676e61747572652d666f726d61740000000000000000604082015260600190565b60405181810167ffffffffffffffff81118282101715610fe857600080fd5b60405291905056fea2646970667358221220387e25c2fdfcb3ebc56071517f7388517ba1a7bcef228c24d1edeb0d3fd6b3c164736f6c634300060c00338be0079c531659141344cd1fd0a4f28419497f9722a3daafe3b4186f6b6457e0",
  "immutableReferences": {},
  "source": "// SPDX-License-Identifier: Apache-2.0\n\n/******************************************************************************\n * Copyright 2020 IEXEC BLOCKCHAIN TECH                                       *\n *                                                                            *\n * Licensed under the Apache License, Version 2.0 (the \"License\");            *\n * you may not use this file except in compliance with the License.           *\n * You may obtain a copy of the License at                                    *\n *                                                                            *\n *     http://www.apache.org/licenses/LICENSE-2.0                             *\n *                                                                            *\n * Unless required by applicable law or agreed to in writing, software        *\n * distributed under the License is distributed on an \"AS IS\" BASIS,          *\n * WITHOUT WARRANTIES OR CONDITIONS OF ANY KIND, either express or implied.   *\n * See the License for the specific language governing permissions and        *\n * limitations under the License.                                             *\n ******************************************************************************/\n\npragma solidity ^0.6.0;\npragma experimental ABIEncoderV2;\n\nimport \"@iexec/solidity/contracts/ERC1154/IERC1154.sol\";\nimport \"./IexecERC20Core.sol\";\nimport \"./SignatureVerifier.sol\";\nimport \"../DelegateBase.sol\";\nimport \"../interfaces/IexecPoco3.sol\";\n\n\ncontract IexecPoco3Delegate is IexecPoco3, DelegateBase, IexecERC20Core, SignatureVerifier\n{\n\tfunction proxyInitContribAndFinalize(\n\t    IexecLibCore_v5.ProxyDeal memory _inDeal,\n\t\tIexecLibCore_v5.ProxyTask memory _inTask,\n\t\taddress      _enclaveChallenge,\n\t\tbytes memory _enclaveSign,\n\t\tbytes memory _authorizationSign)\n\toverride external\n\t{\n\t\trequire(_isAuthorized(_msgSender()));\n\t\t\n\t\t// Retrieve or generate container objects for ProxyDeal/Task and Contribution\n\t\tbytes32 taskid=keccak256(abi.encodePacked(_inTask.dealid, _inTask.idx));\n\t\tIexecLibCore_v5.ProxyTask         storage stoTask         = m_proxytasks[taskid];\n\t\tIexecLibCore_v5.Contribution storage contribution = m_contributions[taskid][_msgSender()];\n\t\tIexecLibCore_v5.ProxyDeal         storage  stoDeal         = m_proxydeals[_inTask.dealid];\n\t\t\n\t\t// Verify that there is no overwrite\n\t\trequire(stoTask.status==IexecLibCore_v5.TaskStatusEnum.UNSET, \"Proxy task already exists\");\n\t\t// Proxy Sanity checks\n\t\trequire(_inTask.status==IexecLibCore_v5.TaskStatusEnum.ACTIVE);\n\t\t\n\t\tbytes32 resultHash = keccak256(abi.encodePacked(              taskid, _inTask.resultDigest));\n\t\tbytes32 resultSeal = keccak256(abi.encodePacked(_msgSender(), taskid, _inTask.resultDigest));\n\n\t\t//require((deal.callback == address(0) && _resultsCallback.length == 0) || keccak256(_resultsCallback) == task.resultDigest);\n\n\t\t// need enclave challenge if tag is set\n\t\trequire(_enclaveChallenge != address(0) || (_inDeal.tag[31] & 0x01 == 0));\n\n\t\t// Check that the worker + taskid + enclave combo is authorized to contribute (scheduler signature)\n\t\trequire(_checkSignature(\n\t\t\t( _enclaveChallenge != address(0) && m_teebroker != address(0) ) ? m_teebroker : _inDeal.workerpool.owner,\n\t\t\t_toEthSignedMessage(keccak256(abi.encodePacked(\n\t\t\t\t_msgSender(),\n\t\t\t\ttaskid,\n\t\t\t\t_enclaveChallenge\n\t\t\t))),\n\t\t\t_authorizationSign\n\t\t));\n\n\t\t// Check enclave signature\n\t\trequire(_enclaveChallenge == address(0) || _checkSignature(\n\t\t\t_enclaveChallenge,\n\t\t\t_toEthSignedMessage(keccak256(abi.encodePacked(\n\t\t\t\tresultHash,\n\t\t\t\tresultSeal\n\t\t\t))),\n\t\t\t_enclaveSign\n\t\t));\n\t\t\n\t\t// Proxy Storage\n\t\tcontribution.status           = IexecLibCore_v5.ContributionStatusEnum.PROVED;\n\t\tcontribution.resultHash       = resultHash;\n\t\tcontribution.resultSeal       = resultSeal;\n\t\tcontribution.enclaveChallenge = _enclaveChallenge;\n\n\t\tstoTask.status                   = IexecLibCore_v5.TaskStatusEnum.COMPLETED;\n\t\tstoTask.consensusValue           = contribution.resultHash;\n\t\t//task.revealDeadline           = task.timeref.mul(REVEAL_DEADLINE_RATIO).add(now);\n\t\t//task.revealCounter            = 1;\n\t\t//task.winnerCounter            = 1;\n\t\tstoTask.resultDigest             = _inTask.resultDigest;\n\t\tstoTask.results                  = _inTask.results;\n\t\tstoTask.resultsCallback          = _inTask.resultsCallback; // Expansion - result separation\n\t\tstoTask.contributors.push(_msgSender());\n\t\t\n\t\tstoDeal.chain=_inDeal.chain;\n\t    stoDeal.sourceHub=_inDeal.sourceHub;\n\t\tstoDeal.app=_inDeal.app;\n\t\tstoDeal.dataset=_inDeal.dataset;\n\t\tstoDeal.workerpool=_inDeal.workerpool;\n\t\tstoDeal.trust=_inDeal.trust;\n\t\tstoDeal.tag=_inDeal.tag;\n\t\t\n\t\t// Events\n\t}\n}",
  "sourcePath": "D:\\iexec\\PoCo\\contracts\\modules\\delegates\\IexecPoco3Delegate.sol",
  "compiler": {
    "name": "solc",
    "version": "0.6.12+commit.27d51765.Emscripten.clang"
  },
  "schemaVersion": "3.4.3",
  "updatedAt": "2021-08-31T16:42:43.746Z",
  "networkType": "ethereum",
  "devdoc": {
    "kind": "dev",
    "methods": {
      "owner()": {
        "details": "Returns the address of the current owner."
      },
      "renounceOwnership()": {
        "details": "Leaves the contract without owner. It will not be possible to call `onlyOwner` functions anymore. Can only be called by the current owner. NOTE: Renouncing ownership will leave the contract without an owner, thereby removing any functionality that is only available to the owner."
      },
      "transferOwnership(address)": {
        "details": "Transfers ownership of the contract to a new account (`newOwner`). Can only be called by the current owner."
      }
    },
    "version": 1
  },
  "userdoc": {
    "kind": "user",
    "methods": {},
    "version": 1
  }
}