{
  "contractName": "IexecEscrowTokenDelegate",
  "abi": [
    {
      "anonymous": false,
      "inputs": [
        {
          "indexed": true,
          "internalType": "address",
          "name": "owner",
          "type": "address"
        },
        {
          "indexed": true,
          "internalType": "address",
          "name": "spender",
          "type": "address"
        },
        {
          "indexed": false,
          "internalType": "uint256",
          "name": "value",
          "type": "uint256"
        }
      ],
      "name": "Approval",
      "type": "event"
    },
    {
      "anonymous": false,
      "inputs": [
        {
          "indexed": false,
          "internalType": "address",
          "name": "owner",
          "type": "address"
        },
        {
          "indexed": false,
          "internalType": "uint256",
          "name": "amount",
          "type": "uint256"
        }
      ],
      "name": "Lock",
      "type": "event"
    },
    {
      "anonymous": false,
      "inputs": [
        {
          "indexed": true,
          "internalType": "address",
          "name": "previousOwner",
          "type": "address"
        },
        {
          "indexed": true,
          "internalType": "address",
          "name": "newOwner",
          "type": "address"
        }
      ],
      "name": "OwnershipTransferred",
      "type": "event"
    },
    {
      "anonymous": false,
      "inputs": [
        {
          "indexed": false,
          "internalType": "address",
          "name": "owner",
          "type": "address"
        },
        {
          "indexed": false,
          "internalType": "uint256",
          "name": "amount",
          "type": "uint256"
        },
        {
          "indexed": false,
          "internalType": "bytes32",
          "name": "ref",
          "type": "bytes32"
        }
      ],
      "name": "Reward",
      "type": "event"
    },
    {
      "anonymous": false,
      "inputs": [
        {
          "indexed": false,
          "internalType": "address",
          "name": "owner",
          "type": "address"
        },
        {
          "indexed": false,
          "internalType": "uint256",
          "name": "amount",
          "type": "uint256"
        },
        {
          "indexed": false,
          "internalType": "bytes32",
          "name": "ref",
          "type": "bytes32"
        }
      ],
      "name": "Seize",
      "type": "event"
    },
    {
      "anonymous": false,
      "inputs": [
        {
          "indexed": true,
          "internalType": "address",
          "name": "from",
          "type": "address"
        },
        {
          "indexed": true,
          "internalType": "address",
          "name": "to",
          "type": "address"
        },
        {
          "indexed": false,
          "internalType": "uint256",
          "name": "value",
          "type": "uint256"
        }
      ],
      "name": "Transfer",
      "type": "event"
    },
    {
      "anonymous": false,
      "inputs": [
        {
          "indexed": false,
          "internalType": "address",
          "name": "owner",
          "type": "address"
        },
        {
          "indexed": false,
          "internalType": "uint256",
          "name": "amount",
          "type": "uint256"
        }
      ],
      "name": "Unlock",
      "type": "event"
    },
    {
      "stateMutability": "payable",
      "type": "fallback",
      "payable": true
    },
    {
      "inputs": [],
      "name": "owner",
      "outputs": [
        {
          "internalType": "address",
          "name": "",
          "type": "address"
        }
      ],
      "stateMutability": "view",
      "type": "function",
      "constant": true
    },
    {
      "inputs": [],
      "name": "renounceOwnership",
      "outputs": [],
      "stateMutability": "nonpayable",
      "type": "function"
    },
    {
      "inputs": [
        {
          "internalType": "address",
          "name": "newOwner",
          "type": "address"
        }
      ],
      "name": "transferOwnership",
      "outputs": [],
      "stateMutability": "nonpayable",
      "type": "function"
    },
    {
      "stateMutability": "payable",
      "type": "receive",
      "payable": true
    },
    {
      "inputs": [
        {
          "internalType": "uint256",
          "name": "amount",
          "type": "uint256"
        }
      ],
      "name": "deposit",
      "outputs": [
        {
          "internalType": "bool",
          "name": "",
          "type": "bool"
        }
      ],
      "stateMutability": "nonpayable",
      "type": "function"
    },
    {
      "inputs": [
        {
          "internalType": "uint256",
          "name": "amount",
          "type": "uint256"
        },
        {
          "internalType": "address",
          "name": "target",
          "type": "address"
        }
      ],
      "name": "depositFor",
      "outputs": [
        {
          "internalType": "bool",
          "name": "",
          "type": "bool"
        }
      ],
      "stateMutability": "nonpayable",
      "type": "function"
    },
    {
      "inputs": [
        {
          "internalType": "uint256[]",
          "name": "amounts",
          "type": "uint256[]"
        },
        {
          "internalType": "address[]",
          "name": "targets",
          "type": "address[]"
        }
      ],
      "name": "depositForArray",
      "outputs": [
        {
          "internalType": "bool",
          "name": "",
          "type": "bool"
        }
      ],
      "stateMutability": "nonpayable",
      "type": "function"
    },
    {
      "inputs": [
        {
          "internalType": "uint256",
          "name": "amount",
          "type": "uint256"
        }
      ],
      "name": "withdraw",
      "outputs": [
        {
          "internalType": "bool",
          "name": "",
          "type": "bool"
        }
      ],
      "stateMutability": "nonpayable",
      "type": "function"
    },
    {
      "inputs": [
        {
          "internalType": "uint256",
          "name": "amount",
          "type": "uint256"
        },
        {
          "internalType": "address",
          "name": "target",
          "type": "address"
        }
      ],
      "name": "withdrawTo",
      "outputs": [
        {
          "internalType": "bool",
          "name": "",
          "type": "bool"
        }
      ],
      "stateMutability": "nonpayable",
      "type": "function"
    },
    {
      "inputs": [],
      "name": "recover",
      "outputs": [
        {
          "internalType": "uint256",
          "name": "",
          "type": "uint256"
        }
      ],
      "stateMutability": "nonpayable",
      "type": "function"
    },
    {
      "inputs": [
        {
          "internalType": "address",
          "name": "sender",
          "type": "address"
        },
        {
          "internalType": "uint256",
          "name": "amount",
          "type": "uint256"
        },
        {
          "internalType": "address",
          "name": "token",
          "type": "address"
        },
        {
          "internalType": "bytes",
          "name": "",
          "type": "bytes"
        }
      ],
      "name": "receiveApproval",
      "outputs": [
        {
          "internalType": "bool",
          "name": "",
          "type": "bool"
        }
      ],
      "stateMutability": "nonpayable",
      "type": "function"
    }
  ],
  "bytecode": "0x608060405234801561001057600080fd5b50600061001b610060565b600080546001600160a01b0319166001600160a01b038316908117825560405192935091600080516020610dfc833981519152908290a35061005b610064565b61010f565b3390565b61006c610060565b6000546001600160a01b039081169116146100a25760405162461bcd60e51b8152600401610099906100da565b60405180910390fd5b600080546040516001600160a01b0390911690600080516020610dfc833981519152908390a3600080546001600160a01b0319169055565b6020808252818101527f4f776e61626c653a2063616c6c6572206973206e6f7420746865206f776e6572604082015260600190565b610cde8061011e6000396000f3fe6080604052600436106100955760003560e01c80638f4ffcb1116100595780638f4ffcb114610182578063b6b55f25146101a2578063c86283c8146101c2578063ce746024146101e2578063f2fde38b14610204576100bb565b80632e1a7d4d146100d35780633354f8a51461010957806336efd16f14610129578063715018a6146101495780638da5cb5b14610160576100bb565b366100bb5760405162461bcd60e51b81526004016100b290610bbf565b60405180910390fd5b60405162461bcd60e51b81526004016100b290610bbf565b3480156100df57600080fd5b506100f36100ee366004610a30565b610224565b6040516101009190610add565b60405180910390f35b34801561011557600080fd5b506100f36101243660046109a7565b610250565b34801561013557600080fd5b506100f3610144366004610a60565b6102ef565b34801561015557600080fd5b5061015e610316565b005b34801561016c57600080fd5b50610175610395565b6040516101009190610a8c565b34801561018e57600080fd5b506100f361019d36600461090d565b6103a4565b3480156101ae57600080fd5b506100f36101bd366004610a30565b6103e8565b3480156101ce57600080fd5b506100f36101dd366004610a60565b61040c565b3480156101ee57600080fd5b506101f7610429565b6040516101009190610c87565b34801561021057600080fd5b5061015e61021f3660046108f2565b61050a565b60006102376102316105c0565b836105c4565b6102486102426105c0565b83610681565b506001919050565b60008382146102715760405162461bcd60e51b81526004016100b290610b5c565b60005b848110156102e35761029f6102876105c0565b87878481811061029357fe5b9050602002013561070a565b6102db8484838181106102ae57fe5b90506020020160208101906102c391906108f2565b8787848181106102cf57fe5b905060200201356107b0565b600101610274565b50600195945050505050565b60006103026102fc6105c0565b8461070a565b61030c82846107b0565b5060015b92915050565b61031e6105c0565b6000546001600160a01b0390811691161461034b5760405162461bcd60e51b81526004016100b290610b8a565b600080546040516001600160a01b03909116907f8be0079c531659141344cd1fd0a4f28419497f9722a3daafe3b4186f6b6457e0908390a3600080546001600160a01b0319169055565b6000546001600160a01b031690565b6008546000906001600160a01b038581169116146103d45760405162461bcd60e51b81526004016100b290610c2b565b6103de868661070a565b6102e386866107b0565b60006103fb6103f56105c0565b8361070a565b6102486104066105c0565b836107b0565b600061041f6104196105c0565b846105c4565b61030c8284610681565b60006104336105c0565b6000546001600160a01b039081169116146104605760405162461bcd60e51b81526004016100b290610b8a565b600c546008546040516370a0823160e01b81526000926104f29290916001600160a01b03909116906370a082319061049c903090600401610a8c565b60206040518083038186803b1580156104b457600080fd5b505afa1580156104c8573d6000803e3d6000fd5b505050506040513d601f19601f820116820180604052508101906104ec9190610a48565b90610864565b90506105056104ff610395565b826107b0565b905090565b6105126105c0565b6000546001600160a01b0390811691161461053f5760405162461bcd60e51b81526004016100b290610b8a565b6001600160a01b0381166105655760405162461bcd60e51b81526004016100b290610ae8565b600080546040516001600160a01b03808516939216917f8be0079c531659141344cd1fd0a4f28419497f9722a3daafe3b4186f6b6457e091a3600080546001600160a01b0319166001600160a01b0392909216919091179055565b3390565b6001600160a01b0382166105ea5760405162461bcd60e51b81526004016100b290610bea565b6105f682600083610705565b600c546106039082610864565b600c556001600160a01b0382166000908152600d60205260409020546106299082610864565b6001600160a01b0383166000818152600d60205260408082209390935591517fddf252ad1be2c89b69c2b068fc378daa952ba7f163c4a11628f55a4df523b3ef90610675908590610c87565b60405180910390a35050565b60085460405163a9059cbb60e01b81526001600160a01b039091169063a9059cbb906106b39085908590600401610ac4565b602060405180830381600087803b1580156106cd57600080fd5b505af11580156106e1573d6000803e3d6000fd5b505050506040513d601f19601f820116820180604052508101906107059190610a10565b505050565b6008546040516323b872dd60e01b81526001600160a01b03909116906323b872dd9061073e90859030908690600401610aa0565b602060405180830381600087803b15801561075857600080fd5b505af115801561076c573d6000803e3d6000fd5b505050506040513d601f19601f820116820180604052508101906107909190610a10565b6107ac5760405162461bcd60e51b81526004016100b290610b2e565b5050565b6001600160a01b0382166107d65760405162461bcd60e51b81526004016100b290610c50565b6107e260008383610705565b600c546107ef9082610879565b600c556001600160a01b0382166000908152600d60205260409020546108159082610879565b6001600160a01b0383166000818152600d60205260408082209390935591519091907fddf252ad1be2c89b69c2b068fc378daa952ba7f163c4a11628f55a4df523b3ef90610675908590610c87565b60008282111561087357600080fd5b50900390565b60008282018381101561088b57600080fd5b9392505050565b80356001600160a01b038116811461031057600080fd5b60008083601f8401126108ba578182fd5b50813567ffffffffffffffff8111156108d1578182fd5b60208301915083602080830285010111156108eb57600080fd5b9250929050565b600060208284031215610903578081fd5b61088b8383610892565b600080600080600060808688031215610924578081fd5b853561092f81610c90565b945060208601359350604086013561094681610c90565b9250606086013567ffffffffffffffff80821115610962578283fd5b818801915088601f830112610975578283fd5b813581811115610983578384fd5b896020828501011115610994578384fd5b9699959850939650602001949392505050565b600080600080604085870312156109bc578384fd5b843567ffffffffffffffff808211156109d3578586fd5b6109df888389016108a9565b909650945060208701359150808211156109f7578384fd5b50610a04878288016108a9565b95989497509550505050565b600060208284031215610a21578081fd5b8151801515811461088b578182fd5b600060208284031215610a41578081fd5b5035919050565b600060208284031215610a59578081fd5b5051919050565b60008060408385031215610a72578182fd5b82359150610a838460208501610892565b90509250929050565b6001600160a01b0391909116815260200190565b6001600160a01b039384168152919092166020820152604081019190915260600190565b6001600160a01b03929092168252602082015260400190565b901515815260200190565b60208082526026908201527f4f776e61626c653a206e6577206f776e657220697320746865207a65726f206160408201526564647265737360d01b606082015260800190565b6020808252601490820152736661696c6c65642d7472616e7366657246726f6d60601b604082015260600190565b6020808252601490820152730d2dcecc2d8d2c85ac2e4e4c2f25ad8cadccee8d60631b604082015260600190565b6020808252818101527f4f776e61626c653a2063616c6c6572206973206e6f7420746865206f776e6572604082015260600190565b60208082526011908201527019985b1b189858dacb591a5cd8589b1959607a1b604082015260600190565b60208082526021908201527f45524332303a206275726e2066726f6d20746865207a65726f206164647265736040820152607360f81b606082015260800190565b6020808252600b908201526a3bb937b73396ba37b5b2b760a91b604082015260600190565b6020808252601f908201527f45524332303a206d696e7420746f20746865207a65726f206164647265737300604082015260600190565b90815260200190565b6001600160a01b0381168114610ca557600080fd5b5056fea26469706673582212205d7d3246f423fbc026b359868947372716d7e27a081d903ec3b35a777b4d63e764736f6c634300060c00338be0079c531659141344cd1fd0a4f28419497f9722a3daafe3b4186f6b6457e0",
  "immutableReferences": {},
  "source": "// SPDX-License-Identifier: Apache-2.0\r\n\r\n/******************************************************************************\r\n * Copyright 2020 IEXEC BLOCKCHAIN TECH                                       *\r\n *                                                                            *\r\n * Licensed under the Apache License, Version 2.0 (the \"License\");            *\r\n * you may not use this file except in compliance with the License.           *\r\n * You may obtain a copy of the License at                                    *\r\n *                                                                            *\r\n *     http://www.apache.org/licenses/LICENSE-2.0                             *\r\n *                                                                            *\r\n * Unless required by applicable law or agreed to in writing, software        *\r\n * distributed under the License is distributed on an \"AS IS\" BASIS,          *\r\n * WITHOUT WARRANTIES OR CONDITIONS OF ANY KIND, either express or implied.   *\r\n * See the License for the specific language governing permissions and        *\r\n * limitations under the License.                                             *\r\n ******************************************************************************/\r\n\r\npragma solidity ^0.6.0;\r\npragma experimental ABIEncoderV2;\r\n\r\nimport \"./IexecERC20Core.sol\";\r\nimport \"../DelegateBase.sol\";\r\nimport \"../interfaces/IexecEscrowToken.sol\";\r\nimport \"../interfaces/IexecTokenSpender.sol\";\r\n\r\n\r\ncontract IexecEscrowTokenDelegate is IexecEscrowToken, IexecTokenSpender, DelegateBase, IexecERC20Core\r\n{\r\n\tusing SafeMathExtended for uint256;\r\n\r\n\t/***************************************************************************\r\n\t *                         Escrow methods: public                          *\r\n\t ***************************************************************************/\r\n\treceive()\r\n\texternal override payable\r\n\t{\r\n\t\trevert('fallback-disabled');\r\n\t}\r\n\r\n\tfallback()\r\n\texternal override payable\r\n\t{\r\n\t\trevert('fallback-disabled');\r\n\t}\r\n\r\n\tfunction deposit(uint256 amount)\r\n\texternal override returns (bool)\r\n\t{\r\n\t\t_deposit(_msgSender(), amount);\r\n\t\t_mint(_msgSender(), amount);\r\n\t\treturn true;\r\n\t}\r\n\r\n\tfunction depositFor(uint256 amount, address target)\r\n\texternal override returns (bool)\r\n\t{\r\n\t\t_deposit(_msgSender(), amount);\r\n\t\t_mint(target, amount);\r\n\t\treturn true;\r\n\t}\r\n\r\n\tfunction depositForArray(uint256[] calldata amounts, address[] calldata targets)\r\n\texternal override returns (bool)\r\n\t{\r\n\t\trequire(amounts.length == targets.length, 'invalid-array-length');\r\n\t\tfor (uint i = 0; i < amounts.length; ++i)\r\n\t\t{\r\n\t\t\t_deposit(_msgSender(), amounts[i]);\r\n\t\t\t_mint(targets[i], amounts[i]);\r\n\t\t}\r\n\t\treturn true;\r\n\t}\r\n\r\n\tfunction withdraw(uint256 amount)\r\n\texternal override returns (bool)\r\n\t{\r\n\t\t_burn(_msgSender(), amount);\r\n\t\t_withdraw(_msgSender(), amount);\r\n\t\treturn true;\r\n\t}\r\n\r\n\tfunction withdrawTo(uint256 amount, address target)\r\n\texternal override returns (bool)\r\n\t{\r\n\t\t_burn(_msgSender(), amount);\r\n\t\t_withdraw(target, amount);\r\n\t\treturn true;\r\n\t}\r\n\r\n\tfunction recover()\r\n\texternal override onlyOwner returns (uint256)\r\n\t{\r\n\t\tuint256 delta = m_baseToken.balanceOf(address(this)).sub(m_totalSupply);\r\n\t\t_mint(owner(), delta);\r\n\t\treturn delta;\r\n\t}\r\n\r\n\t// Token Spender (endpoint for approveAndCallback calls to the proxy)\r\n\tfunction receiveApproval(address sender, uint256 amount, address token, bytes calldata)\r\n\texternal override returns (bool)\r\n\t{\r\n\t\trequire(token == address(m_baseToken), 'wrong-token');\r\n\t\t_deposit(sender, amount);\r\n\t\t_mint(sender, amount);\r\n\t\treturn true;\r\n\t}\r\n\r\n\tfunction _deposit(address from, uint256 amount)\r\n\tinternal\r\n\t{\r\n\t\trequire(m_baseToken.transferFrom(from, address(this), amount), 'failled-transferFrom');\r\n\t}\r\n\r\n\tfunction _withdraw(address to, uint256 amount)\r\n\tinternal\r\n\t{\r\n\t\tm_baseToken.transfer(to, amount);\r\n\t}\r\n}\r\n",
  "sourcePath": "D:\\iexec\\PoCo\\contracts\\modules\\delegates\\IexecEscrowTokenDelegate.sol",
  "compiler": {
    "name": "solc",
    "version": "0.6.12+commit.27d51765.Emscripten.clang"
  },
  "schemaVersion": "3.4.3",
  "updatedAt": "2021-08-31T16:42:43.631Z",
  "networkType": "ethereum",
  "devdoc": {
    "kind": "dev",
    "methods": {
      "owner()": {
        "details": "Returns the address of the current owner."
      },
      "renounceOwnership()": {
        "details": "Leaves the contract without owner. It will not be possible to call `onlyOwner` functions anymore. Can only be called by the current owner. NOTE: Renouncing ownership will leave the contract without an owner, thereby removing any functionality that is only available to the owner."
      },
      "transferOwnership(address)": {
        "details": "Transfers ownership of the contract to a new account (`newOwner`). Can only be called by the current owner."
      }
    },
    "version": 1
  },
  "userdoc": {
    "kind": "user",
    "methods": {},
    "version": 1
  }
}