{
  "contractName": "TestReceiver",
  "abi": [
    {
      "inputs": [],
      "stateMutability": "nonpayable",
      "type": "constructor"
    },
    {
      "anonymous": false,
      "inputs": [
        {
          "indexed": false,
          "internalType": "address",
          "name": "sender",
          "type": "address"
        },
        {
          "indexed": false,
          "internalType": "uint256",
          "name": "value",
          "type": "uint256"
        },
        {
          "indexed": false,
          "internalType": "address",
          "name": "token",
          "type": "address"
        },
        {
          "indexed": false,
          "internalType": "bytes",
          "name": "extraData",
          "type": "bytes"
        }
      ],
      "name": "GotApproval",
      "type": "event"
    },
    {
      "inputs": [
        {
          "internalType": "address",
          "name": "_sender",
          "type": "address"
        },
        {
          "internalType": "uint256",
          "name": "_value",
          "type": "uint256"
        },
        {
          "internalType": "address",
          "name": "_token",
          "type": "address"
        },
        {
          "internalType": "bytes",
          "name": "_extraData",
          "type": "bytes"
        }
      ],
      "name": "receiveApproval",
      "outputs": [
        {
          "internalType": "bool",
          "name": "",
          "type": "bool"
        }
      ],
      "stateMutability": "nonpayable",
      "type": "function"
    }
  ],
  "bytecode": "0x608060405234801561001057600080fd5b506101af806100206000396000f3fe608060405234801561001057600080fd5b506004361061002b5760003560e01c80638f4ffcb114610030575b600080fd5b6100bf6004803603608081101561004657600080fd5b6001600160a01b03823581169260208101359260408201359092169181019060808101606082013564010000000081111561008057600080fd5b82018360208201111561009257600080fd5b803590602001918460018302840111640100000000831117156100b457600080fd5b5090925090506100d3565b604080519115158252519081900360200190f35b6000846100e257506000610170565b7f9304cb4e5095c22133682d56d385bc94b8f429a2d989572ae241952c950714fa868686868660405180866001600160a01b03168152602001858152602001846001600160a01b03168152602001806020018281038252848482818152602001925080828437600083820152604051601f909101601f19169092018290039850909650505050505050a15060015b9594505050505056fea26469706673582212206b94c306d47de8a36d6c9ce29cafc41f92f591538b096de8aa98ab27ca33108664736f6c634300060c0033",
  "immutableReferences": {},
  "source": "// SPDX-License-Identifier: Apache-2.0\r\n\r\n/******************************************************************************\r\n * Copyright 2020 IEXEC BLOCKCHAIN TECH                                       *\r\n *                                                                            *\r\n * Licensed under the Apache License, Version 2.0 (the \"License\");            *\r\n * you may not use this file except in compliance with the License.           *\r\n * You may obtain a copy of the License at                                    *\r\n *                                                                            *\r\n *     http://www.apache.org/licenses/LICENSE-2.0                             *\r\n *                                                                            *\r\n * Unless required by applicable law or agreed to in writing, software        *\r\n * distributed under the License is distributed on an \"AS IS\" BASIS,          *\r\n * WITHOUT WARRANTIES OR CONDITIONS OF ANY KIND, either express or implied.   *\r\n * See the License for the specific language governing permissions and        *\r\n * limitations under the License.                                             *\r\n ******************************************************************************/\r\n\r\npragma solidity ^0.6.0;\r\n\r\nimport \"../../modules/interfaces/IexecTokenSpender.sol\";\r\n\r\n\r\ncontract TestReceiver is IexecTokenSpender\r\n{\r\n\tevent GotApproval(address sender, uint256 value, address token, bytes extraData);\r\n\r\n\tconstructor()\r\n\tpublic\r\n\t{\r\n\t}\r\n\r\n\tfunction receiveApproval(\r\n\t\taddress        _sender,\r\n\t\tuint256        _value,\r\n\t\taddress        _token,\r\n\t\tbytes calldata _extraData)\r\n\texternal override returns (bool)\r\n\t{\r\n\t\tif (_value == 0)\r\n\t\t{\r\n\t\t\treturn false;\r\n\t\t}\r\n\t\telse\r\n\t\t{\r\n\t\t\temit GotApproval(_sender, _value, _token, _extraData);\r\n\t\t\treturn true;\r\n\t\t}\r\n\t}\r\n\r\n}\r\n",
  "sourcePath": "D:\\iexec\\PoCo\\contracts\\tools\\testing\\TestReceiver.sol",
  "compiler": {
    "name": "solc",
    "version": "0.6.12+commit.27d51765.Emscripten.clang"
  },
  "schemaVersion": "3.4.3",
  "updatedAt": "2021-08-31T16:41:48.889Z",
  "devdoc": {
    "kind": "dev",
    "methods": {},
    "version": 1
  },
  "userdoc": {
    "kind": "user",
    "methods": {},
    "version": 1
  }
}