{
  "contractName": "WorkerpoolRegistry",
  "abi": [
    {
      "inputs": [],
      "stateMutability": "nonpayable",
      "type": "constructor"
    },
    {
      "anonymous": false,
      "inputs": [
        {
          "indexed": true,
          "internalType": "address",
          "name": "owner",
          "type": "address"
        },
        {
          "indexed": true,
          "internalType": "address",
          "name": "approved",
          "type": "address"
        },
        {
          "indexed": true,
          "internalType": "uint256",
          "name": "tokenId",
          "type": "uint256"
        }
      ],
      "name": "Approval",
      "type": "event"
    },
    {
      "anonymous": false,
      "inputs": [
        {
          "indexed": true,
          "internalType": "address",
          "name": "owner",
          "type": "address"
        },
        {
          "indexed": true,
          "internalType": "address",
          "name": "operator",
          "type": "address"
        },
        {
          "indexed": false,
          "internalType": "bool",
          "name": "approved",
          "type": "bool"
        }
      ],
      "name": "ApprovalForAll",
      "type": "event"
    },
    {
      "anonymous": false,
      "inputs": [
        {
          "indexed": true,
          "internalType": "address",
          "name": "previousOwner",
          "type": "address"
        },
        {
          "indexed": true,
          "internalType": "address",
          "name": "newOwner",
          "type": "address"
        }
      ],
      "name": "OwnershipTransferred",
      "type": "event"
    },
    {
      "anonymous": false,
      "inputs": [
        {
          "indexed": true,
          "internalType": "address",
          "name": "from",
          "type": "address"
        },
        {
          "indexed": true,
          "internalType": "address",
          "name": "to",
          "type": "address"
        },
        {
          "indexed": true,
          "internalType": "uint256",
          "name": "tokenId",
          "type": "uint256"
        }
      ],
      "name": "Transfer",
      "type": "event"
    },
    {
      "inputs": [
        {
          "internalType": "address",
          "name": "to",
          "type": "address"
        },
        {
          "internalType": "uint256",
          "name": "tokenId",
          "type": "uint256"
        }
      ],
      "name": "approve",
      "outputs": [],
      "stateMutability": "nonpayable",
      "type": "function"
    },
    {
      "inputs": [
        {
          "internalType": "address",
          "name": "owner",
          "type": "address"
        }
      ],
      "name": "balanceOf",
      "outputs": [
        {
          "internalType": "uint256",
          "name": "",
          "type": "uint256"
        }
      ],
      "stateMutability": "view",
      "type": "function",
      "constant": true
    },
    {
      "inputs": [],
      "name": "baseURI",
      "outputs": [
        {
          "internalType": "string",
          "name": "",
          "type": "string"
        }
      ],
      "stateMutability": "view",
      "type": "function",
      "constant": true
    },
    {
      "inputs": [
        {
          "internalType": "uint256",
          "name": "tokenId",
          "type": "uint256"
        }
      ],
      "name": "getApproved",
      "outputs": [
        {
          "internalType": "address",
          "name": "",
          "type": "address"
        }
      ],
      "stateMutability": "view",
      "type": "function",
      "constant": true
    },
    {
      "inputs": [
        {
          "internalType": "address",
          "name": "_previous",
          "type": "address"
        }
      ],
      "name": "initialize",
      "outputs": [],
      "stateMutability": "nonpayable",
      "type": "function"
    },
    {
      "inputs": [],
      "name": "initialized",
      "outputs": [
        {
          "internalType": "bool",
          "name": "",
          "type": "bool"
        }
      ],
      "stateMutability": "view",
      "type": "function",
      "constant": true
    },
    {
      "inputs": [
        {
          "internalType": "address",
          "name": "owner",
          "type": "address"
        },
        {
          "internalType": "address",
          "name": "operator",
          "type": "address"
        }
      ],
      "name": "isApprovedForAll",
      "outputs": [
        {
          "internalType": "bool",
          "name": "",
          "type": "bool"
        }
      ],
      "stateMutability": "view",
      "type": "function",
      "constant": true
    },
    {
      "inputs": [
        {
          "internalType": "address",
          "name": "_entry",
          "type": "address"
        }
      ],
      "name": "isRegistered",
      "outputs": [
        {
          "internalType": "bool",
          "name": "",
          "type": "bool"
        }
      ],
      "stateMutability": "view",
      "type": "function",
      "constant": true
    },
    {
      "inputs": [],
      "name": "master",
      "outputs": [
        {
          "internalType": "address",
          "name": "",
          "type": "address"
        }
      ],
      "stateMutability": "view",
      "type": "function",
      "constant": true
    },
    {
      "inputs": [],
      "name": "name",
      "outputs": [
        {
          "internalType": "string",
          "name": "",
          "type": "string"
        }
      ],
      "stateMutability": "view",
      "type": "function",
      "constant": true
    },
    {
      "inputs": [],
      "name": "owner",
      "outputs": [
        {
          "internalType": "address",
          "name": "",
          "type": "address"
        }
      ],
      "stateMutability": "view",
      "type": "function",
      "constant": true
    },
    {
      "inputs": [
        {
          "internalType": "uint256",
          "name": "tokenId",
          "type": "uint256"
        }
      ],
      "name": "ownerOf",
      "outputs": [
        {
          "internalType": "address",
          "name": "",
          "type": "address"
        }
      ],
      "stateMutability": "view",
      "type": "function",
      "constant": true
    },
    {
      "inputs": [],
      "name": "previous",
      "outputs": [
        {
          "internalType": "contract IRegistry",
          "name": "",
          "type": "address"
        }
      ],
      "stateMutability": "view",
      "type": "function",
      "constant": true
    },
    {
      "inputs": [],
      "name": "proxyCode",
      "outputs": [
        {
          "internalType": "bytes",
          "name": "",
          "type": "bytes"
        }
      ],
      "stateMutability": "view",
      "type": "function",
      "constant": true
    },
    {
      "inputs": [],
      "name": "proxyCodeHash",
      "outputs": [
        {
          "internalType": "bytes32",
          "name": "",
          "type": "bytes32"
        }
      ],
      "stateMutability": "view",
      "type": "function",
      "constant": true
    },
    {
      "inputs": [],
      "name": "renounceOwnership",
      "outputs": [],
      "stateMutability": "nonpayable",
      "type": "function"
    },
    {
      "inputs": [
        {
          "internalType": "address",
          "name": "from",
          "type": "address"
        },
        {
          "internalType": "address",
          "name": "to",
          "type": "address"
        },
        {
          "internalType": "uint256",
          "name": "tokenId",
          "type": "uint256"
        }
      ],
      "name": "safeTransferFrom",
      "outputs": [],
      "stateMutability": "nonpayable",
      "type": "function"
    },
    {
      "inputs": [
        {
          "internalType": "address",
          "name": "from",
          "type": "address"
        },
        {
          "internalType": "address",
          "name": "to",
          "type": "address"
        },
        {
          "internalType": "uint256",
          "name": "tokenId",
          "type": "uint256"
        },
        {
          "internalType": "bytes",
          "name": "_data",
          "type": "bytes"
        }
      ],
      "name": "safeTransferFrom",
      "outputs": [],
      "stateMutability": "nonpayable",
      "type": "function"
    },
    {
      "inputs": [
        {
          "internalType": "address",
          "name": "operator",
          "type": "address"
        },
        {
          "internalType": "bool",
          "name": "approved",
          "type": "bool"
        }
      ],
      "name": "setApprovalForAll",
      "outputs": [],
      "stateMutability": "nonpayable",
      "type": "function"
    },
    {
      "inputs": [
        {
          "internalType": "string",
          "name": "_baseURI",
          "type": "string"
        }
      ],
      "name": "setBaseURI",
      "outputs": [],
      "stateMutability": "nonpayable",
      "type": "function"
    },
    {
      "inputs": [
        {
          "internalType": "address",
          "name": "_ens",
          "type": "address"
        },
        {
          "internalType": "string",
          "name": "_name",
          "type": "string"
        }
      ],
      "name": "setName",
      "outputs": [],
      "stateMutability": "nonpayable",
      "type": "function"
    },
    {
      "inputs": [
        {
          "internalType": "bytes4",
          "name": "interfaceId",
          "type": "bytes4"
        }
      ],
      "name": "supportsInterface",
      "outputs": [
        {
          "internalType": "bool",
          "name": "",
          "type": "bool"
        }
      ],
      "stateMutability": "view",
      "type": "function",
      "constant": true
    },
    {
      "inputs": [],
      "name": "symbol",
      "outputs": [
        {
          "internalType": "string",
          "name": "",
          "type": "string"
        }
      ],
      "stateMutability": "view",
      "type": "function",
      "constant": true
    },
    {
      "inputs": [
        {
          "internalType": "uint256",
          "name": "index",
          "type": "uint256"
        }
      ],
      "name": "tokenByIndex",
      "outputs": [
        {
          "internalType": "uint256",
          "name": "",
          "type": "uint256"
        }
      ],
      "stateMutability": "view",
      "type": "function",
      "constant": true
    },
    {
      "inputs": [
        {
          "internalType": "address",
          "name": "owner",
          "type": "address"
        },
        {
          "internalType": "uint256",
          "name": "index",
          "type": "uint256"
        }
      ],
      "name": "tokenOfOwnerByIndex",
      "outputs": [
        {
          "internalType": "uint256",
          "name": "",
          "type": "uint256"
        }
      ],
      "stateMutability": "view",
      "type": "function",
      "constant": true
    },
    {
      "inputs": [
        {
          "internalType": "uint256",
          "name": "tokenId",
          "type": "uint256"
        }
      ],
      "name": "tokenURI",
      "outputs": [
        {
          "internalType": "string",
          "name": "",
          "type": "string"
        }
      ],
      "stateMutability": "view",
      "type": "function",
      "constant": true
    },
    {
      "inputs": [],
      "name": "totalSupply",
      "outputs": [
        {
          "internalType": "uint256",
          "name": "",
          "type": "uint256"
        }
      ],
      "stateMutability": "view",
      "type": "function",
      "constant": true
    },
    {
      "inputs": [
        {
          "internalType": "address",
          "name": "from",
          "type": "address"
        },
        {
          "internalType": "address",
          "name": "to",
          "type": "address"
        },
        {
          "internalType": "uint256",
          "name": "tokenId",
          "type": "uint256"
        }
      ],
      "name": "transferFrom",
      "outputs": [],
      "stateMutability": "nonpayable",
      "type": "function"
    },
    {
      "inputs": [
        {
          "internalType": "address",
          "name": "newOwner",
          "type": "address"
        }
      ],
      "name": "transferOwnership",
      "outputs": [],
      "stateMutability": "nonpayable",
      "type": "function"
    },
    {
      "inputs": [
        {
          "internalType": "address",
          "name": "_workerpoolOwner",
          "type": "address"
        },
        {
          "internalType": "string",
          "name": "_workerpoolDescription",
          "type": "string"
        }
      ],
      "name": "createWorkerpool",
      "outputs": [
        {
          "internalType": "contract Workerpool",
          "name": "",
          "type": "address"
        }
      ],
      "stateMutability": "nonpayable",
      "type": "function"
    },
    {
      "inputs": [
        {
          "internalType": "address",
          "name": "_workerpoolOwner",
          "type": "address"
        },
        {
          "internalType": "string",
          "name": "_workerpoolDescription",
          "type": "string"
        }
      ],
      "name": "predictWorkerpool",
      "outputs": [
        {
          "internalType": "contract Workerpool",
          "name": "",
          "type": "address"
        }
      ],
      "stateMutability": "view",
      "type": "function",
      "constant": true
    }
  ],
  "bytecode": "0x60806040523480156200001157600080fd5b506040516200002090620002c9565b604051809103906000f0801580156200003d573d6000803e3d6000fd5b50604080518082018252601e81527f694578656320576f726b6572706f6f6c20526567697374727920285635290000602080830191909152825180840190935260118352706945786563576f726b6572706f6f6c563560781b90830152908181620000af6301ffc9a760e01b62000240565b8151620000c4906006906020850190620002d7565b508051620000da906007906020840190620002d7565b50620000ed6380ac58cd60e01b62000240565b620000ff635b5e139f60e01b62000240565b6200011163780e9d6360e01b62000240565b506000905062000120620002c5565b600a80546001600160a01b0319166001600160a01b038316908117909155604051919250906000907f8be0079c531659141344cd1fd0a4f28419497f9722a3daafe3b4186f6b6457e0908290a350600b80546001600160a01b0319166001600160a01b0385161790556040516200019a602082016200035c565b601f1982820381018352601f909101166040528051620001c491600c9160209190910190620002d7565b50600c6040518082805460018160011615610100020316600290048015620002265780601f106200020357610100808354040283529182019162000226565b820191906000526020600020905b81548152906001019060200180831162000211575b5050604051908190039020600d5550620003819350505050565b6001600160e01b03198082161415620002a0576040805162461bcd60e51b815260206004820152601c60248201527f4552433136353a20696e76616c696420696e7465726661636520696400000000604482015290519081900360640190fd5b6001600160e01b0319166000908152602081905260409020805460ff19166001179055565b3390565b6108238062002e9283390190565b828054600181600116156101000203166002900490600052602060002090601f016020900481019282601f106200031a57805160ff19168380011785556200034a565b828001600101855582156200034a579182015b828111156200034a5782518255916020019190600101906200032d565b50620003589291506200036a565b5090565b61033380620036b583390190565b5b808211156200035857600081556001016200036b565b612b0180620003916000396000f3fe608060405234801561001057600080fd5b50600436106101e55760003560e01c80636fa59bbc1161010f578063c3c5a547116100a2578063e985e9c511610071578063e985e9c514610796578063ee97f7f3146107c4578063eee39111146107cc578063f2fde38b146107d4576101e5565b8063c3c5a547146106af578063c4d66de8146106d5578063c87b56dd146106fb578063e40238f414610718576101e5565b80638da5cb5b116100de5780638da5cb5b146105ad57806395d89b41146105b5578063a22cb465146105bd578063b88d4fde146105eb576101e5565b80636fa59bbc1461056f57806370a0823114610577578063715018a61461059d5780637c2b2e71146105a5576101e5565b806323b872dd116101875780634f6ccce7116101565780634f6ccce7146104bf57806355f804b3146104dc5780636352211e1461054a5780636c0360eb14610567576101e5565b806323b872dd146103a95780632f745c59146103df5780633121db1c1461040b57806342842e0e14610489576101e5565b8063081812fc116101c3578063081812fc1461033c578063095ea7b314610359578063158ef93e1461038757806318160ddd1461038f576101e5565b806301ffc9a7146101ea578063064a6c2a1461022557806306fdde03146102bf575b600080fd5b6102116004803603602081101561020057600080fd5b50356001600160e01b0319166107fa565b604080519115158252519081900360200190f35b6102a36004803603604081101561023b57600080fd5b6001600160a01b038235169190810190604081016020820135600160201b81111561026557600080fd5b82018360208201111561027757600080fd5b803590602001918460018302840111600160201b8311171561029857600080fd5b50909250905061081d565b604080516001600160a01b039092168252519081900360200190f35b6102c7610871565b6040805160208082528351818301528351919283929083019185019080838360005b838110156103015781810151838201526020016102e9565b50505050905090810190601f16801561032e5780820380516001836020036101000a031916815260200191505b509250505060405180910390f35b6102a36004803603602081101561035257600080fd5b5035610907565b6103856004803603604081101561036f57600080fd5b506001600160a01b038135169060200135610969565b005b610211610a44565b610397610a54565b60408051918252519081900360200190f35b610385600480360360608110156103bf57600080fd5b506001600160a01b03813581169160208101359091169060400135610a65565b610397600480360360408110156103f557600080fd5b506001600160a01b038135169060200135610abc565b6103856004803603604081101561042157600080fd5b6001600160a01b038235169190810190604081016020820135600160201b81111561044b57600080fd5b82018360208201111561045d57600080fd5b803590602001918460018302840111600160201b8311171561047e57600080fd5b509092509050610ae7565b6103856004803603606081101561049f57600080fd5b506001600160a01b03813581169160208101359091169060400135610b7f565b610397600480360360208110156104d557600080fd5b5035610b9a565b610385600480360360208110156104f257600080fd5b810190602081018135600160201b81111561050c57600080fd5b82018360208201111561051e57600080fd5b803590602001918460018302840111600160201b8311171561053f57600080fd5b509092509050610bb0565b6102a36004803603602081101561056057600080fd5b5035610c4b565b6102c7610c73565b6102c7610cd4565b6103976004803603602081101561058d57600080fd5b50356001600160a01b0316610d62565b610385610dca565b6102a3610e6c565b6102a3610e7b565b6102c7610e8a565b610385600480360360408110156105d357600080fd5b506001600160a01b0381351690602001351515610eeb565b6103856004803603608081101561060157600080fd5b6001600160a01b03823581169260208101359091169160408201359190810190608081016060820135600160201b81111561063b57600080fd5b82018360208201111561064d57600080fd5b803590602001918460018302840111600160201b8311171561066e57600080fd5b91908080601f016020809104026020016040519081016040528093929190818152602001838380828437600092019190915250929550610ff0945050505050565b610211600480360360208110156106c557600080fd5b50356001600160a01b031661104e565b610385600480360360208110156106eb57600080fd5b50356001600160a01b03166110fc565b6102c76004803603602081101561071157600080fd5b503561119c565b6102a36004803603604081101561072e57600080fd5b6001600160a01b038235169190810190604081016020820135600160201b81111561075857600080fd5b82018360208201111561076a57600080fd5b803590602001918460018302840111600160201b8311171561078b57600080fd5b509092509050611443565b610211600480360360408110156107ac57600080fd5b506001600160a01b038135811691602001351661148d565b6102a36114bb565b6103976114ca565b610385600480360360208110156107ea57600080fd5b50356001600160a01b03166114d0565b6001600160e01b0319811660009081526020819052604090205460ff165b919050565b60006108678461086285858080601f0160208091040260200160405190810160405280939291908181526020018383808284376000920191909152506115c992505050565b61166e565b90505b9392505050565b60068054604080516020601f60026000196101006001881615020190951694909404938401819004810282018101909252828152606093909290918301828280156108fd5780601f106108d2576101008083540402835291602001916108fd565b820191906000526020600020905b8154815290600101906020018083116108e057829003601f168201915b5050505050905090565b60006109128261170f565b61094d5760405162461bcd60e51b815260040180806020018281038252602c8152602001806129d6602c913960400191505060405180910390fd5b506000908152600460205260409020546001600160a01b031690565b600061097482610c4b565b9050806001600160a01b0316836001600160a01b031614156109c75760405162461bcd60e51b8152600401808060200182810382526021815260200180612a7a6021913960400191505060405180910390fd5b806001600160a01b03166109d961171c565b6001600160a01b031614806109fa57506109fa816109f561171c565b61148d565b610a355760405162461bcd60e51b81526004018080602001828103825260388152602001806129296038913960400191505060405180910390fd5b610a3f8383611720565b505050565b600e54600160a01b900460ff1681565b6000610a60600261178e565b905090565b610a76610a7061171c565b82611799565b610ab15760405162461bcd60e51b8152600401808060200182810382526031815260200180612a9b6031913960400191505060405180910390fd5b610a3f83838361183d565b6001600160a01b0382166000908152600160205260408120610ade9083611989565b90505b92915050565b610aef61171c565b600a546001600160a01b03908116911614610b3f576040805162461bcd60e51b81526020600482018190526024820152600080516020612a02833981519152604482015290519081900360640190fd5b610a3f8383838080601f01602080910402602001604051908101604052809392919081815260200183838082843760009201919091525061199592505050565b610a3f83838360405180602001604052806000815250610ff0565b600080610ba8600284611afa565b509392505050565b610bb861171c565b600a546001600160a01b03908116911614610c08576040805162461bcd60e51b81526020600482018190526024820152600080516020612a02833981519152604482015290519081900360640190fd5b610c4782828080601f016020809104026020016040519081016040528093929190818152602001838380828437600092019190915250611b1692505050565b5050565b6000610ae18260405180606001604052806029815260200161298b6029913960029190611b29565b60098054604080516020601f60026000196101006001881615020190951694909404938401819004810282018101909252828152606093909290918301828280156108fd5780601f106108d2576101008083540402835291602001916108fd565b600c805460408051602060026001851615610100026000190190941693909304601f81018490048402820184019092528181529291830182828015610d5a5780601f10610d2f57610100808354040283529160200191610d5a565b820191906000526020600020905b815481529060010190602001808311610d3d57829003601f168201915b505050505081565b60006001600160a01b038216610da95760405162461bcd60e51b815260040180806020018281038252602a815260200180612961602a913960400191505060405180910390fd5b6001600160a01b0382166000908152600160205260409020610ae19061178e565b610dd261171c565b600a546001600160a01b03908116911614610e22576040805162461bcd60e51b81526020600482018190526024820152600080516020612a02833981519152604482015290519081900360640190fd5b600a546040516000916001600160a01b0316907f8be0079c531659141344cd1fd0a4f28419497f9722a3daafe3b4186f6b6457e0908390a3600a80546001600160a01b0319169055565b600e546001600160a01b031681565b600a546001600160a01b031690565b60078054604080516020601f60026000196101006001881615020190951694909404938401819004810282018101909252828152606093909290918301828280156108fd5780601f106108d2576101008083540402835291602001916108fd565b610ef361171c565b6001600160a01b0316826001600160a01b03161415610f59576040805162461bcd60e51b815260206004820152601960248201527f4552433732313a20617070726f766520746f2063616c6c657200000000000000604482015290519081900360640190fd5b8060056000610f6661171c565b6001600160a01b03908116825260208083019390935260409182016000908120918716808252919093529120805460ff191692151592909217909155610faa61171c565b6001600160a01b03167f17307eab39ab6107e8899845ad3d59bd9653f200f220920489ca2b5937696c318360405180821515815260200191505060405180910390a35050565b611001610ffb61171c565b83611799565b61103c5760405162461bcd60e51b8152600401808060200182810382526031815260200180612a9b6031913960400191505060405180910390fd5b61104884848484611b36565b50505050565b6000611062826001600160a01b031661170f565b80610ae15750600e546001600160a01b031615801590610ae15750600e546040805163c3c5a54760e01b81526001600160a01b0385811660048301529151919092169163c3c5a547916024808301926020929190829003018186803b1580156110ca57600080fd5b505afa1580156110de573d6000803e3d6000fd5b505050506040513d60208110156110f457600080fd5b505192915050565b61110461171c565b600a546001600160a01b03908116911614611154576040805162461bcd60e51b81526020600482018190526024820152600080516020612a02833981519152604482015290519081900360640190fd5b600e54600160a01b900460ff161561116b57600080fd5b600e8054600160a01b60ff60a01b19909116176001600160a01b0319166001600160a01b0392909216919091179055565b60606111a78261170f565b6111e25760405162461bcd60e51b815260040180806020018281038252602f815260200180612a4b602f913960400191505060405180910390fd5b60008281526008602090815260409182902080548351601f60026000196101006001861615020190931692909204918201849004840281018401909452808452606093928301828280156112775780601f1061124c57610100808354040283529160200191611277565b820191906000526020600020905b81548152906001019060200180831161125a57829003601f168201915b5050600954939450505050600260001961010060018416150201909116046112a0579050610818565b8051156113715760098160405160200180838054600181600116156101000203166002900480156113085780601f106112e6576101008083540402835291820191611308565b820191906000526020600020905b8154815290600101906020018083116112f4575b5050825160208401908083835b602083106113345780518252601f199092019160209182019101611315565b6001836020036101000a03801982511681845116808217855250505050505090500192505050604051602081830303815290604052915050610818565b600961137c84611b88565b60405160200180838054600181600116156101000203166002900480156113da5780601f106113b85761010080835404028352918201916113da565b820191906000526020600020905b8154815290600101906020018083116113c6575b5050825160208401908083835b602083106114065780518252601f1990920191602091820191016113e7565b6001836020036101000a03801982511681845116808217855250505050505090500192505050604051602081830303815290604052915050919050565b60006108678461148885858080601f0160208091040260200160405190810160405280939291908181526020018383808284376000920191909152506115c992505050565b611c63565b6001600160a01b03918216600090815260056020908152604080832093909416825291909152205460ff1690565b600b546001600160a01b031681565b600d5481565b6114d861171c565b600a546001600160a01b03908116911614611528576040805162461bcd60e51b81526020600482018190526024820152600080516020612a02833981519152604482015290519081900360640190fd5b6001600160a01b03811661156d5760405162461bcd60e51b81526004018080602001828103825260268152602001806128b36026913960400191505060405180910390fd5b600a546040516001600160a01b038084169216907f8be0079c531659141344cd1fd0a4f28419497f9722a3daafe3b4186f6b6457e090600090a3600a80546001600160a01b0319166001600160a01b0392909216919091179055565b6060816040516024018080602001828103825283818151815260200191508051906020019080838360005b8381101561160c5781810151838201526020016115f4565b50505050905090810190601f1680156116395780820380516001836020036101000a031916815260200191505b5060408051601f198184030181529190526020810180516001600160e01b0316631ec5a31160e31b1790529350505050919050565b6000806116fe83856040516020018083805190602001908083835b602083106116a85780518252601f199092019160209182019101611689565b6001836020036101000a038019825116818451168082178552505050505050905001826001600160a01b031660601b81526014019250505060405160208183030381529060405280519060200120600d54611e84565b6001600160a01b0316949350505050565b6000610ae1600283611e91565b3390565b600081815260046020526040902080546001600160a01b0319166001600160a01b038416908117909155819061175582610c4b565b6001600160a01b03167f8c5be1e5ebec7d5bd14f71427d1e84f3dd0314c0f7b2291e5b200ac8c7c3b92560405160405180910390a45050565b6000610ae182611e9d565b60006117a48261170f565b6117df5760405162461bcd60e51b815260040180806020018281038252602c8152602001806128fd602c913960400191505060405180910390fd5b60006117ea83610c4b565b9050806001600160a01b0316846001600160a01b031614806118255750836001600160a01b031661181a84610907565b6001600160a01b0316145b806118355750611835818561148d565b949350505050565b826001600160a01b031661185082610c4b565b6001600160a01b0316146118955760405162461bcd60e51b8152600401808060200182810382526029815260200180612a226029913960400191505060405180910390fd5b6001600160a01b0382166118da5760405162461bcd60e51b81526004018080602001828103825260248152602001806128d96024913960400191505060405180910390fd5b6118e5838383610a3f565b6118f0600082611720565b6001600160a01b03831660009081526001602052604090206119129082611ea1565b506001600160a01b03821660009081526001602052604090206119359082611ead565b5061194260028284611eb9565b5080826001600160a01b0316846001600160a01b03167fddf252ad1be2c89b69c2b068fc378daa952ba7f163c4a11628f55a4df523b3ef60405160405180910390a4505050565b6000610ade8383611ecf565b604080516302571be360e01b81527f91d1777781884d03a6757a803996e38de2a42967fb37eeaca72729271025a9e2600482015290516001600160a01b038416916302571be3916024808301926020929190829003018186803b1580156119fb57600080fd5b505afa158015611a0f573d6000803e3d6000fd5b505050506040513d6020811015611a2557600080fd5b505160405163c47f002760e01b81526020600482018181528451602484015284516001600160a01b039094169363c47f002793869383926044909201919085019080838360005b83811015611a84578181015183820152602001611a6c565b50505050905090810190601f168015611ab15780820380516001836020036101000a031916815260200191505b5092505050602060405180830381600087803b158015611ad057600080fd5b505af1158015611ae4573d6000803e3d6000fd5b505050506040513d602081101561104857600080fd5b6000808080611b098686611f33565b9097909650945050505050565b8051610c479060099060208401906127cb565b6000610867848484611fae565b611b4184848461183d565b611b4d84848484612078565b6110485760405162461bcd60e51b81526004018080602001828103825260328152602001806128816032913960400191505060405180910390fd5b606081611bad57506040805180820190915260018152600360fc1b6020820152610818565b8160005b8115611bc557600101600a82049150611bb1565b60608167ffffffffffffffff81118015611bde57600080fd5b506040519080825280601f01601f191660200182016040528015611c09576020820181803683370190505b50859350905060001982015b8315611c5a57600a840660300160f81b82828060019003935081518110611c3857fe5b60200101906001600160f81b031916908160001a905350600a84049350611c15565b50949350505050565b600080611d8d600084866040516020018083805190602001908083835b60208310611c9f5780518252601f199092019160209182019101611c80565b6001836020036101000a038019825116818451168082178552505050505050905001826001600160a01b031660601b81526014019250505060405160208183030381529060405280519060200120600c8054600181600116156101000203166002900480601f016020809104026020016040519081016040528092919081815260200182805460018160011615610100020316600290048015611d835780601f10611d5857610100808354040283529160200191611d83565b820191906000526020600020905b815481529060010190602001808311611d6657829003601f168201915b50505050506121e0565b600b546040805163347d5e2560e21b81526001600160a01b0392831660048201818152602483019384528851604484015288519596509386169463d1f5789494919389939091606490910190602085019080838360005b83811015611dfc578181015183820152602001611de4565b50505050905090810190601f168015611e295780820380516001836020036101000a031916815260200191505b509350505050600060405180830381600087803b158015611e4957600080fd5b505af1158015611e5d573d6000803e3d6000fd5b50505050611e7484826001600160a01b03166122f1565b6001600160a01b03169392505050565b6000610ade83833061241f565b6000610ade838361247a565b5490565b6000610ade8383612492565b6000610ade8383612558565b600061086784846001600160a01b0385166125a2565b81546000908210611f115760405162461bcd60e51b815260040180806020018281038252602281526020018061285f6022913960400191505060405180910390fd5b826000018281548110611f2057fe5b9060005260206000200154905092915050565b815460009081908310611f775760405162461bcd60e51b81526004018080602001828103825260228152602001806129b46022913960400191505060405180910390fd5b6000846000018481548110611f8857fe5b906000526020600020906002020190508060000154816001015492509250509250929050565b600082815260018401602052604081205482816120495760405162461bcd60e51b81526004018080602001828103825283818151815260200191508051906020019080838360005b8381101561200e578181015183820152602001611ff6565b50505050905090810190601f16801561203b5780820380516001836020036101000a031916815260200191505b509250505060405180910390fd5b5084600001600182038154811061205c57fe5b9060005260206000209060020201600101549150509392505050565b600061208c846001600160a01b0316612639565b61209857506001611835565b60606121a6630a85bd0160e11b6120ad61171c565b88878760405160240180856001600160a01b03168152602001846001600160a01b0316815260200183815260200180602001828103825283818151815260200191508051906020019080838360005b838110156121145781810151838201526020016120fc565b50505050905090810190601f1680156121415780820380516001836020036101000a031916815260200191505b5095505050505050604051602081830303815290604052906001600160e01b0319166020820180516001600160e01b038381831617835250505050604051806060016040528060328152602001612881603291396001600160a01b038816919061263f565b905060008180602001905160208110156121bf57600080fd5b50516001600160e01b031916630a85bd0160e11b1492505050949350505050565b60008084471015612238576040805162461bcd60e51b815260206004820152601d60248201527f437265617465323a20696e73756666696369656e742062616c616e6365000000604482015290519081900360640190fd5b825161228b576040805162461bcd60e51b815260206004820181905260248201527f437265617465323a2062797465636f6465206c656e677468206973207a65726f604482015290519081900360640190fd5b8383516020850187f590506001600160a01b038116610867576040805162461bcd60e51b815260206004820152601960248201527f437265617465323a204661696c6564206f6e206465706c6f7900000000000000604482015290519081900360640190fd5b6001600160a01b03821661234c576040805162461bcd60e51b815260206004820181905260248201527f4552433732313a206d696e7420746f20746865207a65726f2061646472657373604482015290519081900360640190fd5b6123558161170f565b156123a7576040805162461bcd60e51b815260206004820152601c60248201527f4552433732313a20746f6b656e20616c7265616479206d696e74656400000000604482015290519081900360640190fd5b6123b360008383610a3f565b6001600160a01b03821660009081526001602052604090206123d59082611ead565b506123e260028284611eb9565b5060405181906001600160a01b038416906000907fddf252ad1be2c89b69c2b068fc378daa952ba7f163c4a11628f55a4df523b3ef908290a45050565b604080516001600160f81b031960208083019190915260609390931b6bffffffffffffffffffffffff191660218201526035810194909452605580850193909352805180850390930183526075909301909252805191012090565b60009081526001919091016020526040902054151590565b6000818152600183016020526040812054801561254e57835460001980830191908101906000908790839081106124c557fe5b90600052602060002001549050808760000184815481106124e257fe5b60009182526020808320909101929092558281526001898101909252604090209084019055865487908061251257fe5b60019003818190600052602060002001600090559055866001016000878152602001908152602001600020600090556001945050505050610ae1565b6000915050610ae1565b6000612564838361247a565b61259a57508154600181810184556000848152602080822090930184905584548482528286019093526040902091909155610ae1565b506000610ae1565b60008281526001840160205260408120548061260757505060408051808201825283815260208082018481528654600181810189556000898152848120955160029093029095019182559151908201558654868452818801909252929091205561086a565b8285600001600183038154811061261a57fe5b906000526020600020906002020160010181905550600091505061086a565b3b151590565b606061086784846000858561265385612639565b6126a4576040805162461bcd60e51b815260206004820152601d60248201527f416464726573733a2063616c6c20746f206e6f6e2d636f6e7472616374000000604482015290519081900360640190fd5b60006060866001600160a01b031685876040518082805190602001908083835b602083106126e35780518252601f1990920191602091820191016126c4565b6001836020036101000a03801982511681845116808217855250505050505090500191505060006040518083038185875af1925050503d8060008114612745576040519150601f19603f3d011682016040523d82523d6000602084013e61274a565b606091505b509150915061275a828286612765565b979650505050505050565b6060831561277457508161086a565b8251156127845782518084602001fd5b60405162461bcd60e51b815260206004820181815284516024840152845185939192839260440191908501908083836000831561200e578181015183820152602001611ff6565b828054600181600116156101000203166002900490600052602060002090601f016020900481019282601f1061280c57805160ff1916838001178555612839565b82800160010185558215612839579182015b8281111561283957825182559160200191906001019061281e565b50612845929150612849565b5090565b5b80821115612845576000815560010161284a56fe456e756d657261626c655365743a20696e646578206f7574206f6620626f756e64734552433732313a207472616e7366657220746f206e6f6e20455243373231526563656976657220696d706c656d656e7465724f776e61626c653a206e6577206f776e657220697320746865207a65726f20616464726573734552433732313a207472616e7366657220746f20746865207a65726f20616464726573734552433732313a206f70657261746f7220717565727920666f72206e6f6e6578697374656e7420746f6b656e4552433732313a20617070726f76652063616c6c6572206973206e6f74206f776e6572206e6f7220617070726f76656420666f7220616c6c4552433732313a2062616c616e636520717565727920666f7220746865207a65726f20616464726573734552433732313a206f776e657220717565727920666f72206e6f6e6578697374656e7420746f6b656e456e756d657261626c654d61703a20696e646578206f7574206f6620626f756e64734552433732313a20617070726f76656420717565727920666f72206e6f6e6578697374656e7420746f6b656e4f776e61626c653a2063616c6c6572206973206e6f7420746865206f776e65724552433732313a207472616e73666572206f6620746f6b656e2074686174206973206e6f74206f776e4552433732314d657461646174613a2055524920717565727920666f72206e6f6e6578697374656e7420746f6b656e4552433732313a20617070726f76616c20746f2063757272656e74206f776e65724552433732313a207472616e736665722063616c6c6572206973206e6f74206f776e6572206e6f7220617070726f766564a264697066735822122011678736729d0fc19ec5982608af9c77bbd41923cc3406e3630b49b79455815e64736f6c634300060c0033608060405234801561001057600080fd5b50610803806100206000396000f3fe608060405234801561001057600080fd5b50600436106100885760003560e01c80638da5cb5b1161005b5780638da5cb5b146101ca578063b55e75af146101d2578063f199413c146101da578063f62d1888146101fd57610088565b80633121db1c1461008d578063584feb3a1461010f5780637b1039991461018c57806387639c68146101b0575b600080fd5b61010d600480360360408110156100a357600080fd5b6001600160a01b0382351691908101906040810160208201356401000000008111156100ce57600080fd5b8201836020820111156100e057600080fd5b8035906020019184600183028401116401000000008311171561010257600080fd5b5090925090506102a3565b005b610117610346565b6040805160208082528351818301528351919283929083019185019080838360005b83811015610151578181015183820152602001610139565b50505050905090810190601f16801561017e5780820380516001836020036101000a031916815260200191505b509250505060405180910390f35b6101946103d3565b604080516001600160a01b039092168252519081900360200190f35b6101b86103e2565b60408051918252519081900360200190f35b6101946103e8565b6101b8610465565b61010d600480360360408110156101f057600080fd5b508035906020013561046b565b61010d6004803603602081101561021357600080fd5b81019060208101813564010000000081111561022e57600080fd5b82018360208201111561024057600080fd5b8035906020019184600183028401116401000000008311171561026257600080fd5b91908080601f01602080910402602001604051908101604052809392919081815260200183838082843760009201919091525092955061052f945050505050565b336102ac6103e8565b6001600160a01b031614610301576040805162461bcd60e51b815260206004820152601760248201527631b0b63632b91034b9903737ba103a34329037bbb732b960491b604482015290519081900360640190fd5b6103418383838080601f01602080910402602001604051908101604052809392919081815260200183838082843760009201919091525061055992505050565b505050565b60018054604080516020600284861615610100026000190190941693909304601f810184900484028201840190925281815292918301828280156103cb5780601f106103a0576101008083540402835291602001916103cb565b820191906000526020600020905b8154815290600101906020018083116103ae57829003601f168201915b505050505081565b6000546001600160a01b031681565b60035481565b60008054604080516331a9108f60e11b815230600482015290516001600160a01b0390921691636352211e91602480820192602092909190829003018186803b15801561043457600080fd5b505afa158015610448573d6000803e3d6000fd5b505050506040513d602081101561045e57600080fd5b5051905090565b60025481565b336104746103e8565b6001600160a01b0316146104c9576040805162461bcd60e51b815260206004820152601760248201527631b0b63632b91034b9903737ba103a34329037bbb732b960491b604482015290519081900360640190fd5b60648111156104d757600080fd5b60025460035460408051928352602083018590528281019190915260608201839052517f61f37ef3a6d587ce2d6be79492e1fac570f2745787015db7ed95ad4397b05c1e9181900360800190a1600291909155600355565b610538336106c4565b805161054b90600190602084019061073a565b5050601e6002556001600355565b604080516302571be360e01b81527f91d1777781884d03a6757a803996e38de2a42967fb37eeaca72729271025a9e2600482015290516001600160a01b038416916302571be3916024808301926020929190829003018186803b1580156105bf57600080fd5b505afa1580156105d3573d6000803e3d6000fd5b505050506040513d60208110156105e957600080fd5b505160405163c47f002760e01b81526020600482018181528451602484015284516001600160a01b039094169363c47f002793869383926044909201919085019080838360005b83811015610648578181015183820152602001610630565b50505050905090810190601f1680156106755780820380516001836020036101000a031916815260200191505b5092505050602060405180830381600087803b15801561069457600080fd5b505af11580156106a8573d6000803e3d6000fd5b505050506040513d60208110156106be57600080fd5b50505050565b6000546001600160a01b031615610718576040805162461bcd60e51b8152602060048201526013602482015272185b1c9958591e481a5b9a5d1a585b1a5e9959606a1b604482015290519081900360640190fd5b600080546001600160a01b0319166001600160a01b0392909216919091179055565b828054600181600116156101000203166002900490600052602060002090601f016020900481019282601f1061077b57805160ff19168380011785556107a8565b828001600101855582156107a8579182015b828111156107a857825182559160200191906001019061078d565b506107b49291506107b8565b5090565b5b808211156107b457600081556001016107b956fea26469706673582212203b1e390b6f8eee2868ef235d185cd0b12d8002e2eed915c7cb96f4076dc027d864736f6c634300060c0033608060405234801561001057600080fd5b50610313806100206000396000f3fe6080604052600436106100225760003560e01c8063d1f578941461003957610031565b366100315761002f6100ef565b005b61002f6100ef565b61002f6004803603604081101561004f57600080fd5b6001600160a01b03823516919081019060408101602082013564010000000081111561007a57600080fd5b82018360208201111561008c57600080fd5b803590602001918460018302840111640100000000831117156100ae57600080fd5b91908080601f016020809104026020016040519081016040528093929190818152602001838380828437600092019190915250929550610109945050505050565b6100f7610107565b6101076101026101eb565b610210565b565b60006101136101eb565b6001600160a01b03161461012657600080fd5b61012f82610234565b8051156101e7576000826001600160a01b0316826040518082805190602001908083835b602083106101725780518252601f199092019160209182019101610153565b6001836020036101000a038019825116818451168082178552505050505050905001915050600060405180830381855af49150503d80600081146101d2576040519150601f19603f3d011682016040523d82523d6000602084013e6101d7565b606091505b50509050806101e557600080fd5b505b5050565b7f7050c9e0f4ca769c69bd3a8ef740bc37934f8e2c036e5a723fd8ee048ed3f8c35490565b3660008037600080366000845af43d6000803e80801561022f573d6000f35b3d6000fd5b61023d8161029c565b6102785760405162461bcd60e51b815260040180806020018281038252603b8152602001806102a3603b913960400191505060405180910390fd5b7f7050c9e0f4ca769c69bd3a8ef740bc37934f8e2c036e5a723fd8ee048ed3f8c355565b3b15159056fe43616e6e6f742073657420612070726f787920696d706c656d656e746174696f6e20746f2061206e6f6e2d636f6e74726163742061646472657373a26469706673582212203178a2011c46abc2765f1016c5d417892138b904850d3e7866a1bfdfd1f3a76364736f6c634300060c0033",
  "immutableReferences": {},
  "source": "// SPDX-License-Identifier: Apache-2.0\r\n\r\n/******************************************************************************\r\n * Copyright 2020 IEXEC BLOCKCHAIN TECH                                       *\r\n *                                                                            *\r\n * Licensed under the Apache License, Version 2.0 (the \"License\");            *\r\n * you may not use this file except in compliance with the License.           *\r\n * You may obtain a copy of the License at                                    *\r\n *                                                                            *\r\n *     http://www.apache.org/licenses/LICENSE-2.0                             *\r\n *                                                                            *\r\n * Unless required by applicable law or agreed to in writing, software        *\r\n * distributed under the License is distributed on an \"AS IS\" BASIS,          *\r\n * WITHOUT WARRANTIES OR CONDITIONS OF ANY KIND, either express or implied.   *\r\n * See the License for the specific language governing permissions and        *\r\n * limitations under the License.                                             *\r\n ******************************************************************************/\r\n\r\npragma solidity ^0.6.0;\r\n\r\nimport '../Registry.sol';\r\nimport './Workerpool.sol';\r\n\r\n\r\ncontract WorkerpoolRegistry is Registry\r\n{\r\n\t/**\r\n\t * Constructor\r\n\t */\r\n\tconstructor()\r\n\tpublic Registry(\r\n\t\taddress(new Workerpool()),\r\n\t\t'iExec Workerpool Registry (V5)',\r\n\t\t'iExecWorkerpoolV5')\r\n\t{\r\n\t}\r\n\r\n\t/**\r\n\t * Pool creation\r\n\t */\r\n\tfunction encodeInitializer(\r\n\t\tstring memory _workerpoolDescription)\r\n\tinternal pure returns (bytes memory)\r\n\t{\r\n\t\treturn abi.encodeWithSignature(\r\n\t\t\t'initialize(string)'\r\n\t\t,\t_workerpoolDescription\r\n\t\t);\r\n\t}\r\n\r\n\tfunction createWorkerpool(\r\n\t\taddress          _workerpoolOwner,\r\n\t\tstring  calldata _workerpoolDescription)\r\n\texternal returns (Workerpool)\r\n\t{\r\n\t\treturn Workerpool(_mintCreate(_workerpoolOwner, encodeInitializer(_workerpoolDescription)));\r\n\t}\r\n\r\n\tfunction predictWorkerpool(\r\n\t\taddress          _workerpoolOwner,\r\n\t\tstring  calldata _workerpoolDescription)\r\n\texternal view returns (Workerpool)\r\n\t{\r\n\t\treturn Workerpool(_mintPredict(_workerpoolOwner, encodeInitializer(_workerpoolDescription)));\r\n\t}\r\n}\r\n",
  "sourcePath": "D:\\iexec\\PoCo\\contracts\\registries\\workerpools\\WorkerpoolRegistry.sol",
  "compiler": {
    "name": "solc",
    "version": "0.6.12+commit.27d51765.Emscripten.clang"
  },
  "schemaVersion": "3.4.3",
  "updatedAt": "2021-08-31T16:43:01.280Z",
  "networkType": "ethereum",
  "devdoc": {
    "kind": "dev",
    "methods": {
      "approve(address,uint256)": {
        "details": "See {IERC721-approve}."
      },
      "balanceOf(address)": {
        "details": "See {IERC721-balanceOf}."
      },
      "baseURI()": {
        "details": "Returns the base URI set via {_setBaseURI}. This will be automatically added as a prefix in {tokenURI} to each token's URI, or to the token ID if no specific URI is set for that token ID."
      },
      "getApproved(uint256)": {
        "details": "See {IERC721-getApproved}."
      },
      "isApprovedForAll(address,address)": {
        "details": "See {IERC721-isApprovedForAll}."
      },
      "name()": {
        "details": "See {IERC721Metadata-name}."
      },
      "owner()": {
        "details": "Returns the address of the current owner."
      },
      "ownerOf(uint256)": {
        "details": "See {IERC721-ownerOf}."
      },
      "renounceOwnership()": {
        "details": "Leaves the contract without owner. It will not be possible to call `onlyOwner` functions anymore. Can only be called by the current owner. NOTE: Renouncing ownership will leave the contract without an owner, thereby removing any functionality that is only available to the owner."
      },
      "safeTransferFrom(address,address,uint256)": {
        "details": "See {IERC721-safeTransferFrom}."
      },
      "safeTransferFrom(address,address,uint256,bytes)": {
        "details": "See {IERC721-safeTransferFrom}."
      },
      "setApprovalForAll(address,bool)": {
        "details": "See {IERC721-setApprovalForAll}."
      },
      "supportsInterface(bytes4)": {
        "details": "See {IERC165-supportsInterface}. Time complexity O(1), guaranteed to always use less than 30 000 gas."
      },
      "symbol()": {
        "details": "See {IERC721Metadata-symbol}."
      },
      "tokenByIndex(uint256)": {
        "details": "See {IERC721Enumerable-tokenByIndex}."
      },
      "tokenOfOwnerByIndex(address,uint256)": {
        "details": "See {IERC721Enumerable-tokenOfOwnerByIndex}."
      },
      "tokenURI(uint256)": {
        "details": "See {IERC721Metadata-tokenURI}."
      },
      "totalSupply()": {
        "details": "See {IERC721Enumerable-totalSupply}."
      },
      "transferFrom(address,address,uint256)": {
        "details": "See {IERC721-transferFrom}."
      },
      "transferOwnership(address)": {
        "details": "Transfers ownership of the contract to a new account (`newOwner`). Can only be called by the current owner."
      }
    },
    "version": 1
  },
  "userdoc": {
    "kind": "user",
    "methods": {
      "constructor": "Constructor"
    },
    "version": 1
  }
}